:100000000C940E010C94F4190C94211A0C940F12F8
:100010000C9433120C9457120C9436010C94360144
:100020000C9436010C9436010C9436010C94360174
:100030000C9436010C9436010C9436010C94360164
:100040000C945B220C9436010C942F150C94360101
:100050000C9436010C9436010C9436010C94360144
:100060000C94EC0F0C943601FC0C230DD50C230DD5
:10007000230D840C230D230D360C230D230D230D8E
:10008000DC0BED0B230D230D230D250C230D230D70
:10009000970CB90C230D030C660C230D230D470C94
:1000A000230D140CCC0C230D230D230D230D230D38
:1000B000230D840C230D230D360C230D230D230D4E
:1000C000DC0BED0B230D230D230D250C230D230D30
:1000D000970CAF0C230D030C660C230D230D550C50
:1000E000230D140CC30C00C201000100110011000B
:1000F0000C0000E100000A00250025002100009608
:1001000000001900390039003600127A00001F0083
:100110004600460044008070000022004D004D0063
:100120004A00004B00003600750075007200403830
:1001300000004A009C009C0099008025000072008D
:10014000EC00EC00E900C0120000E900DA01DA017D
:10015000D70160090000D701B603B603B303B004AA
:100160000000B3036E076E076B072C010000DC0E66
:10017000C11DC11DBE1D00000000240027002A0073
:1001800000000000250028002B00000000002300D4
:1001900026002900040404040404040402020202E8
:1001A000020203030303030301020408102040803A
:1001B00001020408102001020408102000000007BA
:1001C000000201000003040600000000000000001F
:1001D000494E46494E4954594E414ECDCCCC3D0A2C
:1001E000D7233C17B7D13877CC2B329595E6241F0F
:1001F000B14F0A000020410000C84200401C4620C8
:10020000BCBE4CCA1B0E5AAEC59D7400A9030406A1
:100210000109AD0A870EB116A203FD0511241FBE08
:10022000CFEFD8E0DEBFCDBF15E0A0E0B1E0ECEA53
:10023000F7E502C005900D92A638B107D9F717E08F
:10024000A6E8B5E001C01D92AD3BB107E1F712E0B1
:10025000C8E1D2E004C02297FE010E94ED26CC3016
:10026000D107C9F70E94A10D0C94C92B0C94000072
:10027000FF920F931F93182F092FF62E6EEF70E049
:1002800040E050E00E945418812F902F6F2D40E0E5
:1002900050E00E940C181F910F91FF90089562E7A3
:1002A0000E943801089561E70E943801089560E7CF
:1002B0000E94380108959C01862F8555823018F4DC
:1002C000C9010E9438010895613011F46BE401C046
:1002D0006CE40E9438010895613011F467E401C0B4
:1002E00068E40E9438010895613011F461E401C0AE
:1002F00062E40E94380108959C01862F895482305F
:1003000018F4C9010E943801089561E50E9438017E
:10031000089566E40E9438010895FF920F931F9399
:100320008C01F62E62E60E943801C8016F2D40E074
:1003300050E00E940C181F910F91FF900895FF92BA
:100340000F931F938C01F62E61E60E943801C801BD
:100350006F2D40E050E00E940C181F910F91FF900C
:100360000895FF920F931F938C01F62E65E40E946F
:100370003801C8016F2D40E050E00E940C181F9119
:100380000F91FF900895FF920F931F938C01F62E0B
:1003900062E50E943801C8016F2D40E050E00E94E4
:1003A0000C181F910F91FF900895FF920F931F93C8
:1003B0008C01F62E63E50E943801C8016F2D40E0E4
:1003C00050E00E940C181F910F91FF900895DF924A
:1003D000EF92FF920F931F93182F092FF62EE42E02
:1003E000D22E66E00E94B10189E08F1530F0812F96
:1003F000902F60E071E00E942217812F902F6F2DC7
:100400004AE050E00E940C18812F902F62E071E0CA
:100410000E94221789E08E1530F0812F902F60E026
:1004200071E00E942217812F902F6E2D4AE050E03C
:100430000E940C18812F902F64E071E00E94221717
:1004400089E08D1530F0812F902F60E071E00E94DF
:100450002217812F902F6D2D4AE050E00E940C183A
:100460001F910F91FF90EF90DF900895BF92CF9270
:10047000DF92EF92FF920F931F93182FF92ED62E33
:10048000C42EB22E66E40E94B10189E08D1530F0D1
:10049000812F9F2D60E071E00E942217812F9F2DF8
:1004A0006D2D4AE050E00E940C18812F9F2D68E0CE
:1004B00071E00E94221789E08C1530F0812F9F2D6A
:1004C00060E071E00E942217812F9F2D6C2D4AE081
:1004D00050E00E940C18812F9F2D68E071E00E946F
:1004E000221789E08B1530F0812F9F2D60E071E09D
:1004F0000E942217812F9F2D6B2D4AE050E00E9411
:100500000C18002361F0EE2029F0812F9F2D6AE066
:1005100071E009C0812F9F2D6EE071E004C0812F32
:100520009F2D62E171E00E9422171F910F91FF90B1
:10053000EF90DF90CF90BF900895CF92DF92EF922F
:10054000FF920F931F936C017A018B016AE50E9461
:10055000B101C601B801A70121E030E00E94B01945
:100560001F910F91FF90EF90DF90CF900895CF9261
:10057000DF92EF92FF920F931F936C017A018B0130
:100580006AE10E94B101C601B801A70121E030E093
:100590000E94B0191F910F91FF90EF90DF90CF90C4
:1005A0000895EF92FF920F931F93182F092F86E95A
:1005B000E82E87E0F82EC70166E171E00E94CE18B0
:1005C000812F902F0E946711812F902F40E855E2D4
:1005D00060E070E00E948712812F902F60E00E94FF
:1005E0007401812F902F0E948501812F902F60E050
:1005F0000E946C01812F902F60E00E946401812F86
:10060000902F60E00E94B101812F902F67E271E08E
:100610000E942217812F902F60E40E94B101812F48
:10062000902F6DE271E00E942217812F902F64E1DC
:100630000E94B101812F902F63E371E00E94221785
:10064000812F902F64E50E94B101812F902F69E3E3
:1006500071E00E942217812F902F61E00E947401A7
:10066000C7016FE371E00E94CE181F910F91FF90B8
:10067000EF900895EF92FF920F931F93DF93CF9324
:10068000CDB7DEB762970FB6F894DEBF0FBECDBF11
:100690008C010E9481127E010894E11CF11CC701AB
:1006A00063E044E020E00E94E7148B81F80182833C
:1006B0008C8183838D819E81958384838F818683C2
:1006C00088859985908787838A859B85928781878E
:1006D0008C859D85948783878E859F859687858762
:1006E00088899989908B87879A8981898C7F292F1E
:1006F00022709170892B822B818BC7010E94651318
:1007000062960FB6F894DEBF0FBECDBFCF91DF91DA
:100710001F910F91FF90EF9008958130910541F462
:100720006F5F7F4F71F486E895E00E943A03089569
:10073000892B39F46F5F7F4F21F486E895E00E94A2
:100740006513089580E090E06FEF7FEF0E948D03C6
:10075000089581E090E06FEF7FEF0E948D03089590
:10076000EF92FF920F931F93DF93CF93CDB7DEB736
:1007700062970FB6F894DEBF0FBECDBF8C010E940A
:1007800081127E010894E11CF11CC70163E044E082
:1007900020E00E94E7148B81F80182838C8183839F
:1007A0008D819E81958384838F81868388859985B9
:1007B000908787838A859B85928781878C859D8595
:1007C000948783878E859F85968785878889998971
:1007D000908B87879A8981898C7F292F22709170CD
:1007E000892B822B818BC7010E94651362960FB6FD
:1007F000F894DEBF0FBECDBFCF91DF911F910F9157
:10080000FF90EF9008959C012D5E3F4FC901089520
:10081000FC0183AD94ADA5ADB6ADBC01CD0108958D
:10082000FC01FF9680819181A281B381BC01CD0141
:100830000895CF92DF92EF92FF920F931F93CF9381
:10084000DF93EC017A018B016C010894C11CD11C6F
:10085000C6010E946711C601B801A70122E030E07D
:100860000E94B019C6016CE571E00E942217C60112
:100870006EE571E00E9422178AA19BA101969BA3BD
:100880008AA364EF71E080E090E00E94D722C60165
:100890000E94981304970CF4BFC0C6010E949813DD
:1008A000E82EFC2E8E010AC0C6010E947713F801C3
:1008B000838B8D3009F4138A0F5F1F4F802F8F19A0
:1008C0008E1590F3CE0143960E94C4286BAF7CAF87
:1008D0008DAF9EAF6BAD7CAD8DAD9EAD2AE939E994
:1008E00049E350E40E9480246BAF7CAF8DAF9EAF94
:1008F0002EA1E22FF0E08BAD9CADADADBEADEE0F05
:10090000FF1FEE0FFF1FEC0FFD1F87A390A7A1A7EE
:10091000B2A72F5F2EA34FE3C42ED12CCC0EDD1E29
:1009200080E090E0A0E0B0E0F60180839183A283B4
:10093000B383CD5BDF4F8881C354D040882321F43B
:1009400000E010E0760142C000E010E07601F7011F
:100950006081718182819381F801EE0FFF1FEE0F9C
:10096000FF1FEC0FFD1F27A130A541A552A50E9436
:100970008024F70160837183828393830F5F1F4F0D
:100980000530110521F7F601608171818281938123
:1009900020E030E040EA50E42FC0F701608171812F
:1009A00082819381F801EE0FFF1FEE0FFF1FEC0F06
:1009B000FD1F27A130A541A552A50E948024F70163
:1009C00060837183828393830F5F1F4F8EA190E0BA
:1009D0000817190714F3F601E080F18002811381F2
:1009E0006EA170E0882777FD8095982F0E9483255F
:1009F0009B01AC01C801B7010E94E824F6016083A5
:100A00007183828393838EA18530B9F51EA2CD5B5D
:100A1000DF4F81E0888331C08CA19DA101969DA309
:100A20008CA386E997E061E671E00E9422176AA133
:100A30007BA186E997E04AE050E00E94FB1786E937
:100A400097E065E771E00E9422176CA17DA186E91D
:100A500097E04AE050E00E94FB1786E997E06EE7D6
:100A600071E00E942217C6010E949813BC0186E91A
:100A700097E04AE050E00E94EF18DF91CF911F917C
:100A80000F91FF90EF90DF90CF900895EF92FF923B
:100A90000F931F938C0166E9E62E67E0F62EC701DF
:100AA00063E971E00E94CE180F5F1F4FC8010E94DA
:100AB0006711C80140E056E960E070E00E948712CB
:100AC000C8016DEA71E00E94221768EE73E080E0D1
:100AD00090E00E94D722C70161EB71E00E94CE181E
:100AE0001F910F91FF90EF900895EF92FF920F9357
:100AF0001F93DF93CF93CDB7DEB762970FB6F8940D
:100B0000DEBF0FBECDBF8C010E94200EC801019632
:100B10000E9481127E010894E11CF11CC70166E06D
:100B200047E020E00E94E7148B81F80183838C81E9
:100B300084838D819E81968385838F818783888539
:100B40009985918780878A859B85938782878C8505
:100B50009D85958784878E859F85978786878889D9
:100B60009989918B808B9A8982898C7F292F227019
:100B70009170892B822B828BC7010E946513F8012B
:100B800013A212A215A214A216A2015C1F4F80E0AC
:100B900090E0A0E0B0E0F80180839183A283B3836A
:100BA0000F531040F80183AF94AFA5AFB6AF0D5B04
:100BB0001F4FF801108262960FB6F894DEBF0FBE89
:100BC000CDBFCF91DF911F910F91FF90EF900895CE
:100BD0008130910541F46F5F7F4F71F488E995E0B2
:100BE0000E9475050895892B39F46F5F7F4F21F4BA
:100BF00089E995E00E946513089580E090E06FEF29
:100C00007FEF0E94E805089581E090E06FEF7FEFAD
:100C10000E94E8050895EF92FF920F931F93DF93D0
:100C2000CF93CDB7DEB762970FB6F894DEBF0FBE95
:100C3000CDBF8C010E94200EC80101960E94811236
:100C40007E010894E11CF11CC70166E047E020E04A
:100C50000E94E7148B81F80183838C8184838D81CA
:100C60009E81968385838F818783888599859187E7
:100C700080878A859B85938782878C859D859587CC
:100C800084878E859F859787868788899989918BA8
:100C9000808B9A8982898C7F292F22709170892B71
:100CA000822B828BC7010E946513F80113A212A246
:100CB00015A214A216A2015C1F4F80E090E0A0E0F4
:100CC000B0E0F80180839183A283B3830F53104077
:100CD000F80183AF94AFA5AFB6AF0D5B1F4FF8011E
:100CE000108262960FB6F894DEBF0FBECDBFCF91D3
:100CF000DF911F910F91FF90EF900895089508954F
:100D0000FC01828190E026E0969587952A95E1F78F
:100D100081700895FC0190E0808187FD91E0892F2A
:100D20000895FC018281482F4F7086FF02C08F71A9
:100D300001C08F7390E074E0959587957A95E1F7FF
:100D40009C0163E0220F331F6A95E1F7880F991F1A
:100D5000280F391F842F820F90E00895FC018281B3
:100D600090E086FF08C0E5E096958795EA95E1F763
:100D7000282F217007C0CF010E94910620E00C9718
:100D80000CF021E0822F0895FC018181282F30E0B2
:100D9000B4E035952795BA95E1F7A901A3E0440F92
:100DA000551FAA95E1F7220F331F420F531F8F7073
:100DB000840F90E00895FC018081282F2F7730E088
:100DC00074E0359527957A95E1F7A90163E0440F22
:100DD000551F6A95E1F7220F331F420F531F8F7083
:100DE000840F90E00895FC018681282F30E0A4E074
:100DF00035952795AA95E1F7A901F3E0440F551F12
:100E0000FA95E1F7220F331F420F531F8F70840FA3
:100E100090E00895FC018581282F30E044E035956D
:100E200027954A95E1F7A90193E0440F551F9A953C
:100E3000E1F7220F331F420F531F8F70840F90E092
:100E40000895FC018481282F30E0E4E03595279552
:100E5000EA95E1F7A90173E0440F551F7A95E1F790
:100E6000220F331F420F531F8F70840F90E008959D
:100E7000FC018381282F30E0B4E035952795BA95A1
:100E8000E1F7A901A3E0440F551FAA95E1F7220F4E
:100E9000331F420F531F8F70840F90E00895CF933C
:100EA000DF93FC01EB0185818F7190E0A4E09595C3
:100EB0008795AA95E1F78F70805D888385818F7013
:100EC0008A3010F4805D01C0895C89838DE28A8359
:100ED00084818F7390E074E0959587957A95E1F71A
:100EE0008F708A3010F4805D01C0895C8B838481AF
:100EF0008F708A3010F4805D01C0895C8C838DE234
:100F00008D83868190E064E0959587956A95E1F7F9
:100F10008F708A3010F4805D01C0895C8E83868179
:100F20008F708A3010F4805D01C0895C8F8380E20D
:100F30008887828186FF09C08F7190E054E0959583
:100F400087955A95E1F78F700AC08F7390E044E05F
:100F5000959587954A95E1F78F708A3010F4805DFA
:100F600001C0895C898782818F708A3010F4805D2E
:100F700001C0895C8A878AE38B8781818F7790E0C3
:100F800034E0959587953A95E1F78F708A3010F4A3
:100F9000805D01C0895C8C8781818F708A3010F4FC
:100FA000805D01C0895C8D878AE38E8780818F7721
:100FB00090E024E0959587952A95E1F78F708A3027
:100FC00010F4805D01C0895C8F8780818F708A30CA
:100FD00010F4805D01C0895C888B828186FD03C02E
:100FE000E1E1F0E00BC0CF010E94AE06882311F0D2
:100FF00080E501C081E4898BE2E1F0E0EC0FFD1FA8
:101000001082DF91CF910895FC0182818F7B8283D2
:101010000895FC0182818F79806482830895FC01A8
:101020008281806682830895262F862F6AE00E943F
:101030009626382F3295307F822F0E949626832F56
:10104000890F0895CF93DF93EC016436710518F48E
:101050000E9414088E83DF91CF910895CF93DF9380
:10106000EC01CB0101970C9720F4CE010E941408EB
:101070008D83DF91CF910895CF93DF93EC01CB0166
:1010800001974F9720F4CE010E9414088C83DF91C2
:10109000CF910895CF93DF93EC01CB010197079790
:1010A00020F4CE010E9414088B83DF91CF91089524
:1010B0001F93CF93DF93EC011A8116FF09C0CB0178
:1010C00001970C9768F4CE010E941408107606C0B0
:1010D0006931710528F40E9414081074182B1A83C2
:1010E000DF91CF911F9108951F93CF93DF93EC0170
:1010F0001A8116FD15C00E949106BC018C30910525
:101100001CF41F79106403C06C50704010661A8381
:101110006115710511F46CE070E0CE010E94580871
:10112000DF91CF911F910895FF920F931F93CF935B
:10113000DF938C01FC01F280F6FE15C00E9491063F
:10114000EC018C30910511F4C0E0D0E0C8010E94A0
:10115000AE0681112C96FFEBFF22F801F282C80146
:10116000BE010E945808DF91CF911F910F91FF900F
:101170000895CF93DF93EC016C33710518F40E944E
:1011800014088983DF91CF910895CF93DF93EC0109
:101190006C33710530F40E94140898819078982B74
:1011A0009883DF91CF910895862F262F30E044E079
:1011B000359527954A95E1F7A90193E0440F551F0E
:1011C0009A95E1F7220F331F420F531F8F70840F40
:1011D00008956F706A3018F4862F805D0895862F09
:1011E000895C089570E054E0759567955A95E1F72C
:1011F0006F706A3018F4862F805D0895862F895CA1
:10120000089508950F931F93162F042F6034A0F4B0
:1012100081E696E068E670E00E942B0E81E696E09B
:10122000612F0E94880E81E696E0602F0E94880E52
:1012300081E696E00E94DC0E1F910F910895FC015B
:10124000462F47954427479587818F76482B4783BC
:10125000CF0167E00E9402090895FC01643040F468
:10126000478140784061462B478367E00E9402092E
:101270000895FC0140814F77408360E00E9402099D
:101280000895FC0140814068408360E00E940209AB
:101290000895CF92DF92FF920F931F93CF93DF9326
:1012A000F62E6A0189018FE3861740F1203431055B
:1012B0002CF581E696E068E670E00E942B0E81E650
:1012C00096E06F2D0E94880E81E696E00E94DC0E6B
:1012D00081E696E068E670E0A8010E94F90EC0E0A1
:1012E000D0E009C081E696E00E943B0EF601EC0FCB
:1012F000FD1F80832196C017D107A4F3DF91CF9102
:101300001F910F91FF90DF90CF9008951F93162F9C
:10131000603410F08FEF1BC081E696E068E670E065
:101320000E942B0E81E696E0612F0E94880E81E6D6
:1013300096E00E94DC0E81E696E068E670E041E00F
:1013400050E00E94F90E81E696E00E943B0E1F914C
:101350000895CF92DF92FF920F931F93CF93DF9365
:10136000F62E6A0189018FE3861710F120343105CA
:10137000FCF481E696E068E670E00E942B0E81E6C0
:1013800096E06F2D0E94880EC0E0D0E00AC0F60102
:10139000EC0FFD1F608181E696E070E00E94AC0ECC
:1013A0002196C017D1079CF381E696E00E94DC0EDF
:1013B000DF91CF911F910F91FF90DF90CF90089513
:1013C000EF92FF920F931F937C0160E040E80E9430
:1013D000020901E616E0C80168E670E00E942B0EE3
:1013E000C80161E070E00E94AC0EC801F7016181A4
:1013F0000E94880EC801F70162810E94880EC80110
:10140000F70163810E94880EC801F70164810E9480
:10141000880EC801F70165810E94880EC801F70196
:1014200066810E94880EC8010E94DC0EC70160E040
:10143000F70140810E9402091F910F91FF90EF90E8
:101440000895EF92FF920F931F937C0101E616E03F
:10145000C80168E670E00E942B0EC80160E070E0F1
:101460000E94AC0EC8010E94DC0EC80168E670E064
:1014700048E050E00E94F90EC8010E943B0EF701BF
:101480008083C8010E943B0EF7018183C8010E943E
:101490003B0EF7018283C8010E943B0EF701838354
:1014A000C8010E943B0EF7018483C8010E943B0ED5
:1014B000F7018583C8010E943B0EF7018683C801AE
:1014C0000E943B0EF70187831F910F91FF90EF90D1
:1014D0000895CF93DF93EC0181E696E00E94FC0E25
:1014E000888187FF03C0CE010E943909CE0160E0E8
:1014F0000E942D09DF91CF910895FC01108280E0B8
:1015000090E0A0E0B0E085A796A7A7A7B0AB81A721
:1015100092A7A3A7B4A711AA0895FC01108280E0A6
:1015200090E0A0E0B0E085A796A7A7A7B0AB81A701
:1015300092A7A3A7B4A711AA0895FC0181A592A51B
:10154000A3A5B4A5BC01CD010895FC0185A596A570
:10155000A7A5B0A9BC01CD0108951092E40580E0D3
:1015600090E0A0E0B0E08093110690931206A09363
:101570001306B093140680930D0690930E06A09365
:101580000F06B0931006109215060895EF92FF9281
:101590000F931F93CF93DF93EC0180E00E944523CC
:1015A00064E170E080E090E00E94D72280E00E9439
:1015B00045237C0164E170E080E090E00E94D72246
:1015C00000E010E0C801B7010E94812521EE3AE752
:1015D00044E550E40E94332620E030E040E85AE33E
:1015E0000E94332620E030E048EC52E40E9433268B
:1015F00069A77AA78BA79CA72881E22FF0E089A58D
:101600009AA5ABA5BCA5EE0FFF1FEE0FFF1FEC0FB9
:10161000FD1F81839283A383B4832F5F288380E09F
:1016200090E0A0E0B0E08DA79EA7AFA7B8AB89A9D6
:10163000882319F400E010E03CC000E010E06DA544
:101640007EA58FA598A9F801EE0FFF1FEE0FFF1FD3
:10165000EC0FFD1F21813281438154810E9480243F
:101660006DA77EA78FA798AB0F5F1F4F0A3011059C
:1016700031F76DA57EA58FA598A920E030E040E266
:1016800051E42CC06DA57EA58FA598A9F801EE0F99
:10169000FF1FEE0FFF1FEC0FFD1F218132814381E1
:1016A00054810E9480246DA77EA78FA798AB0F5FFF
:1016B0001F4F888190E00817190724F3EDA4FEA4BA
:1016C0000FA518A9688170E0882777FD8095982F6D
:1016D0000E9483259B01AC01C801B7010E94E82448
:1016E0006DA77EA78FA798AB88818A3019F41882DE
:1016F00081E089ABDF91CF911F910F91FF90EF9027
:10170000089580E060E00E94C72381E060E00E94CD
:10171000C72380E00E944223089581E0809316064B
:101720000895F894FFCF1F93CF93DF93C0E0D0E0EC
:101730000DC0CE0143E0880F991F4A95E1F7CC0F09
:10174000DD1FC80FD91FE097C20FD11D10E086E939
:1017500097E00E944316892B61F0112351F486E92A
:1017600097E00E946E16282F11E080538A3078F798
:10177000E0CFCE01DF91CF911F910895EF92FF92BC
:101780000F931F9386E997E00E944316892B09F473
:10179000A4C186E997E00E946E1690E0FC01FC97D8
:1017A000EF33F10508F04FC1EC5CFF4FEE0FFF1F68
:1017B0000590F491E02D09940E94930B8C018CED1F
:1017C00095E0B8010E9458088CED95E00E94E00970
:1017D00086E997E063ED71E010C00E94930B8C01E5
:1017E0008CED95E0B8010E94B9088CED95E00E945F
:1017F000E00986E997E066EE71E00E94221786E92B
:1018000097E0B8011BC10E94930B8C018CED95E011
:10181000B8010E94C5088CED95E00E94E00986E9B8
:1018200097E06BEF71E0E9CF0E94930B8C018CED98
:1018300095E0B8010E9422088CED95E00E94E00935
:1018400086E997E060E172E0D8CF0E94930B8C01AB
:101850008CED95E0B8010E942E088CED95E00E9479
:10186000E00986E997E062E272E0C7CF0E94930B3D
:101870008C018CED95E0B8010E943C088CED95E060
:101880000E94E00986E997E065E372E0B6CF86E959
:1018900097E067E472E00E9422178CED95E00E94C9
:1018A0003807BC0186E997E0C9C00E94930B8C0100
:1018B0008CED95E0B8010E944A088CED95E00E94FD
:1018C000E00986E997E068E572E097CF8CED95E056
:1018D0000E948006882349F08CED95E00E949408D0
:1018E00086E997E061E772E008C08CED95E00E9420
:1018F000740886E997E06DE872E00E94CE188CEDDE
:1019000095E00E94E009E9C08CED95E00E94800618
:10191000882301F18CED95E00E9409088CED95E09B
:101920000E94E00986E997E069EA72E0D4C08CED94
:1019300095E00E948006882369F08CED95E00E9476
:101940000F088CED95E00E94E00986E997E063EDD1
:1019500072E0C1C086E997E061EB72E0BCC08CED3B
:1019600095E060E00E942D0986E997E06BED72E05A
:10197000B2C08CED95E060E00E941F0986E997E017
:1019800069EF72E0A8C08CED95E00E94390986E904
:1019900097E06BE173E09FC08CED95E00E944109F8
:1019A00086E997E065E373E096C00E94930B182FD9
:1019B000F92E0E94930B082FE92E8CED95E0612FF4
:1019C000402F0E94020986E997E06FE473E00E94CD
:1019D000221786E997E0612F7F2D4AE050E00E94B0
:1019E000541886E997E062E673E00E94221786E9C0
:1019F00097E0602F7E2D22C00E94930B182F092F95
:101A00008CED95E0612F0E948609F82E86E997E01B
:101A10006EE673E00E94221786E997E0612F702F2F
:101A20004AE050E00E94541886E997E062E673E0CD
:101A30000E94221786E997E06F2D70E04AE050E09F
:101A40000E94EF184AC086E997E062E873E00E94BE
:101A5000CE1886E997E06EE973E00E94CE1886E919
:101A600097E06EEB73E00E94CE1886E997E061EE96
:101A700073E00E94CE1886E997E063E074E00E946C
:101A8000CE1886E997E064E274E00E94CE1886E9F9
:101A900097E06DE374E00E94CE1886E997E00E941B
:101AA000791886E997E064E574E00E94CE1886E92B
:101AB00097E064E774E00E94CE1886E997E00E9400
:101AC000791886E997E068E974E00E94CE1886E903
:101AD00097E066EC74E00E94CE181F910F91FF9082
:101AE000EF9008950F931F9304EE15E0C8010E9434
:101AF000C60AC8010E94A50AAB01BC0188E995E0AD
:101B00000E9419048CED95E00E94210A1F910F910B
:101B1000089584EE95E00E94810B88E995E00E948B
:101B2000460586E895E00E94D1028CED95E00E9482
:101B3000690A80E06DE87BE043E050E00E94BE1956
:101B40000895DF92EF92FF920F931F930E94072355
:101B500086E997E040E052EC61E070E00E94C01539
:101B600086E997E06BEE74E00E94CE180E94890D22
:101B700086E997E069EF74E00E94CE1886E997E065
:101B80000E944316892B49F00E94BE0B06C062E3F7
:101B900070E080E090E00E94D722809116068823B2
:101BA000B1F30E94720D88E995E00E941004AB0128
:101BB000BC0186E895E00E949D0284EE95E00E94BB
:101BC000A50AAB01BC0186E895E00E94B7028CED46
:101BD00095E00E949106D82E8CED95E00E94C406F7
:101BE000F82E8CED95E00E94DB06182F8CED95E029
:101BF0000E948006082F8CED95E00E94AE06E82E2C
:101C000086E895E06D2D4F2D212F0E9436028CED38
:101C100095E00E940A07082F8CED95E00E942107AD
:101C2000182F8CED95E00E94F306282F86E895E0AA
:101C3000602F412F0E94E701109216069FCF089552
:101C4000089581E080935C066093390610925A06ED
:101C500010925B06089581E080935C0660933906DC
:101C600010925A0610925B06089580913806909162
:101C70003706891B0895909137068091380698178A
:101C800010F080E00895E92FF0E0E95EF94F8081DF
:101C90009F5F909337060895AC0120915F063091C5
:101CA000600621153105E1F09091370680913806E4
:101CB0009817B0F090E008C0FA01EA0FFB1F80818E
:101CC000A95EB94F8C939F5FA92FB0E0A617B70705
:101CD0009CF31092370660933806CB01F901099501
:101CE0000895E0915D06F0915E06309729F010921C
:101CF0005A0610925B0609950895709360066093EA
:101D00005F06089570935E0660935D0608950895DA
:101D1000DF93CF930F92CDB7DEB7698380915C06D6
:101D2000882389F080915B06803290F480915A0676
:101D3000E82FF0E0E65CF94F60838F5F80935A06EE
:101D400080935B0605C0CE01019661E00E94AF0F53
:101D50000F90CF91DF9108950E94880E0895EF9221
:101D6000FF920F931F93CF93DF937C01042F8091F9
:101D70005C06882359F0EB0110E005C0C7016991AA
:101D80000E94880E1F5F1017C8F304C0CB01642F98
:101D90000E94AF0FDF91CF911F910F91FF90EF90B5
:101DA0000895DB010D900020E9F71197A61BB70BF2
:101DB0004A2F0E94AF0E0895809139066AE376E0BB
:101DC00040915B0621E00E946C0F10925A0610921F
:101DD0005B0610925C060895413208F040E2862FBF
:101DE00067E176E00E94350F10923706809338063F
:101DF00008950E94EC0E089510923706109238064E
:101E000010925A0610925B060E941E0F08950F93BF
:101E10001F938C01862F0E94310F81E79EE00E9464
:101E2000CF0F8CE49EE00E94CA0FC8010E94FC0EF6
:101E30001F910F9108950E94070F08951092620656
:101E4000449A459AE9EBF0E080818E7F808380811F
:101E50008D7F808388E48093B80085E48093BC0004
:101E60000895880F8093BA000895982F413210F09A
:101E700040E030C0809162068823E1F781E08093E2
:101E800062068FEF8093CD061092880641504093F2
:101E900089064F5F990F91609093630685EE80935A
:101EA000BC00809162068130E1F38091880684173E
:101EB00010F44091880620E030E00AC0FB01E20FF8
:101EC000F31FD901A859B94F8C9180832F5F3F4FE1
:101ED0002417A0F3842F08951F93582F122F4132F7
:101EE00010F081E03AC0809162068823E1F782E039
:101EF000809362068FEF8093CD0610928806409300
:101F00008906A8E6B6E0FB0102C081918D938E2F71
:101F1000861B8417D0F3852F90E0880F991F80933C
:101F2000630685EE8093BC00112321F08091620648
:101F30008230E1F38091CD068F3F11F480E00DC037
:101F40008091CD06803211F482E007C08091CD06E9
:101F5000803311F084E001C083E01F910895482F81
:101F6000613210F081E0089580916206843011F0B2
:101F700082E008956093AB06AAE8B6E0842F9C0146
:101F8000F90102C081918D938E2F841B8617D0F3A7
:101F900080E0089590936706809366060895909375
:101FA0006506809364060895882311F085EC01C0CE
:101FB00085E88093BC00089585ED8093BC008091F6
:101FC000BC0084FDFCCF10926206089585EC8093DE
:101FD000BC001092620608951F920F920FB60F92E6
:101FE00011242F933F934F935F936F937F938F931E
:101FF0009F93AF93BF93EF93FF938091B90090E0CD
:10200000887F90708036910509F4DCC08136910597
:10201000CCF58832910509F47BC089329105B4F47E
:102020008031910509F46FC0813191053CF400972E
:1020300009F431C1089709F039C165C088319105AB
:1020400009F466C0809709F031C17DC080349105E4
:1020500009F49FC08134910544F48033910509F45B
:102060007DC0C89709F022C184C08035910509F46C
:1020700084C08835910509F491C08834910509F030
:1020800015C198C08839910509F4FDC089399105B9
:10209000ECF48837910509F495C0893791054CF423
:1020A0008836910509F48EC08037910509F0FEC08D
:1020B00089C08838910509F4E6C08039910509F492
:1020C00087C08038910509F0F1C082C0803B91053E
:1020D00009F4B0C0813B91054CF4803A910509F4B4
:1020E00089C0883A910509F0E1C0A4C0803C9105FF
:1020F00009F4CDC0883C910509F4C9C0883B91051D
:1021000009F0D4C0ACC0809163068093BB00B9C015
:102110009091880680918906981768F490918806B6
:10212000E92FF0E0E859F94F80818093BB009F5F71
:1021300090938806A6C085ED8093BC008091BC007A
:1021400084FDFCCFB1C080E28093CD0685ED809305
:10215000BC008091BC0084FDFCCFA6C080E38093CE
:10216000CD0685ED8093BC008091BC0084FDFCCF42
:102170009BC088E38093CD068AC0809188069091A9
:10218000BB00E82FF0E0E859F94F90838F5F809310
:102190008806909188068091890671C08091880692
:1021A0009091BB00E82FF0E0E859F94F90838F5FE2
:1021B0008093880685ED8093BC008091BC0084FDEF
:1021C000FCCF72C083E0809362061092CC0659C0A7
:1021D0008091CC06803208F056C08091CC06909158
:1021E000BB00E82FF0E0E455F94F90838F5F8093B8
:1021F000CC0647C08091CC06803230F4E091CC060A
:10220000F0E0E455F94F108285ED8093BC00809199
:10221000BC0084FDFCCF109262066091CC06E09178
:102220006606F09167068CEA96E070E009951092D8
:10223000CC062DC084E0809362061092AA0610920C
:10224000AB06E0916406F091650609958091AB06B6
:10225000882329F481E08093AB0610928A0690913E
:10226000AA06E92FF0E0E657F94F80818093BB0082
:102270009F5F9093AA069091AA068091AB0698174B
:1022800010F485EC01C085E88093BC000FC085EC9C
:102290008093BC0009C01092CD0685ED8093BC00F0
:1022A0008091BC0084FDFCCF10926206FF91EF91FB
:1022B000BF91AF919F918F917F916F915F914F915E
:1022C0003F912F910F900FBE0F901F901895FC011A
:1022D0008091CE069091CF068E179F0711F480E073
:1022E000089581898E7F818B9FB7F8941092100793
:1022F0008091100780931107F093CF06E093CE06EC
:102300009FBF81E008950F931F93CF93DF93FC014C
:102310008189A481B5819381082F027081FF05C056
:102320008C91892309F454C004C08C91892309F04D
:102330004FC08185928520E001972FEF8F3F920754
:10234000D9F7C385D485A481B581738160E031E07C
:1023500040E050E010E0CE01212F01972FEF8F3F9A
:102360009207D9F78C91872311F0632B03C0832F39
:1023700080956823330F4F5F5F4F4830510559F701
:102380008585968520E001972FEF8F3F9207D9F73B
:1023900001116095809110072091110790E001963E
:1023A0008F73907030E08217930779F0E0911007F7
:1023B000F0E0E053F94F60838091100790E00196C0
:1023C0008F7390708093100703C081898160818B27
:1023D000DF91CF911F910F910895FC01A781B085E6
:1023E0009681662329F48C91909598239C93089567
:1023F0008C91892B8C930895DC011496ED91FC91BE
:102400001597808113969C91892308958091CE061B
:102410009091CF06009711F00E94831108951F92AA
:102420000F920FB60F9211242F933F934F935F9308
:102430006F937F938F939F93AF93BF93EF93FF938C
:102440000E940612FF91EF91BF91AF919F918F91E2
:102450007F916F915F914F913F912F910F900FBEA0
:102460000F901F9018951F920F920FB60F92112484
:102470002F933F934F935F936F937F938F939F938C
:10248000AF93BF93EF93FF930E940612FF91EF91DA
:10249000BF91AF919F918F917F916F915F914F917C
:1024A0003F912F910F900FBE0F901F9018951F9284
:1024B0000F920FB60F9211242F933F934F935F9378
:1024C0006F937F938F939F93AF93BF93EF93FF93FC
:1024D0000E940612FF91EF91BF91AF919F918F9152
:1024E0007F916F915F914F913F912F910F900FBE10
:1024F0000F901F901895FC018EE295E091838083E8
:102500000895FC018EE295E0918380830895CF9237
:10251000DF92EF92FF920F931F93CF93DF93EC0123
:102520007A018B01188A1F861E861D861C861B86D3
:102530001A86198620E030E06901CC0CDD1CC20E41
:10254000D31EB601660F771F660F771FAB014A5186
:102550005F4FFA0185919591A591B4918E159F05D4
:10256000A007B107E9F4FB01E651FF4F8591949173
:102570009A878987FB01E451FF4F859194919C874D
:102580008B87FB01E251FF4F859194919E878D8748
:10259000FB01E051FF4F85919491988B8F8706C086
:1025A0002F5F3F4F2C30310509F0C6CF8D859E85BA
:1025B000892B09F449C04A81463108F03DC0909109
:1025C0006800483010F484E005C04E3010F082E01E
:1025D00001C081E0892B80936800483028F4EDE643
:1025E000F0E0ADE6B0E00BC04E3028F0ECE6F0E0F5
:1025F000ACE6B0E004C0EBE6F0E0ABE6B0E0508162
:10260000483040F481E090E002C0880F991F4A955D
:10261000E2F710C0242F30E04E3018F4285030403C
:1026200002C02E50304081E090E002C0880F991F18
:102630002A95E2F7852B8C938F85988920E0019766
:102640002FEF8F3F9207D9F7CE010E946711DF91DC
:10265000CF911F910F91FF90EF90DF90CF90089551
:10266000FC014281463180F5483028F4EDE6F0E087
:10267000ADE6B0E00BC04E3028F4EBE6F0E0ABE6A0
:10268000B0E004C0ECE6F0E0ACE6B0E050814830E9
:1026900040F481E090E002C0880F991F4A95E2F76C
:1026A00010C0242F30E04E3018F42850304002C0C3
:1026B0002E50304081E090E002C0880F991F2A958B
:1026C000E2F7809585238C930895FC018EE295E0D6
:1026D00091838083CF010E9430130895FC018EE224
:1026E00095E091838083CF010E943013089520915B
:1026F000CE063091CF062817390731F49091110793
:1027000080911007981719F42FEF3FEF0FC0E09159
:102710001107F0E0E053F94F20818091110790E01C
:1027200001968F7390708093110730E0C90108956E
:102730002091CE063091CF062817390719F020E0F6
:1027400030E00EC0809110072091110790E0805C6E
:102750009F4F821B910960E470E00E94A2269C01B9
:10276000C90108950F931F93DC011F968D919C91D1
:102770005097892B09F49BC00FB7F89451968C9110
:1027800051971796ED91FC91189716962C911697E4
:1027900081FF88C08081822B80831F968D919C91C0
:1027A0005097059620E001972FEF8F3F9207D9F7BA
:1027B00051968C91519781FF35C031E040E050E057
:1027C00070E010E0832F90E0862397231796ED9119
:1027D000FC91189716962C911697892B29F08081D9
:1027E00020952823208303C08081822B80831F961D
:1027F0008D919C915097212F01972FEF8F3F92073A
:10280000D9F7330F4F5F5F4F48305105D9F6179610
:10281000ED91FC911897908116968C911697809562
:10282000892333C031E040E050E070E010E0832FB6
:1028300090E0862397231796ED91FC9118971696B2
:102840002C911697892B21F08081822B808304C0E4
:1028500080812095282320831F968D919C915097ED
:10286000212F01972FEF8F3F9207D9F7330F4F5F3B
:102870005F4F48305105D9F61796ED91FC911897A6
:10288000808116969C911697892B80830FBF1F9687
:102890008D919C91509720E001972FEF8F3F9207E9
:1028A000D9F705C0808120952823208376CF1F91FA
:1028B0000F910895882321F080916E00816003C0FC
:1028C00080916E008E7F80936E0008952091CE06D9
:1028D0003091CF062817390749F49FB7F894109222
:1028E000100780911007809311079FBF08952091D2
:1028F000CE063091CF062817390731F49091110791
:1029000080911007981719F42FEF3FEF08C0E0915E
:102910001107F0E0E053F94F8081282F30E0C90122
:1029200008951F93CF93DF93EC01162F862F60E05D
:102930000E94C723898981FD04C0812F61E00E9424
:102940001A241A83212F30E0C90188559E4FFC01BB
:1029500084918B832C563E4FF9016491E62FF0E071
:10296000EE0FFF1FE657FE4F859194919D838C8358
:10297000DF91CF911F910895FF920F931F938C01C8
:10298000F62E862F61E00E94C7238F2D61E00E9402
:102990001A248F2D90E0FC01E855FE4FE491D801F8
:1029A0001696EC9316978C569E4FFC016491E62F79
:1029B000F0E0EE0FFF1FE058FE4F859194911896BE
:1029C0009C938E9317971F910F91FF900895FF92FC
:1029D0000F931F938C01F62E8EE295E0F801918300
:1029E0008083128611861486138616861586108AB1
:1029F000178681892170220F8C7F822B818BC801E1
:102A0000642F0E94BC14C8016F2D0E9491141F9165
:102A10000F91FF900895FF920F931F938C01F62E54
:102A20008EE295E0F80191838083128611861486E8
:102A3000138616861586108A178681892170220FC3
:102A40008C7F822B818BC801642F0E94BC14C8012B
:102A50006F2D0E9491141F910F91FF9008951F9266
:102A60000F920FB60F9211242F933F934F938F9392
:102A70009F93EF93FF934091C600E0919207F091EE
:102A8000930731969F012F7730703197809194078B
:102A9000909195072817390739F0EE5EF84F40837B
:102AA0003093930720939207FF91EF919F918F911D
:102AB0004F913F912F910F900FBE0F901F9018953F
:102AC0008F92AF92CF92DF92EF92FF920F931F936C
:102AD000DF93CF93CDB7DEB7FC0182E595E091831C
:102AE000808373836283558344833783268311876E
:102AF0000087F386E286D586C486A68687868D857E
:102B0000808B8E85818B8F85828BCF91DF911F91FA
:102B10000F91FF90EF90DF90CF90AF908F9008953E
:102B20008F92AF92CF92DF92EF92FF920F931F930B
:102B3000DF93CF93CDB7DEB7FC0182E595E09183BB
:102B4000808373836283558344833783268311870D
:102B50000087F386E286D586C486A68687868D851D
:102B6000808B8E85818B8F85828BCF91DF911F919A
:102B70000F91FF90EF90DF90CF90AF908F900895DE
:102B8000CF93DF93EC019A01AB01E885F985203002
:102B900081EE380780E0480780E0580709F445C017
:102BA00081E090E00A8802C0880F991F0A94E2F73A
:102BB000808360E079E08DE390E00E94B5262150AB
:102BC0003040404050405695479537952795EC81C9
:102BD000FD813083EE81FF812083EA85FB852081A2
:102BE00041E050E0CA010E8402C0880F991F0A9488
:102BF000E2F7282B2083EA85FB852081CA010F8418
:102C000002C0880F991F0A94E2F7282B2083EA85D7
:102C1000FB858081088802C0440F551F0A94E2F7A3
:102C2000842B8083DF91CF910895108220E130E0E2
:102C3000CECFFC01A285B3854C9121E030E0C901E3
:102C4000068402C0880F991F0A94E2F780958423B6
:102C50008C93A285B3854C91C901078402C0880F6B
:102C6000991F0A94E2F7809584238C93A285B385FB
:102C70008C91008802C0220F331F0A94E2F720953E
:102C800028232C930895DC011296ED91FC91139763
:102C9000E058FF4F2191319180819181281B390BA0
:102CA0002F773070C9010895DC011296ED91FC91E7
:102CB0001397EE57FF4F2081318192918291E05816
:102CC000F0408217930719F42FEF3FEF05C0E20F92
:102CD000F31F8081282F30E0C9010895DC0112968E
:102CE000ED91FC911397DF01AE57BF4F2D913C91B1
:102CF0001197E058FF4F80819181E058F040821792
:102D0000930719F42FEF3FEF0BC0E20FF31F808101
:102D10002F5F3F4F2F7730702D933C93282F30E05B
:102D2000C9010895DC011296ED91FC911397EE57BD
:102D3000FF4F80819181929382930895FC01A08539
:102D4000B18521898C9190E0022E02C095958795DE
:102D50000A94E2F780FFF6CF0484F585E02D6083C6
:102D6000089582E595E0909397078093960782E116
:102D700097E0909399078093980785EC90E0909363
:102D80009B0780939A0784EC90E090939D07809333
:102D90009C0780EC90E090939F0780939E0781ECC6
:102DA00090E09093A1078093A00786EC90E0909329
:102DB000A3078093A20784E08093A40783E0809315
:102DC000A50787E08093A60785E08093A70781E0A9
:102DD0008093A80708950F931F93CF93DF938C01DF
:102DE000EB0109C02196D801ED91FC910190F08191
:102DF000E02DC801099568816623A1F7DF91CF9185
:102E00001F910F910895EF92FF920F931F93CF930D
:102E1000DF938C017B01EA010CC0D7016D917D012C
:102E2000D801ED91FC910190F081E02DC801099548
:102E30002197209791F7DF91CF911F910F91FF90EC
:102E4000EF900895DC01ED91FC910280F381E02D7B
:102E500009950895CF92DF92EF92FF920F931F93FF
:102E6000CF93DF936C017B01C0E0D0E00EC0D601B0
:102E7000ED91FC9100811181C701BE010E947C1A75
:102E8000682FC601F80109952196F7018481958183
:102E9000C817D90760F3DF91CF911F910F91FF9071
:102EA000EF90DF90CF9008952F923F924F925F92D4
:102EB0006F927F928F929F92AF92BF92CF92DF924A
:102EC000EF92FF920F931F93DF93CF93CDB7DEB7AF
:102ED000A0970FB6F894DEBF0FBECDBF1C016A01EC
:102EE0007B01411551056105710549F440E350E04E
:102EF00060E070E020E030E00E941E1854C088249A
:102F000099245401422E55246624772401E010E0D0
:102F10000C0F1D1F080D191DC701B601A301920159
:102F20000E94B526F80160830894811C911CA11CA5
:102F3000B11CC701B601A30192010E94B526C901C7
:102F4000DA016C017D01C114D104E104F104F1F650
:102F500081E0E82EF12CEC0EFD1EE80CF91C3E0180
:102F60000894611C711CD501C4010197A109B10924
:102F70006C01C818D90814C0F601EE0DFF1D408180
:102F80004A3010F4405D01C0495C50E060E070E000
:102F9000C10120E030E00E941E180894E108F10809
:102FA0006E147F0449F7A0960FB6F894DEBF0FBEEB
:102FB000CDBFCF91DF911F910F91FF90EF90DF90E8
:102FC000CF90BF90AF909F908F907F906F905F90C9
:102FD0004F903F902F900895DC012115310541F469
:102FE000ED91FC910190F081E02D642F09950895F9
:102FF0000E9454170895EF92FF920F931F939A0126
:103000007B0100E010E0B801A7010E94EC171F91BE
:103010000F91FF90EF900895EF92FF920F931F93FF
:103020009A01E62EFF2400E010E0B801A7010E94FB
:10303000EC171F910F91FF90EF900895EF92FF9280
:103040000F931F93CF93DF93EC017A018B0121152E
:10305000310541F4E881F9810190F081E02D642F80
:1030600009951BC02A303105B1F477FF10C04DE23D
:1030700050E060E070E020E030E00E941E18109503
:103080000095F094E094E11CF11C011D111DCE018E
:10309000B801A7012AE00E945417DF91CF911F9138
:1030A0000F91FF90EF900895EF92FF920F931F936F
:1030B0007B019A010027F7FC0095102FB801A701AA
:1030C0000E941E181F910F91FF90EF900895EF92AC
:1030D000FF920F931F939A01E62EFF2400E010E069
:1030E000B801A7010E941E181F910F91FF90EF9049
:1030F00008950F931F938C014DE050E060E070E065
:1031000020E030E00E941E18C8014AE050E060E074
:1031100070E020E030E00E941E181F910F9108958A
:103120000F931F938C010E94EC17C8010E9479181D
:103130001F910F910895CF92DF92EF92FF920F931C
:103140001F938C019A016B01EE24FF24B701A601A5
:103150000E94EC17C8010E9479181F910F91FF90EF
:10316000EF90DF90CF900895CF92DF92EF92FF9291
:103170000F931F938C019A01C62EDD24EE24FF24A9
:10318000B701A6010E94EC17C8010E9479181F918F
:103190000F91FF90EF90DF90CF9008950F931F93C2
:1031A0008C010E942217C8010E9479181F910F916B
:1031B00008950F931F938C010E942A17C8010E9443
:1031C00079181F910F9108950F931F938C010E94FE
:1031D0001E18C8010E9479181F910F910895CF926F
:1031E000DF92EF92FF920F931F938C016B019A0174
:1031F000EE24D7FCE094FE2CB701A6010E941E1815
:10320000C8010E9479181F910F91FF90EF90DF90F5
:10321000CF900895CF92DF92EF92FF920F931F937A
:103220008C019A01C62EDD24EE24FF24B701A601ED
:103230000E941E18C8010E9479181F910F91FF90DB
:10324000EF90DF90CF9008959F92AF92BF92CF9270
:10325000DF92EF92FF920F931F93CF93DF93EC01D6
:103260007A018B01922ECB01BA0120E030E040E0E0
:1032700050E00E94E42488236CF4CE014DE250E03B
:1032800060E070E020E030E00E941E1817FB10950F
:1032900017F9109520E030E040E05FE3AA240BC06E
:1032A000CA01B90120E030E040E251E40E94E82484
:1032B0009B01AC01A394A91498F3C801B7010E9423
:1032C00080245B016C010E9455257B018C01CE019D
:1032D000B801A7012AE030E00E94EC17992029F0FC
:1032E000CE0162E775E00E942217C801B7010E9473
:1032F00081259B01AC01C601B5010E947F2422C03B
:1033000020E030E040E251E40E9433267B018C0152
:103310000E9450255B016C01CC24B7FCC094DC2CCE
:10332000CE01B601A5012AE030E00E941E18C601B8
:10333000B5010E9483259B01AC01C801B7010E9421
:103340007F249A949920E1F6DF91CF911F910F91FC
:10335000FF90EF90DF90CF90BF90AF909F90089537
:103360000E94241908950F931F938C010E94241921
:10337000C8010E9479181F910F910895823000F5BD
:10338000E82FF0E0EE0FFF1FE755F84F71836083E1
:10339000882319F08130A1F408C0809169008C7FE6
:1033A000842B80936900E89A089580916900440F06
:1033B000551F440F551F837F842B80936900E99A22
:1033C0000895823080F4882319F0813021F402C0FE
:1033D000E89801C0E998E82FF0E0EE0FFF1FE755ED
:1033E000F84F1182108208951F920F920FB60F921C
:1033F00011242F933F934F935F936F937F938F93FA
:103400009F93AF93BF93EF93FF938091A907909100
:10341000AA07892B29F0E091A907F091AA0709953D
:10342000FF91EF91BF91AF919F918F917F916F919C
:103430005F914F913F912F910F900FBE0F901F9072
:1034400018951F920F920FB60F9211242F933F934E
:103450004F935F936F937F938F939F93AF93BF939C
:10346000EF93FF938091AB079091AC07892B29F0E4
:10347000E091AB07F091AC070995FF91EF91BF91F7
:10348000AF919F918F917F916F915F914F913F91FC
:103490002F910F900FBE0F901F901895FC01019077
:1034A000F081E02DE60FF71F80810895DC01ED919A
:1034B000FC911197309751F014968D919C9115972E
:1034C0006817790718F4E60FF71F40830895FC0189
:1034D0009B01848195816817790728F46081718147
:1034E0006115710529F41092AD076DEA77E002C00D
:1034F000620F731FCB010895FC010190F081E02D54
:10350000E60FF71F80810895FC01808191810E9460
:10351000C82808950F931F93CF93DF93FC018B016D
:1035200041155105A1F06115710589F084819581DE
:10353000EA0121978C179D0708F4EC0160817181E5
:10354000C801AE010E944429C00FD11F1882DF912B
:10355000CF911F910F9108950F931F93CF93DF93F6
:10356000FC018B0141155105A1F06115710589F030
:1035700084819581EA0121978C179D0708F4EC015D
:1035800060817181C801AE010E944429C00FD11F22
:103590001882DF91CF911F910F9108950F931F9380
:1035A0008C01FC01808191810E949E27F801138289
:1035B0001282158214821F910F910895FC01DB0184
:1035C00014962D913C91159784819581821B930BC4
:1035D0008417950710F480E00895808191816D91A2
:1035E0007C91840F951FA9010E9436299C0180E0DF
:1035F000232B09F481E00895FC01DB01248135814E
:1036000014968D919C9115972817390710F480E036
:103610000895CF0140E050E00E94DE1A0895DF9245
:10362000EF92FF920F931F93CF93DF93EC018C8166
:103630009D8148175907B8F47A010894E11CF11CE0
:10364000E881F981EE0DFF1DD0801082088119817B
:10365000C80170E00E9453299C010E0D1F1DF80146
:10366000D082009719F4EFEFFFEF05C088819981B0
:10367000F901E81BF90BCF01DF91CF911F910F9159
:10368000FF90EF90DF900895FC01448155814150F7
:1036900050400E940F1B0895CF93DF93FC01DB0184
:1036A000848195814817590760F4C081D1816D915B
:1036B0007C91CE01840F951F0E945E299C0100978A
:1036C00019F42FEF3FEF02C02C1B3D0BC901DF9116
:1036D000CF91089540E050E00E944C1B0895CF9395
:1036E000DF93FC01848195814817590758F4C08104
:1036F000D181CE01840F951F70E00E941B299C018F
:10370000009719F42FEF3FEF02C02C1B3D0BC901AE
:10371000DF91CF91089540E050E00E946F1B089523
:10372000DC01FB0114962D913C91159784819581C4
:103730002817390711F080E00895608171818D911B
:103740009C910E9426299C0180E0232B09F481E0B2
:103750000895FC01DB012481358114968D919C91A3
:1037600015972817390710F480E00895281B390BA6
:10377000808191816D917C91820F931F0E942629F7
:103780009C0180E0232B09F481E00895DC01FB011A
:10379000608171818D919C910E942629292F332768
:1037A00027FD3095209530952227330F221F332790
:1037B000C9010895DC01FB01608171818D919C91AB
:1037C0000E94262940E050E01816190614F041E046
:1037D00050E0CA010895DC01FB01608171818D9187
:1037E0009C910E94262940E050E01816190614F416
:1037F00041E050E0CA010895DC01FB016081718164
:103800008D919C910E942629292F332727FD3095E1
:103810002227330F221F3327C9010895DC01FB0142
:1038200014962D913C91159784819581281739071D
:1038300051F4608171818D919C910E9426299C0197
:1038400080E0232B09F081E090E00895DC01FB018A
:1038500014962D913C9115978481958128173907ED
:1038600011F080E00BC0608171818D919C910E946C
:1038700026299C0180E0232B09F481E090E0089543
:10388000FC01DB016D917C91808191810E94262950
:1038900008950F931F93CF93DF93EC018B01FB01EE
:1038A000648175818C819D81680F791F7D836C8314
:1038B0008A819B8186179707B8F46F5F7F4F888155
:1038C00099810E94F6274C815D81009729F09983A8
:1038D00088835B834A8308C0F80184819581481BF3
:1038E000590B5D834C8307C0F80160817181888129
:1038F00099810E941029CE01DF91CF911F910F91E4
:1039000008950E94491C0895CF93DF93EC01CB01E9
:103910007B836A8301960E94F126998388830097AE
:1039200021F41B821A821D821C82DF91CF9108959F
:103930000F931F93CF93DF93EC018B0186179707AB
:1039400009F1FB01248135818C819D8182179307C8
:1039500050F4888199810E949E27F80164817581C5
:10396000CE010E94841C288139812115310551F036
:10397000F801848195819D838C8360817181C90167
:103980000E942F29CE01DF91CF911F910F910895B1
:103990001F93CF93DF93EC01162F81E090E09D837E
:1039A0008C83CE0161E070E00E94841CE881F98183
:1039B000309721F01083E881F9811182DF91CF9156
:1039C0001F9108951F93CF93DF93EC01162F81E091
:1039D00090E09D838C83CE0161E070E00E94841CA6
:1039E000E881F981309721F01083E881F981118213
:1039F000DF91CF911F9108951F93CF93DF93EC0137
:103A0000162F81E090E09D838C83CE0161E070E011
:103A10000E94841CE881F981309721F01083E881AD
:103A2000F9811182DF91CF911F9108951F93CF9358
:103A3000DF93EC01162F81E090E09D838C83CE0113
:103A400061E070E00E94841CE881F981309721F0E8
:103A50001083E881F9811182DF91CF911F91089540
:103A60000F931F93CF93DF938C01EB016C817D81CA
:103A7000FC01758364830E94841CF801808191811C
:103A8000009721F0688179810E942F29DF91CF91E1
:103A90001F910F9108950F931F93CF93DF938C0184
:103AA000EB016C817D81FC01758364830E94841C21
:103AB000F80180819181009721F0688179810E94CD
:103AC0002F29DF91CF911F910F910895EF92FF92CF
:103AD0000F931F93DF93CF93CDB7DEB7A1970FB6A8
:103AE000F894DEBF0FBECDBF8C01CB01BA017E01C1
:103AF0000894E11CF11CA7012AE030E00E94E229B1
:103B0000F70101900020E9F73197EE19FF09D8017C
:103B10001596FC93EE931497C801BF010E94841C74
:103B2000F80180819181009719F0B7010E942F2937
:103B3000A1960FB6F894DEBF0FBECDBFCF91DF9137
:103B40001F910F91FF90EF900895EF92FF920F93C6
:103B50001F93DF93CF93CDB7DEB7A1970FB6F8943D
:103B6000DEBF0FBECDBF8C01CB01BA017E01089430
:103B7000E11CF11CA7012AE030E00E94E229F701D4
:103B800001900020E9F73197EE19FF09D801159649
:103B9000FC93EE931497C801BF010E94841CF801A6
:103BA00080819181009719F0B7010E942F29A19679
:103BB0000FB6F894DEBF0FBECDBFCF91DF911F913E
:103BC0000F91FF90EF900895EF92FF920F931F9344
:103BD000DF93CF93CDB7DEB7A1970FB6F894DEBFD2
:103BE0000FBECDBF8C019A0180E090E07E01089469
:103BF000E11CF11CA7010E94E229F70101900020BD
:103C0000E9F73197EE19FF09D8011596FC93EE9369
:103C10001497C801BF010E94841CF8018081918122
:103C2000009719F0B7010E942F29A1960FB6F894BA
:103C3000DEBF0FBECDBFCF91DF911F910F91FF90DF
:103C4000EF900895EF92FF920F931F93DF93CF931E
:103C5000CDB7DEB7A1970FB6F894DEBF0FBECDBFCC
:103C60008C019A0180E090E07E010894E11CF11C37
:103C7000A7010E94E229F70101900020E9F731979E
:103C8000EE19FF09D8011596FC93EE931497C8011D
:103C9000BF010E94841CF80180819181009719F076
:103CA000B7010E942F29A1960FB6F894DEBF0FBE70
:103CB000CDBFCF91DF911F910F91FF90EF900895AD
:103CC0000F931F93CF93DF938C01EB016115710567
:103CD00011F4CEE7D5E0FE0101900020E9F731971D
:103CE000EC1BFD0BD8011596FC93EE931497C801BD
:103CF000BF010E94841CF80180819181009719F016
:103D0000BE010E942F29DF91CF911F910F9108953D
:103D1000AF92BF92CF92DF92EF92FF920F931F93D9
:103D2000CF93DF93B82EA92E6B01C82FD92FFB019B
:103D300060817181CE010E94601EEE24FF240EC0BE
:103D4000088119810E0D1F1DF801808190E00E94ED
:103D5000FF28F80180830894E11CF11CF60184819E
:103D60009581E816F90660F38B2D9A2DDF91CF919E
:103D70001F910F91FF90EF90DF90CF90BF90AF9089
:103D80000895AF92BF92CF92DF92EF92FF920F937E
:103D90001F93CF93DF93B82EA92E6B01C82FD92F75
:103DA000FB0160817181CE010E94601EEE24FF2420
:103DB0000EC0088119810E0D1F1DF801808190E051
:103DC0000E94F728F80180830894E11CF11CF60199
:103DD00084819581E816F90660F38B2D9A2DDF9189
:103DE000CF911F910F91FF90EF90DF90CF90BF90F8
:103DF000AF900895EF92FF920F931F93DF93CF93AD
:103E0000CDB7DEB72C970FB6F894DEBF0FBECDBF8F
:103E1000FC017B018617970711F401E029C024817A
:103E20003581DB0114968D919C91159728173907E0
:103E300011F000E01DC0CE010196BF010E94C11E1D
:103E400009811A81CE010796B7010E94C11E6F81B8
:103E50007885C8010E94262900E0009709F401E056
:103E6000CE0107960E94CE1ACE0101960E94CE1A6C
:103E7000802F2C960FB6F894DEBF0FBECDBFCF912A
:103E8000DF911F910F91FF90EF900895CF92DF92F5
:103E9000EF92FF921F93CF93DF936C017B01B901E7
:103EA0002417350710F4BA01A901D70114968D9192
:103EB0009C911597EB018617970708F4EC01D70141
:103EC000ED91FC911197EC0FFD1F108110826D9107
:103ED0007C91640F751FC6010E94601ED701ED9191
:103EE000FC91EC0FFD1F1083C601DF91CF911F9154
:103EF000FF90EF90DF90CF9008950F931F938C0168
:103F0000FB01248135810E94461FC8011F910F913A
:103F100008958F929F92AF92BF92CF92DF92EF92CD
:103F2000FF920F931F93DF93CF9300D000D000D068
:103F3000CDB7DEB75C016B01DB0114968D919C91CE
:103F400015970097A1F101974817590780F1F501DE
:103F5000848195814817590750F5ED91FC910081B6
:103F60007A014E010894811C911C1FC0D501ED916E
:103F7000FC91EE0DFF1D80818017A1F4F6012481D4
:103F800035812E0D3F1DC401B501A7010E94461FBA
:103F9000C401B6010E94901B182FC4010E94CE1AC2
:103FA000112341F40894E108F108F7FEDFCFEE2475
:103FB000EA94FE2CC70126960FB6F894DEBF0FBE1A
:103FC000CDBFCF91DF911F910F91FF90EF90DF90C8
:103FD000CF90BF90AF909F908F900895FC01DB0130
:103FE0004481558114968D919C911597481B590BCE
:103FF000CF010E94891F0895AF92BF92CF92DF92A6
:10400000EF92FF920F931F93DF93CF9300D000D0D6
:1040100000D0CDB7DEB75C018B01DB016D917C91E7
:104020006115710521F4B8010E94301D3EC0CE011A
:1040300001960E94601EF801E480F580CC24DD2406
:104040000EC0D801ED91FC91EC0DFD1D808190E03A
:104050000E94EF28892B31F00894C11CD11CCE148A
:10406000DF0478F3ED80FE800BC0D801ED91FC9168
:10407000EE0DFF1D808190E00E94EF28892B31F02A
:104080000894E108F108CE14DF0478F30894E11CE9
:10409000F11CC5018E010F5F1F4FB801A6019701EA
:1040A0000E94461FC8010E94CE1AC50126960FB66F
:1040B000F894DEBF0FBECDBFCF91DF911F910F915E
:1040C000FF90EF90DF90CF90BF90AF9008952F9228
:1040D0003F924F925F926F927F928F929F92AF9298
:1040E000BF92CF92DF92EF92FF920F931F93DF93D5
:1040F000CF93CDB7DEB768970FB6F894DEBF0FBE8B
:10410000CDBF3C01FB012A0119016081718161155C
:10411000710521F4BF010E94301D5AC07E01089430
:10412000E11CF11CC7010E94601E8E01095F1F4F38
:10413000C8016EE775E00E94601ED02EC12E3DE0E2
:10414000832E912C8C0E9D1E23E1A22EB12CAC0E41
:10415000BD1E24C0C401B70140E050E098010E9498
:10416000461F8D2D9C2DB4010E94491CC4010E9444
:10417000CE1A8D2D9C2DB1010E94491CF201448163
:104180005581400F511FC501B7010E947D1FC70116
:10419000B5010E94981CC5010E94CE1AC701B20148
:1041A0000E946A1B8C01FFEF8F3F9F0799F68D2DB0
:1041B0009C2DB7010E94491CC3016D2D7C2D0E94CE
:1041C000301D8D2D9C2D0E94CE1AC7010E94CE1A43
:1041D000C30168960FB6F894DEBF0FBECDBFCF9176
:1041E000DF911F910F91FF90EF90DF90CF90BF90E4
:1041F000AF909F908F907F906F905F904F903F9087
:104200002F900895EF92FF920F931F93DF93CF9318
:1042100000D000D000D0CDB7DEB77C01FB01142F59
:10422000022F608171816115710521F4BF010E9427
:10423000301D19C0CE0101960E94601E89819A81AD
:1042400001C00083612F70E00E941B29FC010097D0
:10425000C1F7C7018E010F5F1F4FB8010E94301DCB
:10426000C8010E94CE1AC70126960FB6F894DEBF89
:104270000FBECDBFCF91DF911F910F91FF90EF90B7
:1042800008950F931F93CF93DF938C01EB0161157A
:10429000710511F4CEE7D5E0FE0101900020E9F7A9
:1042A0003197EC1BFD0BD8011596FC93EE931497F8
:1042B000C801BF010E94841CF80180819181009790
:1042C00019F0BE010E942F29DF91CF911F910F910C
:1042D0000895EF92FF920F931F93DF93CF93CDB783
:1042E000DEB7A1970FB6F894DEBF0FBECDBF8C012D
:1042F000CB01BA017E010894E11CF11CA7010E94C8
:104300009929F70101900020E9F73197EE19FF098B
:10431000D8011596FC93EE931497C801BF010E9433
:10432000841CF80180819181009719F0B7010E94E7
:104330002F29A1960FB6F894DEBF0FBECDBFCF9147
:10434000DF911F910F91FF90EF900895EF92FF92F0
:104350000F931F93DF93CF93CDB7DEB7A1970FB61F
:10436000F894DEBF0FBECDBF8C01CB01BA017E0138
:104370000894E11CF11CA7010E949929F701019002
:104380000020E9F73197EE19FF09D8011596FC9343
:10439000EE931497C801BF010E94841CF80180812C
:1043A0009181009719F0B7010E942F29A1960FB6AD
:1043B000F894DEBF0FBECDBFCF91DF911F910F915B
:1043C000FF90EF900895EF92FF920F931F93DF936A
:1043D000CF93CDB7DEB7A1970FB6F894DEBF0FBE6F
:1043E000CDBF8C01CB017E010894E11CF11CB7010B
:1043F0000E947829F70101900020E9F73197EE1922
:10440000FF09D8011596FC93EE931497C801BF01DC
:104410000E94841CF80180819181009719F0B701F6
:104420000E942F29A1960FB6F894DEBF0FBECDBF14
:10443000CF91DF911F910F91FF90EF900895EF9230
:10444000FF920F931F93DF93CF93CDB7DEB7A19762
:104450000FB6F894DEBF0FBECDBF8C01CB017E013D
:104460000894E11CF11CB7010E947829F701019022
:104470000020E9F73197EE19FF09D8011596FC9352
:10448000EE931497C801BF010E94841CF80180813B
:104490009181009719F0B7010E942F29A1960FB6BC
:1044A000F894DEBF0FBECDBFCF91DF911F910F916A
:1044B000FF90EF9008951F920F920FB60F92112464
:1044C0002F933F938F939F93AF93BF938091B207A6
:1044D0009091B307A091B407B091B5073091B6079A
:1044E0000196A11DB11D232F2D5F2D3720F02D57D3
:1044F0000196A11DB11D2093B6078093B20790933A
:10450000B307A093B407B093B5078091AE0790911D
:10451000AF07A091B007B091B1070196A11DB11DE1
:104520008093AE079093AF07A093B007B093B10705
:10453000BF91AF919F918F913F912F910F900FBE9F
:104540000F901F9018958FB7F8942091B207309173
:10455000B3074091B4075091B5078FBFB901CA01A5
:1045600008959FB7F8942091AE073091AF0740911E
:10457000B0075091B10786B5A89B06C08F3F21F0C8
:104580002F5F3F4F4F4F5F4F9FBF542F432F322F0F
:104590002227280F311D411D511D82E0220F331F9C
:1045A000441F551F8A95D1F7B901CA010895EF92AA
:1045B000FF920F931F93CF93DF937B018C010E9497
:1045C000B122EB010EC00E94B1226C1B7D0B685E14
:1045D0007340C8F30894E108F10801091109C851B2
:1045E000DC4FE114F1040105110569F7DF91CF916A
:1045F0001F910F91FF90EF900895019739F0880F68
:10460000991F880F991F02970197F1F708957894E1
:1046100084B5826084BD84B5816084BD85B58260C7
:1046200085BD85B5816085BDEEE6F0E08081816065
:104630008083E1E8F0E01082808182608083808165
:1046400081608083E0E8F0E0808181608083E1EB3D
:10465000F0E0808184608083E0EBF0E08081816025
:104660008083EAE7F0E080818460808380818260DB
:1046700080838081816080838081806880831092C4
:10468000C100089580937F050895982F8E3008F01B
:104690009E50977080917F058295880F880F807C4F
:1046A000892B80937C0080917A00806480937A00CB
:1046B00080917A0086FDFCCF2091780040917900AE
:1046C000942F80E030E0282B392BC90108951F93E7
:1046D000CF93DF93182FEB0161E00E94C72320974F
:1046E00009F44AC0CF3FD10509F449C0E12FF0E0F9
:1046F000E454FE4F84918330C1F0843028F481303B
:1047000051F08230B1F50CC0863019F1873049F193
:10471000843079F514C084B5806884BDC7BD33C0CA
:1047200084B5806284BDC8BD2EC080918000806841
:1047300080938000D0938900C093880024C080912A
:104740008000806280938000D0938B00C0938A00A9
:104750001AC08091B00080688093B000C093B3000D
:1047600012C08091B00080628093B000C093B4000A
:104770000AC0C038D1051CF4812F60E002C0812F2F
:1047800061E00E941A24DF91CF911F910895482F74
:1047900050E0CA0188559E4FFC0124914C565E4F53
:1047A000FA0184918823C1F0E82FF0E0EE0FFF1F9B
:1047B000EA58FE4FA591B491662341F49FB7F8944F
:1047C0008C91209582238C939FBF08959FB7F89476
:1047D0008C91822B8C939FBF0895833071F084302D
:1047E00028F48130A1F0823021F514C08630B1F078
:1047F0008730D1F08430E9F404C0809180008F7755
:1048000003C0809180008F7D80938000089584B5DF
:104810008F7702C084B58F7D84BD08958091B000EC
:104820008F778093B00008958091B0008F7D809342
:10483000B0000895FF920F931F93F62E482F50E07B
:10484000CA0184549E4FFC012491CA0188559E4F91
:10485000FC0114914C565E4FFA0104910023D9F0EB
:10486000222319F0822F0E94ED23E02FF0E0EE0FBB
:10487000FF1FE058FE4FA591B491FF2031F49FB780
:10488000F8948C911095812304C09FB7F8948C9173
:10489000812B8C939FBF1F910F91FF9008950F93D1
:1048A0001F93482F50E0CA0184549E4FFC0124916D
:1048B000CA0188559E4FFC0104914C565E4FFA0187
:1048C0001491112319F420E030E015C0222319F0CF
:1048D000822F0E94ED23812F90E0880F991F865729
:1048E0009E4FFC01A591B4918C9120E030E0802393
:1048F00011F021E030E0C9011F910F910895505847
:10490000BB27AA270ED075C166D130F06BD120F03D
:1049100031F49F3F11F41EF45BC10EF4E095E7FB08
:1049200051C1E92F77D180F3BA1762077307840763
:10493000950718F071F49EF58FC10EF4E0950B2EDB
:10494000BA2FA02D0B01B90190010C01CA01A001E1
:104950001124FF27591B99F0593F50F4503E68F13C
:104960001A16F040A22F232F342F4427585FF3CF7D
:10497000469537952795A795F0405395C9F77EF44E
:104980001F16BA0B620B730B840BBAF09150A1F097
:10499000FF0FBB1F661F771F881FC2F70EC0BA0F1D
:1049A000621F731F841F48F4879577956795B795A5
:1049B000F7959E3F08F0B3CF9395880F08F099279D
:1049C000EE0F979587950895D9D008F481E0089562
:1049D0000CD00FC107D140F0FED030F021F45F3F82
:1049E00019F0F0C0511139C1F3C014D198F39923D3
:1049F000C9F35523B1F3951B550BBB27AA276217A3
:104A00007307840738F09F5F5F4F220F331F441FE7
:104A1000AA1FA9F333D00E2E3AF0E0E830D091501F
:104A20005040E695001CCAF729D0FE2F27D0660F0C
:104A3000771F881FBB1F261737074807AB07B0E84B
:104A400009F0BB0B802DBF01FF2793585F4F2AF061
:104A50009E3F510568F0B6C000C15F3FECF3983E41
:104A6000DCF3869577956795B795F7959F5FC9F7BE
:104A7000880F911D9695879597F90895E1E0660F47
:104A8000771F881FBB1F621773078407BA0720F0C0
:104A9000621B730B840BBA0BEE1F88F7E095089529
:104AA00004D06894B111D9C00895BCD088F09F5744
:104AB00090F0B92F9927B751A0F0D1F0660F771F6A
:104AC000881F991F1AF0BA95C9F712C0B13081F04A
:104AD000C3D0B1E00895C0C0672F782F8827B85F92
:104AE00039F0B93FCCF3869577956795B395D9F7AB
:104AF0003EF490958095709561957F4F8F4F9F4FB5
:104B00000895E89409C097FB3EF4909580957095C0
:104B100061957F4F8F4F9F4F9923A9F0F92F96E909
:104B2000BB279395F695879577956795B795F1117E
:104B3000F8CFFAF4BB0F11F460FF1BC06F5F7F4F1B
:104B40008F4F9F4F16C0882311F096E911C077232D
:104B500021F09EE8872F762F05C0662371F096E836
:104B6000862F70E060E02AF09A95660F771F881F05
:104B7000DAF7880F9695879597F90895990F0008A9
:104B8000550FAA0BE0E8FEEF16161706E807F9071F
:104B9000C0F012161306E407F50798F0621B730BBA
:104BA000840B950B39F40A2661F0232B242B252B3B
:104BB00021F408950A2609F4A140A6958FEF811DDE
:104BC000811D089597F99F6780E870E060E008957F
:104BD0009FEF80EC089500240A9416161706180615
:104BE0000906089500240A941216130614060506F1
:104BF0000895092E0394000C11F4882352F0BB0F82
:104C000040F4BF2B11F460FF04C06F5F7F4F8F4FE4
:104C10009F4F089557FD9058440F551F59F05F3F1F
:104C200071F04795880F97FB991F61F09F3F79F0CE
:104C300087950895121613061406551FF2CF469550
:104C4000F1DF08C0161617061806991FF1CF8695D2
:104C50007105610508940895E894BB2766277727B6
:104C6000CB0197F908950BD0C4CFB5DF28F0BADF98
:104C700018F0952309F0A6CFABCF1124EECFCADFF1
:104C8000A0F3959FD1F3950F50E0551F629FF0015F
:104C9000729FBB27F00DB11D639FAA27F00DB11DB8
:104CA000AA1F649F6627B00DA11D661F829F222741
:104CB000B00DA11D621F739FB00DA11D621F839FC8
:104CC000A00D611D221F749F3327A00D611D231F9E
:104CD000849F600D211D822F762F6A2F11249F57EC
:104CE00050408AF0E1F088234AF0EE0FFF1FBB1F0F
:104CF000661F771F881F91505040A9F79E3F5105AE
:104D000070F060CFAACF5F3FECF3983EDCF386955E
:104D100077956795B795F795E7959F5FC1F7FE2B58
:104D2000880F911D9695879597F90895991B79E0BD
:104D300004C0991F961708F0961B881F7A95C9F72B
:104D40008095089597FB092E07260AD077FD04D099
:104D50002ED006D000201AF4709561957F4F0895EB
:104D6000F6F7909581959F4F0895A1E21A2EAA1B00
:104D7000BB1BFD010DC0AA1FBB1FEE1FFF1FA2170B
:104D8000B307E407F50720F0A21BB30BE40BF50B08
:104D9000661F771F881F991F1A9469F76095709591
:104DA000809590959B01AC01BD01CF010895AA1B90
:104DB000BB1B51E107C0AA1FBB1FA617B70710F006
:104DC000A61BB70B881F991F5A95A9F78095909538
:104DD000BC01CD010895EE0FFF1F0590F491E02D69
:104DE0000994CF93DF93BC018230910510F462E007
:104DF00070E0A091B907B091BA07ED01E0E0F0E0F2
:104E000040E050E021C0888199818617970769F4B6
:104E10008A819B81309719F09383828304C0909399
:104E2000BA078093B907FE0134C06817790738F4D0
:104E30004115510519F08417950708F4AC01FE01DE
:104E40008A819B819C01E9012097E9F64115510572
:104E5000A9F1CA01861B970B049708F4BA01E0E098
:104E6000F0E02AC08D919C91119784179507F9F471
:104E70006417750781F412968D919C911397309762
:104E800019F09383828304C09093BA078093B90783
:104E9000FD0132964FC0CA01861B970BFD01E80F3A
:104EA000F91F6193719302978D939C9343C0FD0109
:104EB000828193819C01D9011097A1F68091B70757
:104EC0009091B807892B41F48091820590918305D8
:104ED0009093B8078093B70740918405509185055A
:104EE0004115510541F44DB75EB780918005909111
:104EF0008105481B590B2091B7073091B80724173B
:104F00003507B0F4CA01821B930B8617970780F010
:104F1000AB014E5F5F4F8417950750F0420F531F50
:104F20005093B8074093B707F9016193719302C09A
:104F3000E0E0F0E0CF01DF91CF910895CF93DF93D0
:104F4000009709F450C0EC0122971B821A82A091AD
:104F5000B907B091BA07109709F140E050E0AC17DB
:104F6000BD0708F1BB83AA83FE0121913191E20FB5
:104F7000F31FAE17BF0779F48D919C911197280FFD
:104F8000391F2E5F3F4F3983288312968D919C9154
:104F900013979B838A834115510571F4D093BA0707
:104FA000C093B90720C012968D919C911397AD01C3
:104FB000009711F0DC01D3CFFA01D383C283219192
:104FC0003191E20FF31FCE17DF0769F488819981D1
:104FD000280F391F2E5F3F4FFA01318320838A81CA
:104FE0009B8193838283DF91CF910895A0E0B0E00D
:104FF000ECEFF7E20C94982B8C01009729F4CB018D
:105000000E94F1268C01BAC09EEFE92E9FEFF92E87
:10501000E00EF11E5801A60EB71EAE14BF0408F430
:10502000ABC08EEF882E8FEF982E8A0C9B1CE70169
:105030004881598146175707B8F04530510508F4A3
:105040009DC0CA0104978617970708F497C042507D
:105050005040461B570BF40151834083798368838A
:10506000C5010E949E278AC06B01C41AD50AE0912F
:10507000B907F091BA07A0E0B0E0C0E0D0E042C0CC
:10508000E815F905A1F5208131812C153D0578F150
:10509000C90102968C159D05A8F04E5F5F4F420F27
:1050A000531FE7015983488322813381109729F0E8
:1050B00013963C932E93129761C03093BA072093B6
:1050C000B9075CC0225030402C193D093183208340
:1050D000109729F01396FC93EE93129704C0F09367
:1050E000BA07E093B907F7017183608347C08081F5
:1050F0009181C817D90708F4EC01DF0182819381FF
:105100009C01F901309709F0BBCF400F511F8091EE
:10511000B7079091B80784179507E9F4C617D70722
:10512000D0F420918405309185052115310541F495
:105130002DB73EB78091800590918105281B390BD2
:10514000A216B306C8F4B092B807A092B707E70159
:105150007983688313C0CB010E94F126EC0100978C
:1051600059F0F70140815181B8010E940729C80117
:105170000E949E278E0102C000E010E0C801CDB75A
:10518000DEB7ECE00C94B42B662777270C94072A43
:105190001F93FC0199278827BC01E89411911032D4
:1051A000E9F3193010F01E30C8F31B3251F01D32F4
:1051B00049F4689406C00E94CD29610F711D811DBC
:1051C000911D119110531A30B0F33EF490958095D3
:1051D000709561957F4F8F4F9F4F1F91089591114B
:1051E00076C2803219F089508550D0F70895911118
:1051F000089581548A5108F4805E855A089591116A
:10520000089581568A5108F4805285580895FB010B
:10521000DC0102C001900D9241505040D8F7089532
:10522000FB01DC010D900020E9F7119701900D9230
:105230000020E1F70895FC018191861721F0882371
:10524000D9F7992708953197CF010895FB01DC0123
:105250008D91019080190110D9F3990B0895FB01EC
:10526000DC0101900D920020E1F70895FB01DC01C3
:105270004150504030F08D910190801919F4002078
:10528000B9F7881B990B0895FB01DC014150504090
:1052900048F001900D920020C9F701C01D924150C5
:1052A0005040E0F70895FC0181E090E0019006167F
:1052B00009F4CF010020D1F701970895FB01519126
:1052C0005523A9F0BF01DC014D9145174111E1F7CC
:1052D00059F4CD010190002049F04D914015411144
:1052E000C9F3FB014111EFCF81E090E001970895F0
:1052F000FB019F01E8944230C4F04532B4F44A30D7
:1053000029F497FB1EF4909581959F4F642F772782
:105310000E94D726805D8A330CF0895D8193CB0192
:105320000097A1F716F45DE251931082C9010C9425
:10533000822BFA01CF93FF93EF93223044F1253271
:1053400034F5C22FE894CA3049F497FB3EF49095A7
:105350008095709561957F4F8F4F9F4F2C2F3327EE
:1053600044275527FF93EF930E94B526EF91FF91B5
:10537000605D6A330CF0695D6193B901CA016050E8
:1053800070408040904051F716F4CDE2C1931082F6
:105390008F919F91CF910C94822B592F482F372FAB
:1053A000262F660F771F881F991F660F771F881F8C
:1053B000991F620F731F841F951F660F771F881F29
:1053C000991F0895FA01CF93FF93EF932230CCF009
:1053D0002532BCF4C22F2C2F332744275527FF93A7
:1053E000EF930E94B526EF91FF91605D6A330CF058
:1053F000695D6193B901CA0160507040804090407E
:1054000051F710828F919F91CF910C94822BA0E045
:10541000B0E0EDE0FAE20C94982BEC015B01611531
:10542000710519F0FB0191838083F9908F2D90E035
:105430000E94EF28892BC9F7FDE2FF1621F4F990AD
:10544000EE24E39405C02BE2F21609F4F990EE2461
:105450008E0101501040C80160ED71E043E050E062
:105460000E946A2B892B01F58E010E5F1F4FC80128
:1054700063ED71E045E050E00E946A2B892B19F43E
:105480008E01095F1F4FA114B10419F0F5011183BA
:105490000083E0FC04C070E090E080E814C070E09D
:1054A00090E080E86FEF08C1C80168ED71E043E06B
:1054B00050E00E946A2B892B69F4A114B10429F4ED
:1054C00070E090E080EC6FE7F7C02296F501D183A1
:1054D000C083F6CF8824992440E050E060E070E07B
:1054E000EF2DE053EA30A0F5F2E0EF2A8E2D90E0A8
:1054F0009C0128703070E2FE06C0232B79F50894D9
:10550000811C911C2BC0232B19F008948108910851
:10551000DB01CA0112E0880F991FAA1FBB1F1A9551
:10552000D1F7480F591F6A1F7B1F440F551F661F75
:10553000771F4E0F511D611D711D483929E9520712
:1055400029E9620729E1720748F084E0E82A06C0E9
:10555000EE3F31F4E3FC39C098E0E92AF990C0CF7E
:10556000E53311F0E53189F529912D3219F4E0E1A7
:10557000EE2A05C02B3219F081E090E003C029919A
:1055800082E090E0E22FE053EA3018F0C81BD90B1C
:105590001CC020E030E0FCE020383F075CF4C9018B
:1055A000880F991F880F991F280F391F220F331F4B
:1055B0002E0F311DE991E053EA3068F3E4FE03C099
:1055C000309521953F4F820E931ECE2CDD24E1FEB7
:1055D00007C0A114B10421F02197F501D183C08344
:1055E000CB01BA010E9481257B018C01F3E0CF221F
:1055F000DD2423E0C216D10421F417FB109517F91E
:10560000109557016801C801B70120E030E040E083
:1056100050E00E94E424882309F44AC097FE0DC09C
:105620002FEEE22E21E0F22E909481949108939433
:10563000C0E2D0E000E010E012C097E0E92E92E076
:10564000F92EF6CFF7012591359145915491C60178
:10565000B5010E9433265B016C018C1A9D0A8C16E1
:105660009D0684F7D595C7950F5F1F4F063011052E
:1056700029F08CEF9FEFE80EF91EF1CFC501D6019E
:105680007C018D018C2D880F8D2D881F8F3F51F04F
:10569000C601B50120E030E040E050E00E94E42483
:1056A000882331F482E290E09093BC078093BB079B
:1056B0007E2D9F2D802F612F272F392F482F562F7A
:1056C000B901CA01CDB7DEB7ECE00C94B42B992731
:1056D00088270895FB01DC014150504088F08D91EE
:1056E00081341CF08B350CF4805E659161341CF0C4
:1056F0006B350CF4605E861B611171F3990B089594
:10570000881BFCCFDC01FC01672F71917723E1F747
:10571000329704C07C916D9370836291AE17BF077E
:10572000C8F308952F923F924F925F926F927F92AB
:105730008F929F92AF92BF92CF92DF92EF92FF92A1
:105740000F931F93CF93DF93CDB7DEB7CA1BDB0B4D
:105750000FB6F894DEBF0FBECDBF09942A883988F2
:1057600048885F846E847D848C849B84AA84B984F9
:10577000C884DF80EE80FD800C811B81AA81B98105
:10578000CE0FD11D0FB6F894DEBF0FBECDBFED0119
:10579000089512E0C8E1D2E004C0FE010E94ED26A7
:0C57A0002296CC31D107C9F7F894FFCF56
:1057AC0030002F002F3230003A0020504D002041A5
:1057BC004D0020202000496E697469616C697A691A
:1057CC006E67204C434400446174653A0054696D23
:1057DC00653A0054656D703A00704820203A004CD0
:1057EC00434420496E697469616C697A6174696FAC
:1057FC006E20436F6D706C6574652E000D00720D1C
:10580C00002A2A204572726F7220696E2053616DD6
:10581C00706C6520002C204572726F7220003A204B
:10582C00627974657320617661696C61626C652064
:10583C002D200070482070726F62653A20696E6985
:10584C007469616C697A696E672E2E2E006C310D4D
:10585C000070482070726F62653A20696E697469D5
:10586C00616C697A6174696F6E20636F6D706C65C1
:10587C0074650053657474696E6720686F75727314
:10588C0020746F3A200053657474696E67206D69DB
:10589C006E7574657320746F3A2000536574746967
:1058AC006E67207365636F6E647320746F3A2000AB
:1058BC0053657474696E67207965617220746F3AF0
:1058CC00200053657474696E67206D6F6E74682068
:1058DC00746F3A200053657474696E672064617448
:1058EC006520746F3A2000446179206F66207765DB
:1058FC00656B2069733A200053657474696E672078
:10590C00646179206F66207765656B20746F3A202F
:10591C0000537769746368696E6720746F20323442
:10592C002D686F757220636C6F636B2E00537769F3
:10593C00746368696E6720746F2031322D686F75DF
:10594C007220636C6F636B2E0053657420414D2E77
:10595C00002853657420686F757273206F6E6C79B4
:10596C0020696E2032342D686F7572206D6F6465FE
:10597C002E290053657420504D2E005371756172A1
:10598C00652077617665206F75747075742073650A
:10599C007420746F2031487A0053717561726520E0
:1059AC0077617665206F75747075742064697361A6
:1059BC00626C656420286C6F772900436C6F636B95
:1059CC00206F7363696C6C61746F72207374617295
:1059DC007465642E00436C6F636B206F7363696C2A
:1059EC006C61746F722073746F707065642E0057E5
:1059FC007269746520746F2072656769737465725F
:105A0C002000207468652076616C756520005265F5
:105A1C0061642066726F6D2072656769737465725C
:105A2C002000556E6B6E6F776E20636F6D6D616EBF
:105A3C00642E205472792074686573653A0020686E
:105A4C002323202D2073657420486F757273206496
:105A5C002323202D20736574204461746500206914
:105A6C002323202D20736574206D496E7574657326
:105A7C00206D2323202D20736574204D6F6E746868
:105A8C000020732323202D20736574205365636FCE
:105A9C006E647320792323202D207365742059653F
:105AAC0061720020772323202D207365742061728E
:105ABC006269747261727920646179206F66205713
:105ACC0065656B002074202D20746F67676C6520F2
