:100000000C94F2020C941A030C941A030C941A0325
:100010000C941A030C941A030C941A030C941A03EC
:100020000C941A030C941A030C941A030C941A03DC
:100030000C941A030C941A030C941A030C941A03CC
:100040000C94B5170C941A030C9413070C946107C5
:100050000C941A030C941A030C941A030C941A03AC
:100060000C9463050C941A0300000000003E5B4FE3
:100070005B3E3E6B4F6B3E1C3E7C3E1C183C7E3C08
:10008000181C577D571C1C5E7F5E1C00183C180016
:10009000FFE7C3E7FF0018241800FFE7DBE7FF30A6
:1000A000483A060E2629792926407F050507407F14
:1000B00005253F5A3CE73C5A7F3E1C1C08081C1C87
:1000C0003E7F14227F22145F5F005F5F06097F017D
:1000D0007F006689956A606060606094A2FFA29468
:1000E00008047E040810207E201008082A1C080836
:1000F0001C2A08081E101010100C1E0C1E0C303884
:100100003E3830060E3E0E06000000000000005F84
:1001100000000007000700147F147F14242A7F2AA0
:100120001223130864623649562050000807030062
:10013000001C2241000041221C002A1C7F1C2A08AE
:10014000083E080800807030000808080808000011
:1001500060600020100804023E5149453E00427F85
:10016000400072494949462141494D331814127FD4
:100170001027454545393C4A494931412111090774
:100180003649494936464949291E000014000000F5
:1001900040340000000814224114141414140041C7
:1001A00022140802015909063E415D594E7C121184
:1001B000127C7F494949363E414141227F414141BC
:1001C0003E7F494949417F090909013E4141517337
:1001D0007F0808087F00417F41002040413F017FA8
:1001E000081422417F404040407F021C027F7F0470
:1001F00008107F3E4141413E7F090909063E4151B9
:10020000215E7F09192946264949493203017F01A8
:10021000033F4040403F1F2040201F3F4038403FA9
:10022000631408146303047804036159494D4300BF
:100230007F4141410204081020004141417F0402F6
:10024000010204404040404000030708002054548D
:1002500078407F284444383844444428384444286B
:100260007F385454541800087E090218A4A49C78BE
:100270007F0804047800447D40002040403D007F1A
:100280001028440000417F40007C047804787C08FA
:100290000404783844444438FC18242418182424CE
:1002A00018FC7C08040408485454542404043F44B3
:1002B000243C4040207C1C2040201C3C4030403CE2
:1002C00044281028444C9090907C4464544C440042
:1002D00008364100000077000000413608000201A6
:1002E0000204023C2623263C1EA1A161123A404092
:1002F000207A385454555921555579412154547810
:1003000041215554784020545579400C1E527212A8
:100310003955555559395454545939555454580030
:1003200000457C410002457D420001457C40F029AA
:100330002429F0F0282528F07C54554500205454F9
:100340007C547C0A097F493249494932324848483D
:1003500032324A4848303A4141217A3A4240207884
:10036000009DA0A07D39444444393D4040403D3C7F
:1003700024FF2424487E4943662B2FFC2F2BFF09A2
:1003800029F620C0887E0903205454794100004496
:100390007D413048484A32384040227A007A0A0A81
:1003A000727D0D19317D2629292F282629292926F4
:1003B00030484D4020380808080808080808382F39
:1003C00010C8ACBA2F102834FA00007B00000814C3
:1003D0002A142222142A1408AA005500AAAA55AAEF
:1003E00055AA000000FF00101010FF00141414FFA5
:1003F000001010FF00FF1010F010F0141414FC0097
:100400001414F700FF0000FF00FF1414F404FC14A0
:100410001417101F10101F101F1414141F00101099
:1004200010F0000000001F101010101F101010100E
:10043000F010000000FF101010101010101010FF2E
:1004400010000000FF140000FF00FF00001F101745
:100450000000FC04F414141710171414F404F4002E
:1004600000FF00F714141414141414F700F71414F4
:1004700014171410101F101F141414F4141010F07B
:1004800010F000001F101F0000001F14000000FCEF
:10049000140000F010F01010FF10FF141414FF14DB
:1004A0001010101F00000000F010FFFFFFFFFFF012
:1004B000F0F0F0F0FFFFFF0000000000FFFF0F0F63
:1004C0000F0F0F38444438447C2A2A3E147E02021F
:1004D0000606027E027E0263554941633844443C6D
:1004E00004407E201E2006027E020299A5E7A599FF
:1004F0001C2A492A1C4C7201724C304A4D4D303036
:1005000048784830BC625A463D3E494949007E0120
:1005100001017E2A2A2A2A2A44445F444440514A3F
:10052000444040444A51400000FF0103E080FF0086
:100530000008086B6B083612362436060F090F06C2
:10054000000018180000001010003040FF010100EA
:100550001F01011E00191D1712003C3C3C3C00000D
:1005600000000000C001C001C003E0F3E0FEF87E1F
:10057000FF339F1FFC0D701BA03FE03FF07CF0702D
:1005800070003000000000240027002A0000000056
:1005900000250028002B0000000000230026002971
:1005A000000404040404040404020202020202031C
:1005B0000303030303010204081020408001020426
:1005C00008102001020408102000000007000201AA
:1005D0000000030406000000000000000000CB2A19
:1005E000BB03490A11241FBECFEFD8E0DEBFCDBF49
:1005F00015E0A0E0B1E0E0ECF9E602C005900D9254
:10060000A23AB107D9F717E0A2EAB5E001C01D92FE
:10061000A734B107E1F715E0C4EED5E004C0229796
:10062000FE010E948834CE3DD107C9F70E94901781
:100630000C94DE340C940000FC011382128288EECC
:1006400093E0A0E0B0E084839583A683B7838BE238
:1006500091E0918380830895FC011382128288EED9
:1006600093E0A0E0B0E084839583A683B7838BE218
:1006700091E091838083089581E08093E705609302
:10068000C4051092E5051092E605089581E0809377
:10069000E7056093C4051092E5051092E6050895FC
:1006A0002091C30530E08091C205281B3109C901A2
:1006B00008954091C2058091C305481718F02FEFA7
:1006C0003FEF0AC0E42FF0E0EE55FA4F8081282F6B
:1006D00030E04F5F4093C205C9010895E091C20523
:1006E0008091C305E81718F0EFEFFFEF06C0F0E0C8
:1006F000EE55FA4F8081E82FF0E0CF01089508957C
:10070000AC012091EA053091EB0521153105E1F0AE
:100710009091C2058091C3059817B0F090E008C091
:10072000FA01EA0FFB1F8081AE55BA4F8C939F5F91
:10073000A92FB0E0A617B7079CF31092C2056093EB
:10074000C305CB01F90109950895E091E805F09101
:10075000E905309729F01092E5051092E605099514
:1007600008957093EB056093EA0508957093E90589
:100770006093E80508951092EF051092EE0588EE5B
:1007800093E0A0E0B0E08093F0059093F105A09392
:10079000F205B093F3058BE291E09093ED05809321
:1007A000EC050895CF92DF92EF92FF920F931F9383
:1007B000CF93DF937C016B018A018091E705882349
:1007C000A1F0C0E0D0E00DC0D701ED91FC91D601C1
:1007D000AC0FBD1F0190F081E02DC7016C91099510
:1007E0002196C017D10780F304C0CB01642F0E946B
:1007F0002605C801DF91CF911F910F91FF90EF90D7
:10080000DF90CF900895DF93CF930F92CDB7DEB7EF
:10081000FC0169838091E7058823C9F08091E60592
:10082000803238F081E090E09383828320E030E0F2
:1008300015C08091E505E82FF0E0EB53FA4F998160
:1008400090838F5F8093E5058093E60505C0CE0118
:10085000019661E00E94260521E030E0C9010F9079
:10086000CF91DF9108950F93062F8091C40565EC19
:1008700075E04091E60521E00E94D1041092E50563
:100880001092E6051092E7050F91089561E00E942D
:1008900033040895413208F040E2862F62EA75E0A1
:1008A0000E9488041092C2058093C30508950E9497
:1008B0004A04089521E00E944A04089521E00E941C
:1008C0004A0408951092C2051092C3051092E505DE
:1008D0001092E6050E94F40608950F931F938C0171
:1008E000862F0E94840485EA93E00E94460580E8F2
:1008F00093E00E944105C8010E9462041F910F917C
:1009000008950E946D040895880F8093BA00089599
:10091000382F413210F040E042C08091F805882322
:10092000E1F791E09093F8052093FA058FEF80931B
:100930006506109220064150409321064F5F909328
:10094000F9058091F905330F832B8093F905809188
:10095000FB05813041F41092FB058091F9058093ED
:10096000BB0085EC01C085EE8093BC008091F8054A
:100970008130E1F380912006841710F44091200625
:1009800020E030E00AC0FB01E20FF31FD901A050C4
:10099000BA4F8C9180832F5F3F4F2417A0F3842F91
:1009A00008950F931F93582F122F413210F081E0BA
:1009B0004AC08091F8058823E1F782E08093F8052A
:1009C0000093FA058FEF80936506109220064093FE
:1009D0002106A0E0B6E0FB0102C081918D938E2F2D
:1009E000861B8417D0F31092F9058091F905550FF5
:1009F000852B8093F9058091FB05813041F410929D
:100A0000FB058091F9058093BB0085EC01C085EE64
:100A10008093BC00112321F08091F8058230E1F32E
:100A2000809165068F3F11F480E00DC080916506CE
:100A3000803211F482E007C080916506803311F0A6
:100A400084E001C083E01F910F910895482F613227
:100A500010F081E008958091F805843011F082E073
:100A6000089560934306A2E2B6E0842F9C01F90149
:100A700002C081918D938E2F841B8617D0F380E066
:100A800008959093FF058093FE0508959093FD05CA
:100A90008093FC050895882311F085EC01C085E85A
:100AA0008093BC00089585ED8093BC008091BC00CC
:100AB00084FDFCCF1092F805089585EC8093BC006E
:100AC0001092F80508951F920F920FB60F921124FD
:100AD0002F933F934F935F936F937F938F939F9346
:100AE000AF93BF93EF93FF938091B90090E0887F1D
:100AF00090708036910509F4F2C081369105CCF5ED
:100B00008832910509F47BC089329105B4F48031B3
:100B1000910509F46FC0813191053CF4009709F407
:100B200047C1089709F04FC165C08831910509F4A4
:100B300066C0809709F047C182C08034910509F4EE
:100B4000A4C08134910544F48033910509F482C036
:100B5000C89709F038C189C08035910509F489C06A
:100B60008835910509F496C08834910509F02BC1A8
:100B7000AEC08839910509F413C189399105ECF4A7
:100B80008837910509F4ABC0893791054CF4883654
:100B9000910509F4A4C08037910509F014C19FC0E4
:100BA0008838910509F4FCC08039910509F49DC08D
:100BB0008038910509F007C198C0803B910509F480
:100BC000C6C0813B91054CF4803A910509F49FC061
:100BD000883A910509F0F7C0BAC0803C910509F444
:100BE000E3C0883C910509F4DFC0883B910509F01A
:100BF000EAC0C2C08091F9058093BB00CFC090913C
:100C0000200680912106981768F490912006E92F1C
:100C1000F0E0E050FA4F80818093BB009F5F90939B
:100C20002006BCC08091FA05882309F44BC085EDED
:100C30008093BC008091BC0084FDFCCFC2C080E2E8
:100C40008093650685ED8093BC008091BC0084FD97
:100C5000FCCFB7C080E38093650685ED8093BC0030
:100C60008091BC0084FDFCCFACC088E38093650616
:100C70009BC0809120069091BB00E82FF0E0E050EF
:100C8000FA4F90838F5F8093200690912006809189
:100C9000210682C0809120069091BB00E82FF0E0F1
:100CA000E050FA4F90838F5F809320068091FA0581
:100CB000882341F085ED8093BC008091BC0084FDC9
:100CC000FCCF7FC081E08093FB0584EA6EC085ED98
:100CD0008093BC008091BC0084FDFCCF72C083E097
:100CE0008093F8051092640659C0809164068032A2
:100CF00008F056C0809164069091BB00E82FF0E0A8
:100D0000EC5BF94F90838F5F8093640647C08091BE
:100D10006406803230F4E0916406F0E0EC5BF94F59
:100D2000108285ED8093BC008091BC0084FDFCCFD7
:100D30001092F80560916406E091FE05F091FF05C0
:100D400084E496E070E00995109264062DC084E07A
:100D50008093F8051092420610924306E091FC053C
:100D6000F091FD05099580914306882329F481E0DF
:100D7000809343061092220690914206E92FF0E0FC
:100D8000EE5DF94F80818093BB009F5F9093420698
:100D90009091420680914306981710F485EC01C0AB
:100DA00085E88093BC000FC085EC8093BC0009C02F
:100DB0001092650685ED8093BC008091BC0084FD97
:100DC000FCCF1092F805FF91EF91BF91AF919F91E9
:100DD0008F917F916F915F914F913F912F910F90E4
:100DE0000FBE0F901F9018951092F80581E0809328
:100DF000FA051092FB0582E161E00E940E1983E181
:100E000061E00E940E19E9EBF0E080818E7F808323
:100E100080818D7F808388E48093B80085E480930F
:100E2000BC00089508951F920F920FB60F921124DF
:100E30002F933F934F938F939F93EF93FF938091C3
:100E4000C00082FD1DC04091C6002091A6063091D1
:100E5000A7062F5F3F4F2F7330708091A8069091A7
:100E6000A9062817390771F0E091A606F091A706A8
:100E7000EA59F94F40833093A7062093A60602C093
:100E80008091C600FF91EF919F918F914F913F917B
:100E90002F910F900FBE0F901F901895E091FA06BA
:100EA000F091FB06E05CFF4F8191919120813181AF
:100EB000821B930B8F739070892B11F00E94120785
:100EC00008951F920F920FB60F9211242F933F9304
:100ED0008F939F93EF93FF932091EA063091EB0657
:100EE0008091EC069091ED062817390731F4809136
:100EF000C1008F7D8093C10014C0E091EC06F09199
:100F0000ED06E655F94F20818091EC069091ED06B3
:100F100001968F7390709093ED068093EC0620936A
:100F2000C600FF91EF919F918F913F912F910F906C
:100F30000FBE0F901F9018958F929F92AF92BF9205
:100F4000CF92DF92EF92FF920F931F93DF93CF9395
:100F5000CDB7DEB7FC011382128288EE93E0A0E0E9
:100F6000B0E084839583A683B7838BE491E091837B
:100F700080837587648757874687318B208B138BD7
:100F8000028BF58AE48AD78AC68AB18EA08E938EA8
:100F9000828E8F85848F8889858F8989868F8A89BB
:100FA000878F8B8980A3CF91DF911F910F91FF9045
:100FB000EF90DF90CF90BF90AF909F908F9008956B
:100FC0008F929F92AF92BF92CF92DF92EF92FF9259
:100FD0000F931F93DF93CF93CDB7DEB7FC0113823E
:100FE000128288EE93E0A0E0B0E084839583A6832C
:100FF000B7838BE491E091838083758764875787FB
:101000004687318B208B138B028BF58AE48AD78A33
:10101000C68AB18EA08E938E828E8F85848F8889AA
:10102000858F8989868F8A89878F8B8980A3CF91C5
:10103000DF911F910F91FF90EF90DF90CF90BF90C5
:10104000AF909F908F900895AF92BF92DF92EF92F2
:10105000FF920F931F93CF93DF93EC017A018B01E3
:10106000DD24403081EE580780E0680780E0780793
:1010700011F0DD24D39491E0A92EB12CEC89FD89E7
:10108000DD2069F0C50108A002C0880F991F0A94ED
:10109000E2F7808360E079E08DE390E005C01082A4
:1010A00060E874E88EE190E0A80197010E94353471
:1010B00021503040404050405695479537952795F0
:1010C00080E12030380720F0DD2011F0DD24D6CF7C
:1010D000E889F9893083EA89FB89208319A2EE899E
:1010E000FF89408121E030E0C9010C8C02C0880FEB
:1010F000991F0A94E2F7482B4083EE89FF894081CB
:10110000C9010D8C02C0880F991F0A94E2F7482B81
:101110004083EE89FF894081C9010E8C02C0880F8F
:10112000991F0A94E2F7482B4083EE89FF8980815A
:101130000F8C02C0220F331F0A94E2F72095282358
:101140002083DF91CF911F910F91FF90EF90DF905F
:10115000BF90AF900895AF92BF92CF92DF92EF927F
:10116000FF920F931F93CF93DF93EC017A018B01D2
:10117000C22EDD24403081EE580780E0680780E011
:10118000780711F0DD24D39471E0A72EB12CEC89FF
:10119000FD89DD2069F0C50108A002C0880F991FF4
:1011A0000A94E2F7808360E079E08DE390E005C087
:1011B000108260E874E88EE190E0A80197010E9437
:1011C0003534215030404040504056954795379532
:1011D000279580E12030380720F0DD2011F0DD2454
:1011E000D6CFE889F9893083EA89FB892083E88DA5
:1011F000F98DC082EE89FF89408121E030E0C9018C
:101200000C8C02C0880F991F0A94E2F7482B408388
:10121000EE89FF894081C9010D8C02C0880F991F9A
:101220000A94E2F7482B4083EE89FF894081C90187
:101230000E8C02C0880F991F0A94E2F7482B408356
:10124000EE89FF8980810F8C02C0220F331F0A9420
:10125000E2F7209528232083DF91CF911F910F91F2
:10126000FF90EF90DF90CF90BF90AF900895CF9315
:10127000DF93DC011E968D919C911F97EC01C05C61
:10128000DF4FFC01EE5BFF4F288139818081918126
:1012900028173907C9F75696ED91FC915797408169
:1012A00021E030E0C9015C960C905C9702C0880F89
:1012B000991F0A94E2F78095842380835696ED91D6
:1012C000FC9157974081C9015D960C905D9702C0D3
:1012D000880F991F0A94E2F780958423808356969D
:1012E000ED91FC9157974081C9015E960C905E97F5
:1012F00002C0880F991F0A94E2F7809584238083A7
:101300005696ED91FC91579780815F960C905F9770
:1013100002C0220F331F0A94E2F72095282320836E
:101320001C96ED91FC911D97EE5BFF4F80819181A2
:1013300092938293DF91CF910895DC011C96ED91F9
:10134000FC911D97E05CFF4F21913191808191814B
:10135000281B390B2F733070C9010895DC011C96CE
:10136000ED91FC911D97E05CFF4F20813181E054AD
:10137000F040DF01AE5BBF4F8D919C911197281714
:10138000390719F42FEF3FEF07C08D919C91E80FBB
:10139000F91F8081282F30E0C9010895DC011C96D7
:1013A000ED91FC911D97E05CFF4F20813181E0546D
:1013B000F040DF01AE5BBF4F8D919C9111972817D4
:1013C000390719F42FEF3FEF10C08D919C911197C1
:1013D000E80FF91F20818D919C91119701968F73D1
:1013E000907011969C938E9330E0C9010895DC01B2
:1013F00091968C919197882339F05496ED91FC91B8
:101400005597808186FFF9CF91961C920895CF93CE
:10141000DF93EC01EE85FF85E05CFF4F2081318199
:10142000E054F0402F5F3F4F2F733070DF01AE5B11
:10143000BF4F8D919C91119728173907D1F3E05C2C
:10144000FF4F80819181E054F040E80FF91F6083E5
:10145000EE85FF85E05CFF4F31832083EE89FF89B5
:10146000208181E090E00F8C02C0880F991F0A94C0
:10147000E2F7282B208381E089A3EC89FD89808114
:101480008064808381E090E0DF91CF91089581E0D6
:1014900008951092F1061092F00688EE93E0A0E015
:1014A000B0E08093F2069093F306A093F406B09315
:1014B000F5068BE491E09093EF068093EE0686E6C6
:1014C00096E09093FB068093FA068AEA96E0909362
:1014D000FD068093FC0685EC90E09093FF068093D8
:1014E000FE0684EC90E0909301078093000780EC67
:1014F00090E0909303078093020781EC90E0909333
:1015000005078093040782EC90E09093070780938F
:10151000060786EC90E0909309078093080784E023
:1015200080930A0783E080930B0787E080930C0782
:1015300085E080930D0781E080930E070895CF9298
:10154000DF92EF92FF920F931F93CF93DF937C0173
:101550006B018A01C0E0D0E00FC0D6016D916D0132
:10156000D701ED91FC910190F081E02DC701099523
:10157000C80FD91F015010400115110571F7CE0198
:10158000DF91CF911F910F91FF90EF90DF90CF905F
:101590000895EF92FF920F931F93CF93DF937C01F7
:1015A0008B01C0E0D0E0F8010F5F1F4F649166230C
:1015B00059F0D701ED91FC910190F081E02DC70128
:1015C0000995C80FD91FEFCFCE01DF91CF911F91A1
:1015D0000F91FF90EF900895DC01ED91FC91019047
:1015E000F081E02D099508959C01DB01ED91FC91BE
:1015F0000190F081E02DCB01B90109950895EF929A
:10160000FF920F931F938C01DC01ED91FC910190EF
:10161000F081E02D6DE009957C01D801ED91FC9100
:101620000190F081E02DC8016AE009959C012E0D22
:101630003F1DC9011F910F91FF90EF900895EF9208
:10164000FF920F931F937C010E94C90A8C01C7016E
:101650000E94FF0A9C01200F311FC9011F910F91A9
:10166000FF90EF900895EF92FF920F931F937C01EC
:10167000DC01ED91FC910190F081E02D09958C0148
:10168000C7010E94FF0A080F191FC8011F910F917F
:10169000FF90EF900895EF92FF920F931F937C01BC
:1016A000DB01ED91FC910190F081E02DCB01B701C0
:1016B00009958C01C7010E94FF0A080F191FC80174
:1016C0001F910F91FF90EF900895CF93DF93EC015E
:1016D0006115710519F420E030E00FC0DB010D90B9
:1016E0000020E9F71197A61BB70BE881F98102806A
:1016F000F381E02DAD0109959C01C901DF91CF91E6
:1017000008954F925F927F928F929F92AF92BF9275
:10171000CF92DF92EF92FF920F931F93DF93CF93BD
:10172000CDB7DEB7A1970FB6F894DEBF0FBECDBF21
:101730002C01742ECB01223008F42AE019A231E2E8
:10174000C32ED12CCC0EDD1E822E9924AA24BB24BC
:10175000672D752FA50194010E94353479018A0106
:10176000C801B701A50194010E94F733472D461B1C
:101770000894C108D1084A3010F4405D01C0495CAA
:10178000F6014083E114F1040105110521F07E2CDE
:101790005F2DC801DDCFC201B6010E94650BA19685
:1017A0000FB6F894DEBF0FBECDBFCF91DF911F9172
:1017B0000F91FF90EF90DF90CF90BF90AF909F90F0
:1017C0008F907F905F904F900895DC012115310537
:1017D00041F4ED91FC910190F081E02D642F099589
:1017E00008950E94810B0895EF92FF920F931F932B
:1017F0007C010E94E50B8C01C7010E94FF0A9C013D
:10180000200F311FC9011F910F91FF90EF90089594
:10181000EF92FF920F931F939A017B0100E010E07B
:10182000B801A7010E94E50B1F910F91FF90EF9067
:101830000895CF92DF92EF92FF920F931F936C0166
:101840007B019A0100E010E0B801A7010E94E50BBE
:101850008C01C6010E94FF0A080F191FC8011F91C1
:101860000F91FF90EF90DF90CF900895EF92FF924D
:101870000F931F939A01E62EFF2400E010E0B801B9
:10188000A7010E94E50B1F910F91FF90EF90089523
:10189000CF92DF92EF92FF920F931F936C01E62E8F
:1018A0009A01FF2400E010E0B801A7010E94E50BB7
:1018B0008C01C6010E94FF0A080F191FC8011F9161
:1018C0000F91FF90EF90DF90CF900895CF92DF922D
:1018D000EF92FF920F931F93CF93DF93EC016A0176
:1018E0007B012115310541F4E881F9810190F081F6
:1018F000E02D642F09951FC02A303105D1F477FF00
:1019000017C0E881F9810190F081E02D6DE2099521
:101910008C0144275527BA014C195D096E097F09CE
:10192000CE012AE00E94810B9801280F391F04C0C4
:101930002AE00E94810B9C01C901DF91CF911F9188
:101940000F91FF90EF90DF90CF900895EF92FF926C
:101950000F931F937C010E94660C8C01C7010E94AB
:10196000FF0A9C01200F311FC9011F910F91FF90A9
:10197000EF900895EF92FF920F931F937B019A01CE
:101980000027F7FC0095102FB801A7010E94660CF4
:101990001F910F91FF90EF900895CF92DF92EF92F9
:1019A000FF920F931F936C017B019A010027F7FCB4
:1019B0000095102FB801A7010E94660C8C01C6018A
:1019C0000E94FF0A080F191FC8011F910F91FF9075
:1019D000EF90DF90CF9008950E94650B08957F925D
:1019E0008F929F92AF92BF92CF92DF92EF92FF922F
:1019F0000F931F93CF93DF934C017A018B01722ECB
:101A0000CB01BA01A80197010E94F333882321F08A
:101A1000C40167E671E021C0C0E0D0E05701680171
:101A2000E894D7F8C601B5012FEF3FEF4FE75FE726
:101A30000E94F333882351F4C601B5012FEF3FEF25
:101A40004FE75FE70E943D32181614F0C1E0D0E086
:101A5000219739F0C4016BE671E00E94650BEC013F
:101A600093C0C801B7012FEF3FEF4FE75FE40E943B
:101A70008C33181654F0C801B7012FEF3FEF4FE732
:101A80005FEC0E943D32882324F4C4016FE671E0CC
:101A9000E4CFC801B70120E030E040E050E00E9410
:101AA0003D3287FD03C0C0E0D0E00EC0D401ED910F
:101AB000FC910190F081E02DC4016DE20995EC01EB
:101AC00017FB109517F9109520E030E040E05FE338
:101AD000DD240BC0CA01B90120E030E040E251E44E
:101AE0000E9441329B01AC01D394D71498F3C801F2
:101AF000B7010E94D9315B016C010E94AE327B01BB
:101B00008C01C401B801A7012AE030E00E94E50B76
:101B1000C80FD91F772039F0C40163E771E00E9434
:101B2000650BC80FD91FC801B7010E94DA329B01AB
:101B3000AC01C601B5010E94D83124C020E030E0DC
:101B400040E251E40E9490337B018C010E94A93253
:101B50005B016C01CC24B7FCC094DC2CC401B60141
:101B6000A5012AE030E00E94660CC80FD91FC6010B
:101B7000B5010E94DC329B01AC01C801B7010E9493
:101B8000D8317A947720D1F6CE01DF91CF911F9191
:101B90000F91FF90EF90DF90CF90BF90AF909F900C
:101BA0008F907F9008950E94EF0C0895EF92FF921E
:101BB0000F931F937C010E94EF0C8C01C7010E94C0
:101BC000FF0A080F191FC8011F910F91FF90EF9096
:101BD0000895EF92FF920F931F937C010E94650B73
:101BE0008C01C7010E94FF0A080F191FC8011F912D
:101BF0000F91FF90EF900895AF92BF92CF92DF9236
:101C0000EF92FF920F931F93CF93DF935C016B01D1
:101C1000EE24FF24C0E0D0E010C0D501ED91FC918E
:101C200000811181C601BE010E94760E682FC50198
:101C3000F8010995E80EF91E2196F6018481958137
:101C4000C817D90750F3C701DF91CF911F910F91AA
:101C5000FF90EF90DF90CF90BF90AF900895EF92FC
:101C6000FF920F931F937C010E94FC0D8C01C70112
:101C70000E94FF0A9C01200F311FC9011F910F9183
:101C8000FF90EF900895FC01848195816817790792
:101C900048F40190F081E02D309721F0E60FF71F16
:101CA0008081089580E00895FC0184819581681702
:101CB000790730F40190F081E02DE60FF71F4083A3
:101CC0000895FC019B01848195816817790728F4A8
:101CD000608171816115710529F41092100760E12E
:101CE00077E002C0620F731FCB010895FC0184816D
:101CF00095816817790748F40190F081E02D3097BD
:101D000021F0E60FF71F8081089580E00895FC011F
:101D10000190F081E02D309729F40895861709F499
:101D20004083319680818823C9F70895FC01808122
:101D30009181009729F420E030E040E050E004C0B9
:101D40000E94ED1B9B01AC01B901CA010895CF921D
:101D5000DF92EF92FF920F931F93CF93DF936C016B
:101D6000DC01ED90FC901197E114F104E9F1149677
:101D7000CD91DC9115972097B9F1870102C00F5FD3
:101D80001F4FF801808190E00E948C34892BB9F7B5
:101D90002197CE0DDF1D01C02197888190E00E9420
:101DA0008C34892B19F0C017D107B0F7FE0131969A
:101DB000E01BF10BD6011596FC93EE9314972D9131
:101DC0003C912017310728F4C901B801AF010E94E6
:101DD000141CD601ED91FC91119714968D919C9154
:101DE0001597E80FF91F1082DF91CF911F910F9186
:101DF000FF90EF90DF90CF900895CF93DF93FC0199
:101E0000C081D181209729F407C090E00E949C34C2
:101E1000899388818823C9F7DF91CF910895CF9363
:101E2000DF93FC01C081D181209729F407C090E0A5
:101E30000E949434899388818823C9F7DF91CF91D8
:101E40000895EF92FF920F931F93CF93DF93FC01BE
:101E5000DB018617970719F12481358114968D913E
:101E60009C91159728173907E1F4232BC1F0E080E6
:101E7000F180CD91DC910FC090E00E9494348C01F0
:101E8000888190E00E9494340817190751F408944F
:101E9000E11CF11C2196F7018081882369F781E01C
:101EA00001C080E0DF91CF911F910F91FF90EF90E3
:101EB0000895AF92BF92CF92DF92EF92FF920F936D
:101EC0001F93CF93DF93FC015B017A01DB01149632
:101ED0002D913C9115972115310559F184819581FA
:101EE000009739F18217930720F14817590720F01E
:101EF0007C010894E108F10800811181C801CFEF4D
:101F0000DFEF6801CE0CDF1C10C0F501608171812C
:101F10000E94721C9C01009771F0801B910BE816C7
:101F2000F90608F0EC01C9010196C816D90668F750
:101F300002C0CFEFDFEFCE01DF91CF911F910F9164
:101F4000FF90EF90DF90CF90BF90AF900895FC018D
:101F5000DB014481558114968D919C911597481B06
:101F6000590BCF010E94590F0895CF93DF93FC01C5
:101F7000DB01848195814817590760F4C081D181C4
:101F80006D917C91CE01840F951F0E94721C9C0163
:101F9000009719F42FEF3FEF02C02C1B3D0BC90136
:101FA000DF91CF91089540E050E00E94B50F089571
:101FB000DF92EF92FF920F931F93CF93DF93EC0189
:101FC0008C819D8148175907B8F47A010894E11C67
:101FD000F11CE881F981EE0DFF1DD080108208818F
:101FE0001981C80170E00E94671C9C010E0D1F1D25
:101FF000F801D082009719F4EFEFFFEF05C0888158
:102000009981F901E81BF90BCF01DF91CF911F9165
:102010000F91FF90EF90DF900895FC01448155816E
:10202000415050400E94D80F0895CF93DF93FC0198
:10203000848195814817590758F4C081D181CE0118
:10204000840F951F70E00E942F1C9C01009719F4CB
:102050002FEF3FEF02C02C1B3D0BC901DF91CF9149
:10206000089540E050E00E94151008950F931F93CB
:10207000CF93DF93FC018B0141155105F9F06115F8
:102080007105E1F0848195812817390718F0FB016B
:10209000108214C041505040EC01C21BD30B4C17AE
:1020A0005D0708F4EA0160817181620F731FC80146
:1020B000AE010E94581CC00FD11F1882DF91CF9132
:1020C0001F910F910895FC01DB0124813581149645
:1020D0004D915C91159724173507A8F08081918167
:1020E000009789F06D917C916115710561F0241B59
:1020F000350B820F931F0E943A1C9C0180E0232B1A
:1021000019F481E0089580E00895DC01FB01149644
:102110008D919C911597892B31F461157105A9F06A
:1021200090E0808108C00D90BC91A02D61157105D3
:1021300029F490E08C91882349F407C0CD010E94D6
:102140003A1C9C0190E0232B09F491E0892F08951B
:10215000CF93DF939C01FB01EC01A881B98110971B
:1021600029F06081718161157105D1F4C081D1813F
:10217000209759F084819581892B39F0888190E0EE
:1021800022273327281B390B12C0109771F0F90151
:1021900084819581892B49F08C91282F30E007C0EC
:1021A000CD010E943A1C9C0102C020E030E0C90130
:1021B000DF91CF9108950E94A810892F8095881FE4
:1021C0008827881F08950E94A81020E01816190675
:1021D0000CF021E0822F08950E94A81020E018162C
:1021E00019060CF421E0822F08950E94A810892F6F
:1021F000881F8827881F0895FC01DB012481358111
:1022000014968D919C9115972817390711F020E0AD
:1022100007C0CF010E94A81020E0892B09F421E01B
:10222000822F0895FC01DB0114962D913C911597A6
:1022300084819581821B930B84179507A0F0808180
:102240009181009781F06D917C916115710559F034
:10225000840F951FA9010E944A1C9C0180E0232B3A
:1022600019F481E0089580E00895FC01DB012481E8
:10227000358114968D919C9115972817390710F484
:1022800080E00895CF0140E050E00E9412110895CF
:102290000F931F93CF93DF93EC018B016F5F7F4F01
:1022A000888199810E94181B009711F480E005C075
:1022B000998388831B830A8381E0DF91CF911F91EB
:1022C0000F9108952F923F924F925F926F927F925B
:1022D0008F929F92AF92BF92CF92DF92EF92FF9236
:1022E0000F931F93CF93DF935C012B014A01DC0115
:1022F00014960D911C9115970115110509F4D4C080
:10230000FB01C480D580C114D10409F4CDC0DA0129
:1023100014966D907C9015976C187D08FC01E080F8
:10232000F1806114710491F01BC0D4016C9111967D
:102330007C91119714964D915C9115978C2F0E946A
:10234000141CF401E480F580EC0EFD1ED2016D91A9
:102350007C91C7010E94721CEC01009731F7A4C068
:1023600077FE02C067012EC0FB0120803180E801AA
:102370003CC08E010E191F09C601B701A8010E94B9
:10238000141C0C0D1D1DD4016C9111967C9111979C
:1023900014964D915C911597C8010E94141CF4018C
:1023A000C480D580C00ED11ED2011496ED90FC9051
:1023B0001597EC0EFD1EF50184819581860D971D04
:1023C00095838483D2016D917C91C7010E94721C18
:1023D000EC01009771F6C601B7010E94431C64C06E
:1023E0007B01EC0CFD1CC60DD71DC701B1010E947D
:1023F000721CBC010097A1F7C017D10709F454C0A3
:10240000F501828193818C179D0708F044C0C501B6
:10241000BE010E9448118823F1F546C0C501B201F2
:10242000A9010E94590FEC0197FD3EC0D5016D91A5
:102430007C911197F201848195818C0F9D1F680F0B
:10244000791F14964D915C911597481B590BCB0140
:10245000860D971D0E941D1CD50114968D919C918F
:102460001597860D971D15969C938E931497ED9155
:10247000FC911197E80FF91F10822D913C912C0FC0
:102480003D1FF4016081718144815581C9010E9421
:10249000141C9E0105C0D50114962D913C911597F1
:1024A0002150304037FFBACFDF91CF911F910F916C
:1024B000FF90EF90DF90CF90BF90AF909F908F9064
:1024C0007F906F905F904F903F902F900895CF93A3
:1024D000DF93EC0188819981892B29F08A819B8186
:1024E0008617970760F4CE010E944811882341F0B7
:1024F0008C819D81892B19F4E881F981108281E01A
:10250000DF91CF910895EF92FF920F931F93CF9396
:10251000DF93EC017B016C817D81E114F104C1F05A
:102520004115510599F08A01060F171FB8010E9445
:102530006712882369F0888199812C813D81820FFF
:10254000931FB7010E94431C1D830C8381E001C0CF
:1025500080E0DF91CF911F910F91FF90EF90089550
:10256000EF92FF920F931F93DF93CF93CDB7DEB718
:102570002B970FB6F894DEBF0FBECDBF7C01CB0109
:10258000BA018E010F5F1F4FA8012AE030E00E94C0
:10259000F61CF80101900020E9F73197E01BF10BE0
:1025A000C701B801AF010E9483122B960FB6F894B1
:1025B000DEBF0FBECDBFCF91DF911F910F91FF9076
:1025C000EF900895EF92FF920F931F93DF93CF93B5
:1025D000CDB7DEB72C970FB6F894DEBF0FBECDBFD8
:1025E0007C01CB01BA018E010F5F1F4FA8012AE0C9
:1025F00030E00E94AD1CF80101900020E9F731970E
:10260000E01BF10BC701B801AF010E9483122C96A9
:102610000FB6F894DEBF0FBECDBFCF91DF911F91F3
:102620000F91FF90EF900895EF92FF920F931F93F9
:10263000DF93CF9300D000D000D0CDB7DEB77C01C0
:10264000CB018E010F5F1F4FB8014AE050E00E949E
:102650001B1DF80101900020E9F73197E01BF10BF9
:10266000C701B801AF010E94831226960FB6F894F5
:10267000DEBF0FBECDBFCF91DF911F910F91FF90B5
:10268000EF900895EF92FF920F931F93DF93CF93F4
:10269000CDB7DEB727970FB6F894DEBF0FBECDBF1C
:1026A0007C01CB018E010F5F1F4FB8014AE050E063
:1026B0000E948C1CF80101900020E9F73197E01B83
:1026C000F10BC701B801AF010E94831227960FB624
:1026D000F894DEBF0FBECDBFCF91DF911F910F9158
:1026E000FF90EF900895EF92FF920F931F93DF9367
:1026F000CF9300D000D0CDB7DEB77C01862F90E01D
:102700008E010F5F1F4FB8014AE050E00E948C1C01
:10271000F80101900020E9F73197E01BF10BC701A8
:10272000B801AF010E9483120F900F900F900F908D
:10273000CF91DF911F910F91FF90EF900895DF935C
:10274000CF9300D0CDB7DEB769831A82BE016F5F29
:102750007F4F41E050E00E9483120F900F90CF9185
:10276000DF9108956115710511F480E00895DB0192
:102770000D900020E9F71197A61BB70BAD010E9441
:1027800083120895FB0160817181448155810E940B
:1027900083120895CF93DF93EC018881998100978C
:1027A00011F00E945F1A198218821D821C821B82FE
:1027B0001A82DF91CF9108950F931F93182F092F3D
:1027C0000E94B012882321F4812F902F0E94CA13F7
:1027D000812F902F1F910F9108950F931F93182F02
:1027E000092F0E94E212882321F4812F902F0E944A
:1027F000CA13812F902F1F910F9108950F931F934C
:10280000182F092F0E941413882321F4812F902F51
:102810000E94CA13812F902F1F910F9108950F933B
:102820001F93182F092F0E944213882321F4812F10
:10283000902F0E94CA13812F902F1F910F910895FE
:102840000F931F93182F092F0E947313882321F4CD
:10285000812F902F0E94CA13812F902F1F910F91CB
:1028600008950F931F93182F092F0E949F138823F9
:1028700021F4812F902F0E94CA13812F902F1F9136
:102880000F9108950F931F93182F092F611571054C
:1028900061F0DB010D900020E9F71197A61BB70B43
:1028A000AD010E948312882321F4812F902F0E9472
:1028B000CA13812F902F1F910F9108950F931F938B
:1028C000182F092FFB0160817181448155810E947D
:1028D0008312882321F4812F902F0E94CA13812F05
:1028E000902F1F910F910895EF92FF920F931F93D6
:1028F000CF93DF93EC017B018A01BA010E9467123A
:10290000882321F4CE010E94CA1307C01D830C83C3
:1029100088819981B7010E94431CCE01DF91CF913C
:102920001F910F91FF90EF900895CF93DF93EC01EB
:10293000198218821B821A821D821C821E826115D6
:10294000710551F0DB010D900020E9F71197A61BEE
:10295000B70BAD010E947414DF91CF910895CF930E
:10296000DF93EC01198218821B821A821D821C825D
:102970001E826115710551F0DB010D900020E9F711
:102980001197A61BB70BAD010E947414DF91CF9174
:1029900008950F931F93182F092F6115710559F092
:1029A000DB010D900020E9F71197A61BB70BAD01D5
:1029B0000E94741402C00E94CA13812F902F1F918D
:1029C0000F910895EF92FF920F931F93DF93CF9390
:1029D000CDB7DEB7A1970FB6F894DEBF0FBECDBF5F
:1029E0008C01FC01118210821382128215821482E2
:1029F0001682CB01BA017E010894E11CF11CA701EB
:102A000030E00E94F61CC801B7010E94C914A196CB
:102A10000FB6F894DEBF0FBECDBFCF91DF911F91EF
:102A20000F91FF90EF900895EF92FF920F931F93F5
:102A3000DF93CF93CDB7DEB7A1970FB6F894DEBF83
:102A40000FBECDBF8C01FC01118210821382128255
:102A5000158214821682CB01BA017E010894E11C12
:102A6000F11CA70130E00E94F61CC801B7010E94CA
:102A7000C914A1960FB6F894DEBF0FBECDBFCF919B
:102A8000DF911F910F91FF90EF900895EF92FF92C9
:102A90000F931F93DF93CF93CDB7DEB7A2970FB6F7
:102AA000F894DEBF0FBECDBF8C01FC0111821082F5
:102AB00013821282158214821682CB01BA017E0122
:102AC0000894E11CF11CA70130E00E94AD1CC80174
:102AD000B7010E94C914A2960FB6F894DEBF0FBECC
:102AE000CDBFCF91DF911F910F91FF90EF9008958F
:102AF000EF92FF920F931F93DF93CF93CDB7DEB783
:102B0000A2970FB6F894DEBF0FBECDBF8C01FC01BB
:102B10001182108213821282158214821682CB01D6
:102B2000BA017E010894E11CF11CA70130E00E946B
:102B3000AD1CC801B7010E94C914A2960FB6F89443
:102B4000DEBF0FBECDBFCF91DF911F910F91FF90E0
:102B5000EF900895EF92FF920F931F93DF93CF931F
:102B6000CDB7DEB761970FB6F894DEBF0FBECDBF0D
:102B70008C01CB01F801118210821382128215821E
:102B8000148216827E010894E11CF11CB70150E00A
:102B90000E941B1DC801B7010E94C91461960FB69F
:102BA000F894DEBF0FBECDBFCF91DF911F910F9183
:102BB000FF90EF900895EF92FF920F931F93DF9392
:102BC000CF93CDB7DEB761970FB6F894DEBF0FBED7
:102BD000CDBF8C01CB01F8011182108213821282C9
:102BE0001582148216827E010894E11CF11CB70143
:102BF00050E00E941B1DC801B7010E94C9146196D4
:102C00000FB6F894DEBF0FBECDBFCF91DF911F91FD
:102C10000F91FF90EF900895EF92FF920F931F9303
:102C2000DF93CF93CDB7DEB762970FB6F894DEBFD0
:102C30000FBECDBF8C01CB01F8011182108213822F
:102C400012821582148216827E010894E11CF11C06
:102C5000B70150E00E948C1CC801B7010E94C91442
:102C600062960FB6F894DEBF0FBECDBFCF91DF9155
:102C70001F910F91FF90EF900895EF92FF920F93A5
:102C80001F93DF93CF93CDB7DEB762970FB6F8945B
:102C9000DEBF0FBECDBF8C01CB01F80111821082C7
:102CA000138212821582148216827E010894E11C1E
:102CB000F11CB70150E00E948C1CC801B7010E94B2
:102CC000C91462960FB6F894DEBF0FBECDBFCF9188
:102CD000DF911F910F91FF90EF900895EF92FF9277
:102CE0000F931F93DF93CF93CDB7DEB729970FB61E
:102CF000F894DEBF0FBECDBF8C01862FF801118284
:102D000010821382128215821482168290E07E0154
:102D10000894E11CF11CB70150E00E941B1DC80182
:102D2000B7010E94C91429960FB6F894DEBF0FBEF2
:102D3000CDBFCF91DF911F910F91FF90EF9008953C
:102D4000EF92FF920F931F93DF93CF93CDB7DEB730
:102D500029970FB6F894DEBF0FBECDBF8C01862F2A
:102D6000F801118210821382128215821482168257
:102D700090E07E010894E11CF11CB70150E00E9434
:102D80001B1DC801B7010E94C91429960FB6F894FB
:102D9000DEBF0FBECDBFCF91DF911F910F91FF908E
:102DA000EF900895DF93CF9300D0CDB7DEB7FC014D
:102DB0001182108213821282158214821682698314
:102DC0001A82BE016F5F7F4F0E94C9140F900F904F
:102DD000CF91DF910895DF93CF9300D0CDB7DEB7C9
:102DE000FC011182108213821282158214821682D3
:102DF00069831A82BE016F5F7F4F0E94C9140F90D2
:102E00000F90CF91DF910895BF92CF92DF92EF9212
:102E1000FF920F931F93CF93DF93082FB92E6B016F
:102E20007A01E9012417350710F4EA017901802FAE
:102E30009B2D6DE771E00E949514D60114968D913B
:102E40009C9115978E159F05D0F08C179D0708F45F
:102E5000EC01D601ED91FC911197EC0FFD1F108153
:102E600010826D917C916E0D7F1D802F9B2D0E9495
:102E7000C914D601ED91FC91EC0FFD1F1083802F3A
:102E80009B2DDF91CF911F910F91FF90EF90DF90DD
:102E9000CF90BF9008950F931F938C01FB01248165
:102EA00035810E940417C8011F910F910895CF9397
:102EB000DF93EC01FB018617970761F06081718158
:102EC0006115710529F0448155810E94741402C076
:102ED0000E94CA13CE01DF91CF910895FC011182A7
:102EE0001082138212821582148216820E94571752
:102EF0000895FC01118210821382128215821482BD
:102F000016820E9457170895FC01808191810E94CA
:102F10005F1A0895FC01808191810E945F1A0895D3
:102F2000CF93DF930E9494180E945330CEE4D7E0F1
:102F30000E94CA2A2097E1F30E944E07F9CFFC01B4
:102F400020E030E08081882311F421E030E0C901E5
:102F50000895FC0181E080830895089508950E94FA
:102F60005F1A08950E94B51908951F920F920FB627
:102F70000F9211242F933F938F939F93AF93BF93FF
:102F80008091150790911607A0911707B091180727
:102F9000309119070196A11DB11D232F2D5F2D37EB
:102FA00020F02D570196A11DB11D20931907809384
:102FB000150790931607A0931707B09318078091F1
:102FC000110790911207A0911307B0911407019671
:102FD000A11DB11D8093110790931207A0931307B1
:102FE000B0931407BF91AF919F918F913F912F9113
:102FF0000F900FBE0F901F9018958FB7F8942091E7
:1030000015073091160740911707509118078FBF89
:10301000B901CA0108959FB7F89420911107309122
:103020001207409113075091140786B5A89B06C05C
:103030008F3F21F02F5F3F4F4F4F5F4F9FBF542F68
:10304000432F322F2227280F311D411D511D82E0B1
:10305000220F331F441F551F8A95D1F7B901CA01AA
:1030600008959B01AC017FB7F8948091110790916E
:103070001207A0911307B091140766B5A89B05C06D
:103080006F3F19F00196A11DB11D7FBFBA2FA92F67
:10309000982F8827860F911DA11DB11D62E0880F12
:1030A000991FAA1FBB1F6A95D1F7BC012DC0FFB79E
:1030B000F8948091110790911207A0911307B09195
:1030C0001407E6B5A89B05C0EF3F19F00196A11DB6
:1030D000B11DFFBFBA2FA92F982F88278E0F911DE2
:1030E000A11DB11DE2E0880F991FAA1FBB1FEA9521
:1030F000D1F7861B970B885E9340C8F22150304071
:103100004040504068517C4F211531054105510523
:1031100071F60895019739F0880F991F880F991F4C
:1031200002970197F1F70895789484B5826084BD81
:1031300084B5816084BD85B5826085BD85B58160BB
:1031400085BDEEE6F0E0808181608083E1E8F0E01B
:103150001082808182608083808181608083E0E84A
:10316000F0E0808181608083E1EBF0E08081846029
:103170008083E0EBF0E0808181608083EAE7F0E02B
:10318000808184608083808182608083808181608F
:1031900080838081806880831092C1000895CF93DE
:1031A000DF93482F50E0CA018B549A4FFC013491B1
:1031B0004F555A4FFA018491882369F190E0880FA6
:1031C000991FFC01ED57FA4FA591B491FC01E3570B
:1031D000FA4FC591D491662351F42FB7F8948C918E
:1031E000932F909589238C93888189230BC062301B
:1031F00061F42FB7F8948C91932F909589238C9339
:103200008881832B88832FBF06C09FB7F8948C9149
:10321000832B8C939FBFDF91CF910895482F50E06F
:10322000CA0187539A4FFC012491CA018B549A4FCB
:10323000FC0194914F555A4FFA013491332309F40C
:1032400040C0222351F1233071F0243028F4213082
:10325000A1F0223011F514C02630B1F02730C1F0B2
:103260002430D9F404C0809180008F7703C080910E
:1032700080008F7D8093800010C084B58F7702C05E
:1032800084B58F7D84BD09C08091B0008F7703C065
:103290008091B0008F7D8093B000E32FF0E0EE0FBF
:1032A000FF1FE357FA4FA591B4912FB7F894662307
:1032B00021F48C919095892302C08C91892B8C9359
:1032C0002FBF0895682F70E0CB0187539A4FFC0100
:1032D0002491CB018B549A4FFC0144916F557A4F46
:1032E000FB019491992319F420E030E03CC02223A3
:1032F00051F1233071F0243028F42130A1F0223034
:1033000011F514C02630B1F02730C1F02430D9F4C3
:1033100004C0809180008F7703C0809180008F7DF2
:103320008093800010C084B58F7702C084B58F7DF4
:1033300084BD09C08091B0008F7703C08091B00038
:103340008F7D8093B000892F90E0880F991F895658
:103350009A4FFC01A591B4918C9120E030E0842338
:1033600011F021E030E0C9010895CF93DF93BC0153
:103370008230910510F462E070E0A0914507B091B1
:103380004607ED01E0E0F0E040E050E021C0888138
:1033900099818617970769F48A819B81309719F084
:1033A0009383828304C09093460780934507FE0170
:1033B00034C06817790738F44115510519F084179E
:1033C000950708F4AC01FE018A819B819C01E9010B
:1033D0002097E9F641155105A9F1CA01861B970B03
:1033E000049708F4BA01E0E0F0E02AC08D919C91C6
:1033F000119784179507F9F46417750781F41296ED
:103400008D919C911397309719F09383828304C018
:103410009093460780934507FD0132964CC0CA0140
:10342000861B970BFD01E80FF91F619371930297BB
:103430008D939C9340C0FD01828193819C01D901B1
:103440001097A1F68091430790914407892B41F48E
:10345000809180019091810190934407809343076C
:1034600040918201509183014115510541F44DB7BE
:103470005EB780917E0190917F01481B590B20918E
:10348000430730914407CA01821B930B86179707A5
:1034900080F0AB014E5F5F4F8417950750F0420FED
:1034A000531F5093440740934307F901619371936D
:1034B00002C0E0E0F0E0CF01DF91CF910895CF931B
:1034C000DF93009709F450C0EC0122971B821A8207
:1034D000A0914507B0914607109709F140E050E0F0
:1034E000AC17BD0708F1BB83AA83FE01219131917E
:1034F000E20FF31FAE17BF0779F48D919C911197DE
:10350000280F391F2E5F3F4F3983288312968D91E4
:103510009C9113979B838A834115510571F4D09335
:103520004607C093450720C012968D919C91139732
:10353000AD01009711F0DC01D3CFFA01D383C28330
:1035400021913191E20FF31FCE17DF0769F48881D3
:103550009981280F391F2E5F3F4FFA013183208355
:103560008A819B8193838283DF91CF910895A0E02C
:10357000B0E0EDEBFAE10C94AF34EC01A880B98037
:10358000CA80DB80A114B104C104D10441F484E2F7
:10359000A82E89EDB82E8BE5C82E87E0D82EC6015F
:1035A000B5012DE133EF41E050E00E94573427EAA6
:1035B00031E440E050E00E94F7337B018C01C6010A
:1035C000B5012DE133EF41E050E00E945734CA01CC
:1035D000B9012CEE34EF4FEF5FEF0E94F7336E0D21
:1035E0007F1D801F911F97FF04C061507040804075
:1035F0009048688379838A839B839B01AC015F77C2
:10360000B901CA01CDB7DEB7EAE00C94CB340E9411
:10361000B71A089584E891E00E94B71A089560935C
:1036200084017093850180938601909387010895AA
:10363000A0E0B0E0EEE1FBE10C94A9346C0100974E
:1036400029F4CB010E94B5196C01C1C08EEF882E00
:103650008FEF982E8C0C9D1C8601060F171F0815E6
:10366000190508F4B2C0F401A081B181A617B7070B
:10367000B8F0A530B10508F4AAC0CD0104978617AB
:10368000970708F4A4C01297A61BB70BF801A193E3
:10369000B193D4016D937C93CF010E945F1A97C0C0
:1036A0007B01EA1AFB0AEEEFFFEFEE0EFF1E36017A
:1036B0006A0E7B1EC0914507D091460744245524CD
:1036C000AA24BB244AC0C615D705E1F54881598113
:1036D0004E155F05B8F1CA0104978E159F05B0F429
:1036E0001296A40FB51FF401B183A0832A813B81F8
:1036F0004114510431F0D20113963C932E9312974A
:1037000066C0309346072093450761C08A819B813C
:10371000F80193838283425050404E195F095183D0
:1037200040834114510431F0D20113961C930E933F
:10373000129704C01093460700934507F401718364
:10374000608345C088819981A816B90608F45C0198
:103750002E018A819B819C01E901209709F0B3CF5A
:10376000809143079091440786159705E9F4A616C2
:10377000B706D0F4209182013091830121153105E3
:1037800041F42DB73EB780917E0190917F01281BB7
:10379000390B02171307C8F410934407009343072B
:1037A000D4016D937C9313C0CB010E94B519EC0139
:1037B000009759F0F40140815181B6010E94141C18
:1037C000C6010E945F1A6E0102C0CC24DD24C6012E
:1037D000CDB7DEB7E0E10C94C5341F93FC01992707
:1037E0008827BC01E89411911032E9F3193010F0E8
:1037F0001E30C8F31B3251F01D3249F4689406C0E4
:103800000E94E11C610F711D811D911D11911053CA
:103810001A30B0F33EF490958095709561957F4F86
:103820008F4F9F4F1F910895FB01DC0102C0019053
:103830000D9241505040D8F708956817790768F401
:10384000FB01DC01E40FF51FA40FB51F02C00290BD
:103850000E9241505040D8F708950C94141CFC016E
:103860008191861721F08823D9F7992708953197F8
:10387000CF010895FB01DC018D91019080190110A9
:10388000D9F3990B0895FB01DC0101900D92002002
:10389000E1F70895FB01DC014150504030F08D917B
:1038A0000190801919F40020B9F7881B990B08952D
:1038B000FB01DC014150504048F001900D92002086
:1038C000C9F701C01D9241505040E0F70895FC0136
:1038D00081E090E00190061609F4CF010020D1F7B5
:1038E00001970895FB0151915523A9F0BF01DC0117
:1038F0004D9145174111E1F759F4CD010190002098
:1039000049F04D9140154111C9F3FB014111EFCF31
:1039100081E090E001970895FB019F01E894423017
:10392000C4F04532B4F44A3029F497FB1EF4909564
:1039300081959F4F642F77270E947234805D8A3370
:103940000CF0895D8193CB010097A1F716F45DE23D
:1039500051931082C9010C94311DFA01CF93FF934A
:10396000EF93223044F1253234F5C22FE894CA3067
:1039700049F497FB3EF490958095709561957F4F43
:103980008F4F9F4F2C2F332744275527FF93EF93BB
:103990000E943534EF91FF91605D6A330CF0695DF0
:1039A0006193B901CA01605070408040904051F766
:1039B00016F4CDE2C19310828F919F91CF910C9418
:1039C000311D592F482F372F262F660F771F881F3D
:1039D000991F660F771F881F991F620F731F841F1F
:1039E000951F660F771F881F991F0895FA01CF93BF
:1039F000FF93EF932230CCF02532BCF4C22F2C2F52
:103A0000332744275527FF93EF930E943534EF91D6
:103A1000FF91605D6A330CF0695D6193B901CA0181
:103A2000605070408040904051F710828F919F917C
:103A3000CF910C94311DFB019F01423074F045324F
:103A400064F4642F77270E947234805D8A330CF00F
:103A5000895D8193CB010097A1F71082C9010C9475
:103A6000311DDC01FC01672F71917723E1F732975B
:103A700004C07C916D9370836291AE17BF07C8F349
:103A80000895FC017583648371876087578346833B
:103A900053874287158A158614861786168621E075
:103AA000248B8FEF9FEF938B828B918B808B268B58
:103AB00008952F923F924F925F926F927F928F92D2
:103AC0009F92AF92BF92CF92DF92EF92FF920F93AD
:103AD0001F93DF93CF93CDB7DEB728970FB6F89437
:103AE000DEBF0FBECDBF98878F831B012A017901EE
:103AF000580121E030E02E193F093E832D83C70194
:103B0000880F991FAA27BB27A81BB90BBA83A983C3
:103B1000AF81B885ED91FC911197A701440D551D1A
:103B20000480F581E02DCD0198010995AF81B8851C
:103B3000ED91FC911197A2014E195F090480F58166
:103B4000E02DCD01B10198010995AF81B885ED91C6
:103B5000FC911197B701620D731D0480F581E02D72
:103B6000CD01A20198010995AF81B885ED91FC9135
:103B70001197B1016E197F090480F581E02DCD0107
:103B8000A201980109953701E1E0F0E0FC83EB83A5
:103B9000882499249EC02D813E8137FD0CC0089455
:103BA0006108710889819A8102969A838983280F16
:103BB000391F3E832D830894811C911CAB81BC81ED
:103BC0001296BC83AB83ED81FE81EA0FFB1FFE835F
:103BD000ED836401C20CD31C8301040D151DAF815C
:103BE000B885ED91FC9111970480F581E02DCD0110
:103BF000B601A801950109957101E818F908AF818E
:103C0000B885ED91FC9111970480F581E02DCD01EF
:103C1000B701A80195010995820106191709AF811D
:103C2000B885ED91FC9111970480F581E02DCD01CF
:103C3000B601A80195010995AF81B885ED91FC9178
:103C400011970480F581E02DCD01B701A801950100
:103C500009956301C20CD31C8401040D151DAF81AD
:103C6000B885ED91FC9111970480F581E02DCD018F
:103C7000B601A801950109957101E618F708AF8111
:103C8000B885ED91FC9111970480F581E02DCD016F
:103C9000B701A80195010995820108191909AF8199
:103CA000B885ED91FC9111970480F581E02DCD014F
:103CB000B601A80195010995AF81B885ED91FC91F8
:103CC00011970480F581E02DCD01B701A801950180
:103CD0000995861497040CF45ECF28960FB6F894D5
:103CE000DEBF0FBECDBFCF91DF911F910F91FF902F
:103CF000EF90DF90CF90BF90AF909F908F907F908C
:103D00006F905F904F903F902F9008952F923F9229
:103D10004F925F926F927F928F929F92AF92BF92DB
:103D2000CF92DF92EF92FF920F931F93DF93CF9387
:103D3000CDB7DEB762970FB6F894DEBF0FBECDBF2A
:103D40009A8B898B3B014A01670151E0A52EB12C6A
:103D5000A21AB30AC901880F991F44275527481B87
:103D6000590B58874F83C40101979C838B83DB01D8
:103D70001197BA83A98314010894211C311C2B01CB
:103D80000894411C511C7901E1E0F0E0FA87E987D1
:103D90001E821D8210E0A801447050705C874B8722
:103DA000C801827090709E878D87D801A870B0700E
:103DB000B88BAF8701701070B7C0B7FC0AC0089409
:103DC000E108F108EF81F8853296F887EF83AE0EAF
:103DD000BF1E4D815E814F5F5F4F5E834D8389853E
:103DE0009A8502969A878987AB85BC85AB2BF1F0C3
:103DF000A989BA89ED91FC911197A701480D591D28
:103E00000480F581E02DCD01B20196010995A989C3
:103E1000BA89ED91FC911197B701660D771D048069
:103E2000F581E02DCD01A10196010995ED85FE8575
:103E3000EF2BF9F0A989BA89ED91FC911197A401B2
:103E40004E195F090480F581E02DCD01B201960184
:103E50000995A989BA89ED91FC911197B701660D71
:103E6000771D0480F581E02DCD014B815C819601A9
:103E70000995EF85F889EF2BF9F0A989BA89ED91B9
:103E8000FC911197B3016E197F090480F581E02D33
:103E9000CD01A10196010995A989BA89ED91FC91FD
:103EA0001197A701480D591D0480F581E02DCD0122
:103EB00069817A81960109950115110501F1A98998
:103EC000BA89ED91FC911197B3016E197F090480B5
:103ED000F581E02DCD014B815C8196010995A98981
:103EE000BA89ED91FC911197A4014E195F090480E4
:103EF000F581E02DCD0169817A8196010995E985E9
:103F0000FA85AE0EBF1E4B815C81415050405C83F0
:103F10004B8389819A8101979A8389830894211C14
:103F2000311C0894411C511CAD81BE81AE15BF05EA
:103F30000CF443CF62960FB6F894DEBF0FBECDBF30
:103F4000CF91DF911F910F91FF90EF90DF90CF9075
:103F5000BF90AF909F908F907F906F905F904F90A9
:103F60003F902F9008952F923F924F925F926F92C1
:103F70007F928F929F92AF92BF92CF92DF92EF92F9
:103F8000FF920F931F93DF93CF93CDB7DEB72E979A
:103F90000FB6F894DEBF0FBECDBF9E878D871B0185
:103FA0005E834D83A701260171E0C72ED12CC21A72
:103FB000D30AC901880F991F66277727681B790BD9
:103FC0007A8369836D807E8008946108710883E03C
:103FD000882E912C8E0C9F1C790181E090E09C83AF
:103FE0008B83AA24BB2410E0D801A170B070B887DD
:103FF000AF83FA013196FA87E987B8016270707071
:104000007C876B8777C0D7FC0AC00894E108F10869
:1040100089819A8102969A838983C80ED91E089451
:10402000A11CB11CAB81BC811296BC83AB83EF8118
:10403000F885EF2B41F1AD85BE85ED91FC9111978F
:10404000B501620D731D4D815E814E195F099701A7
:10405000220F331F89859A85280F391F0284F38523
:10406000E02DCD0182010995AD85BE85ED91FC91D4
:104070001197B701620D731D0284F385E02DCD0108
:10408000A30194010995EB85FC85EF2B41F1AD85EA
:10409000BE85ED91FC911197B1016A197B094D81A3
:1040A0005E814E195F099701220F331F89859A851A
:1040B000280F391F0284F385E02DCD018201099577
:1040C000AD85BE85ED91FC911197B1016E197F0907
:1040D0000284F385E02DCD01A30194010995EB81C4
:1040E000FC81CE0EDF1E08946108710862E070E06A
:1040F000860E971EAE14BF040CF485CF2E960FB615
:10410000F894DEBF0FBECDBFCF91DF911F910F910D
:10411000FF90EF90DF90CF90BF90AF909F908F90E7
:104120007F906F905F904F903F902F9008956F9287
:104130007F928F929F92AF92BF92CF92DF92EF9237
:10414000FF920F931F937C014B013A0159016801C3
:10415000DC01ED91FC91421B530B220F331F2F5FAB
:104160003F4F0284F385E02D0995C701B401A301F7
:10417000950103E0EE24FF240E94B31F1F910F91CD
:10418000FF90EF90DF90CF90BF90AF909F908F9077
:104190007F906F9008952F923F924F925F926F920F
:1041A0007F928F929F92AF92BF92CF92DF92EF92C7
:1041B000FF920F931F93DF93CF9300D000D0CDB722
:1041C000DEB73C017C836B836A015901FA82E98284
:1041D000222433249801241B350B37FF03C030956C
:1041E00021953F4FC5014B815C81841B950B97FF47
:1041F00003C0909581959F4F821793075CF481E0EF
:10420000282E312CC601CB80DC809C838B83C80197
:1042100085015C018B819C81A816B90644F4C50117
:10422000AB80BC809C838B83C80186016C01250117
:10423000AB81BC814A1A5B0A7801EC18FD08F7FED5
:1042400004C0F094E194F108F394C016D10624F070
:1042500088248A94982C03C0B1E08B2E912CC20143
:1042600062E070E00E9422348B0125C0D301ED9101
:10427000FC912114310441F00480F581E02DC3014B
:10428000B6014B815C8107C00480F581E02DC3013C
:104290006B817C81A60129813A8109950E191F093C
:1042A00017FF04C0C80CD91C040D151DEB81FC813F
:1042B0003196FC83EB834B815C81A416B506B4F682
:1042C0000F900F900F900F90CF91DF911F910F9152
:1042D000FF90EF90DF90CF90BF90AF909F908F9026
:1042E0007F906F905F904F903F902F9008954F92E6
:1042F0005F926F927F928F929F92AF92BF92CF9276
:10430000DF92EF92FF920F931F936C015B014A01C2
:1043100039012801DC01ED91FC910484F585E02D43
:1043200087010995D601ED91FC91A40141505040BF
:10433000440D551D0484F585E02DC601B50193019A
:104340000995D601ED91FC910284F385E02DC6011B
:10435000B501A40192010995D601ED91FC91089453
:10436000A108B108A60CB71C0284F385E02DC60194
:10437000B501A401920109951F910F91FF90EF9053
:10438000DF90CF90BF90AF909F908F907F906F9075
:104390005F904F900895CF92DF92EF92FF920F932C
:1043A0001F93DC016B017801ED91FC918A010150B2
:1043B0001040020F131F0084F185E02D960109952E
:1043C0001F910F91FF90EF90DF90CF900895CF92C3
:1043D000DF92EF92FF920F931F93DC016A01C901F4
:1043E0007801ED91FC9111979B0121503040280FED
:1043F000391F0084F185E02DCD01860109951F91BB
:104400000F91FF90EF90DF90CF9008956F927F9281
:104410008F929F92AF92BF92CF92DF92EF92FF92D4
:104420000F931F93CF93DF935C013A016901480119
:10443000EB01C60ED71E0DC0D501ED91FC91028493
:10444000F385E02DC501BE01A30194018701099503
:104450002196CC15DD0584F3DF91CF911F910F914B
:10446000FF90EF90DF90CF90BF90AF909F908F9094
:104470007F906F900895EF92FF920F931F93FC012E
:104480007B01A081B18120853185028513855096FD
:104490000D90BC91A02D60E070E040E050E0FD0187
:1044A00009951F910F91FF90EF9008952F923F92E1
:1044B0004F925F926F927F928F929F92AF92BF9234
:1044C000CF92DF92EF92FF920F931F93DF93CF93E0
:1044D000CDB7DEB728970FB6F894DEBF0FBECDBFBD
:1044E0005C0178876F831A0149011E830D832701C0
:1044F000CB018E0D9F1D9C838B83EE0CFF1CF094D3
:10450000E194F108F394D701A20FB31FBA83A983F2
:10451000D501ED91FC910484F585E02DC5016B81F9
:104520007C8129813A81860109956D807E80620CAB
:10453000731C089461087108D501ED91FC91048405
:10454000F585E02DC5016B817C81A30129813A812C
:104550000995240C351CED81FE81EE0EFF1ED50160
:10456000ED91FC910284F385E02DC5016F81788582
:10457000A10197010995EF81F8858E0E9F1E089481
:1045800081089108D501ED91FC910284F385E02D1D
:10459000C501B401A10197010995C5016B817C8119
:1045A000A101920101E076010E94861E84189508FF
:1045B000C501B401A101920102E00E94861E6418A7
:1045C0007508C501B401A301920104E00E94861E92
:1045D000C5016B817C81A301920108E00E94861EC7
:1045E00028960FB6F894DEBF0FBECDBFCF91DF91F6
:1045F0001F910F91FF90EF90DF90CF90BF90AF9001
:104600009F908F907F906F905F904F903F902F90F2
:1046100008952F923F924F925F926F927F928F9266
:104620009F92AF92BF92CF92DF92EF92FF920F9341
:104630001F93DF93CF9300D000D000D0CDB7DEB76B
:104640002C015B015E834D833C832B834801370142
:104650001601C701860F971F9A8389836701CC0CC7
:10466000DD1CD094C194D108D394D201ED91FC917A
:104670002C0D3D1D0088F189E02DC20169817A81F0
:1046800071010995ED81FE81E60DF71DFE83ED8335
:104690000894810891088C0C9D1C0894A108B1080D
:1046A0008B819C81A80EB91EA618B708C201B5015E
:1046B000AF01930101E0740161010E94B31FC201C7
:1046C00069817A814D815E81930102E00E94B31F6E
:1046D00026960FB6F894DEBF0FBECDBFCF91DF9107
:1046E0001F910F91FF90EF90DF90CF90BF90AF9010
:1046F0009F908F907F906F905F904F903F902F9002
:1047000008952F923F924F925F926F927F928F9275
:104710009F92AF92BF92CF92DF92EF92FF920F9350
:104720001F93DF93CF9300D000D0CDB7DEB74C01FD
:104730007C836B835A834983390128011701DC018B
:10474000ED91FC910084F185E02D75010995D4016E
:10475000ED91FC910084F185E02DC401B301A2012B
:10476000910186010995D401ED91FC910084F185B8
:10477000E02DC401B101A6012B813C8109811A8180
:1047800009950F900F900F900F90CF91DF911F918F
:104790000F91FF90EF90DF90CF90BF90AF909F90E0
:1047A0008F907F906F905F904F903F902F900895E3
:1047B0002F923F924F925F926F927F928F929F9231
:1047C000AF92BF92CF92DF92EF92FF920F931F931F
:1047D000DF93CF93CDB7DEB766970FB6F894DEBF01
:1047E0000FBECDBF988B8F872B013A0149011C8BDF
:1047F0000B8B1601BA8AA98A041715073CF44B01E2
:1048000029018B899C895C8B4B8B3C012B893C89D2
:104810002216330644F4C70174014C01C1012B88F0
:104820003C889C8B8B8B4B895C894615570544F4DF
:10483000C40142012C018B899C897C8A6B8A3C01D2
:104840006214730449F5841495041CF4B4019201B4
:1048500008C0481459041CF4B201940102C0B2010A
:104860009201E616F70614F4B70104C02E153F05B1
:104870000CF49701AF85B889ED91FC9111972F5FEA
:104880003F4F261B370B0484F585E02DCD01A30196
:1048900009891A890995BEC0F401E419F509FC8754
:1048A000EB872B893C89261937093A872987A70185
:1048B0004419550958874F83C101861997099E836A
:1048C0008D83D701A819B909BC83AB83F1012B896A
:1048D0003C89E21BF30BFA83E9832215330519F4B3
:1048E0003E872D8706C04B895C89415050405E87CA
:1048F0004D877301AA24BB24CC24DD2434C0C50118
:1049000069857A850E9422349B01240D351DC601DC
:104910006D817E810E942234DB01A40DB51DA2179A
:10492000B3071CF4CD01D9019C018B859C85A80E91
:10493000B91EEF81F885CE0EDF1EEF85F8898081E4
:1049400091811196A21BB30BFC010484F585E02D27
:104950008F859889B901A7019D0109891A8909954F
:104960000894E11CF11C2D853E852E153F053CF673
:10497000C7014B895C89841B950BAB81BC818A9FE5
:1049800060018B9FD00C9A9FD00C1124C70186190F
:104990009709EF81F8858E9F30018F9F700C9E9F45
:1049A000700C112434C0C60169817A810E942234BE
:1049B0009B01280D391DC3016D817E810E94223427
:1049C000DB01A40DB51DA217B3071CF4CD01D9015D
:1049D0009C014B815C81C40ED51E8F819885680E29
:1049E000791EEF85F889808191811196A21BB30B06
:1049F000FC01A484B5848F859889B901A7019D0124
:104A000009891A89F50109950894E11CF11C2E14F5
:104A10003F044CF666960FB6F894DEBF0FBECDBFCE
:104A2000CF91DF911F910F91FF90EF90DF90CF908A
:104A3000BF90AF909F908F907F906F905F904F90BE
:104A40003F902F9008952F923F924F925F926F92D6
:104A50007F928F929F92AF92BF92CF92DF92EF920E
:104A6000FF920F931F93DF93CF93CDB7DEB72897B5
:104A70000FB6F894DEBF0FBECDBF3C017A836983C9
:104A80005C834B833E832D83480117012601C801B7
:104A9000079668E070E00E9422348B01EE24FF2428
:104AA000CC24DD243EC0EF81F88573E0F595E795D1
:104AB0007A95E1F7EC0DFD1D4D815E81E40FF51F48
:104AC000E4912E2F30E08F81988587709070A0E858
:104AD000B0E002C0B595A7958A95E2F72A233B235B
:104AE000232B81F0D301ED91FC9169817A814F8173
:104AF0005885640F751F0480F581E02DC301A50161
:104B0000920109958F819885019698878F83AF814F
:104B1000B885A815B9053CF20894E11CF11CC00E3B
:104B2000D11EE214F3043CF418861F82AB80BC80D3
:104B3000AE0CBF1CECCF28960FB6F894DEBF0FBEAC
:104B4000CDBFCF91DF911F910F91FF90EF90DF903C
:104B5000CF90BF90AF909F908F907F906F905F901D
:104B60004F903F902F9008952F923F924F925F92D7
:104B70006F927F928F929F92AF92BF92CF92DF926D
:104B8000EF92FF920F931F93DF93CF93CDB7DEB7D2
:104B90002F970FB6F894DEBF0FBECDBF5C015E83CA
:104BA0004D8318870F83FA86E986CB86DC01189639
:104BB0008D919C911997681779070CF0A4C01A96EB
:104BC0008D919C911B97481759070CF09CC0EC2DB8
:104BD000F0E0FF87EE87CF01880F991F880F991F9C
:104BE0008E0F9F1F860F971F181619060CF08BC08B
:104BF000CF01F3E0880F991FFA95E1F7840F951F15
:104C0000181619060CF07FC085E0289FA00111241A
:104C10005A8349832B011B011C825C81553011F49E
:104C200080E005C0E981FA81E859FF4F84912C8624
:104C30003D866D807E8043011B82C82EDD2480FF6F
:104C40001CC0D501ED91FC91BB85B13049F40480C5
:104C5000F581E02DC501B201A3012F81388522C065
:104C60000088F189E02DC5016C857D85A4012E8524
:104C70003F858901EF80F88423C0E985FA852F817B
:104C80003885E217F307E9F0D501ED91FC91BB857A
:104C9000B13051F40480F581E02DC501B201A301CA
:104CA00029853A8509950DC00088F189E02DC50157
:104CB0006C857D85A4012E853F858901E984FA8470
:104CC0000995EB81EF5FEB832E853F85820E931E66
:104CD0000894611C711CE83021F0D594C7948C2D88
:104CE000ACCF3C813F5F3C834E855F85240E351EF3
:104CF0000894411C511C89819A8101969A83898369
:104D0000363009F08ACF2F960FB6F894DEBF0FBE6B
:104D1000CDBFCF91DF911F910F91FF90EF90DF906A
:104D2000CF90BF90AF909F908F907F906F905F904B
:104D30004F903F902F900895CF92EF92FF920F9354
:104D40001F93CF93DF93EC01262F6A3061F42C89F7
:104D500030E013E0220F331F1A95E1F78E859F850F
:104D6000820F931F37C06D30C9F16C857D854E85EC
:104D70005F8508891989EA88FB88CC880E94B42558
:104D80002C8986E0289FB00111248C859D85680FB1
:104D9000791F7D876C878E89882301F1422F50E02F
:104DA0008AEF9FEF9C01429FC001439F900D529F4D
:104DB000900D112428853985820F931F8617970738
:104DC0006CF4B3E0440F551FBA95E1F78E859F85CB
:104DD000840F951F9F878E871D861C8681E090E03B
:104DE000DF91CF911F910F91FF90EF90CF90089599
:104DF000FC0175876487578746870895FC01662301
:104E000009F461E0648B0895FC01718B608B738BF6
:104E1000628B0895FC01718B608B538B428B0895DC
:104E2000FC0185898370858B0895FC0180859185BF
:104E30000895FC01828593850895FC0113821282F6
:104E40008EE895E0918380838FEF808F848F828FAF
:104E5000818F638F089580E094E0E8E8F1E0DF015E
:104E60009C011D9221503040E1F708951F93DC0111
:104E7000162F58968C9158978F3F09F45EC09196E3
:104E8000ED91FC919297808197969C919797892BB1
:104E900080839396ED91FC919497908198968C9154
:104EA00098978095892380839196ED91FC919297B4
:104EB000908197968C91979780958923808330E88D
:104EC00040E050E070E05F96ED91FC91909790810A
:104ED00096968C919697809589238083832F90E076
:104EE000862397235D96ED91FC915E9795962C9184
:104EF0009597892B21F08081822B808304C080814B
:104F00002095282320835F96ED91FC9190978081D6
:104F100096969C919697892B808336954F5F5F4F2D
:104F20004830510581F69196ED91FC9192978081E0
:104F300097969C91892B808317C057966C91772701
:104F400067FD70958CEE95E00E9446038CEE95E02F
:104F500061E00E9403048CEE95E0612F0E9403043F
:104F60008CEE95E00E9446041F9108956EE20E9427
:104F700036270895EF92FF920F931F938C01F62E20
:104F8000E42E63EA0E943627C80160E00E943627BB
:104F9000C80160E40E943627C8016AE20E943627F1
:104FA000C80160E00E943627C8016F2D0E94362795
:104FB000C80160E00E943627C8016E2D0E94362786
:104FC000C80161E00E943627C8016FE20E943627BF
:104FD0001F910F91FF90EF900895EF92FF920F9322
:104FE0001F938C01F62EE42E63EA0E943627C80137
:104FF00060E00E943627C80160E40E943627C8019D
:1050000069E20E943627C80160E00E943627C80185
:105010006F2D0E943627C80160E00E943627C80124
:105020006E2D0E943627C80161E00E943627C80114
:105030006FE20E9436271F910F91FF90EF90089525
:10504000EF92FF920F931F938C01F62EE42E67E2EE
:105050000E943627C80160E00E943627C8016F2DE4
:105060000E943627C80160E00E943627C8016E2DD5
:105070000E943627C80161E00E943627C8016FEF01
:105080000E943627C8016FE20E9436271F910F91B8
:10509000FF90EF900895EF92FF920F931F938C0172
:1050A000F62EE42E66E20E943627C80160E00E94D8
:1050B0003627C8016F2D0E943627C80160E00E9484
:1050C0003627C8016E2D0E943627C80161E00E9474
:1050D0003627C8016FEF0E943627C8016FE20E9491
:1050E00036271F910F91FF90EF900895662311F0DE
:1050F00067EA01C066EA0E9436270895CF92DF92E0
:10510000EF92FF920F931F93CF93DF93EC0160E038
:105110000E943627CE0160E10E943627CE0160E46E
:105120000E943627888D8F3F09F44BC0E9A1FAA170
:1051300080819FA1892B8083EBA1FCA1808198A510
:10514000892B8083E9A1FAA190818FA18095892381
:105150008083A8E8B1E08C9130E840E050E0682F0F
:1051600070E0EF8DF8A190818EA1809589238083D6
:10517000832F90E086239723ED8DFE8D2DA1892B23
:1051800021F08081822B808304C080812095282398
:105190002083EF8DF8A180819EA1892B8083369595
:1051A0004F5F5F4F48305105E1F6119685E0A83812
:1051B000B80789F6E9A1FAA180819FA1892B808394
:1051C00034C00091B8008CE08093B800EE24FF2436
:1051D0006F89772767FD70958CEE95E00E944603F6
:1051E0008CEE95E062E00E94030488E8C82E81E01E
:1051F000D82ECE0CDF1C10E08CEE95E0F60161910C
:105200006F010E9403041F5F1031B1F780E190E04D
:10521000E80EF91E8CEE95E00E94460490E0E91637
:1052200094E0F906A9F60093B800DF91CF911F91A1
:105230000F91FF90EF90DF90CF9008950F931F9301
:10524000CF93DF93EC01062F142F60E870E040E469
:1052500050E00E94411D1F8B888D8F3F09F46CC068
:1052600061E00E94CF18898D61E00E94CF188A8D7D
:1052700061E00E94CF188C8D61E00E94CF18E98D0B
:105280002E2F332727FD3095F901EF55FA4FE49182
:10529000F0E0EE0FFF1FE357FA4F8591949198A32A
:1052A0008F8F2B543A4FF90184918EA3E88D2E2FC6
:1052B000332727FD3095F901EF55FA4FE491F0E0DF
:1052C000EE0FFF1FE357FA4F859194919E8F8D8FBC
:1052D0002B543A4FF90184918DA3EC8D2E2F332757
:1052E00027FD3095F901EF55FA4FE491F0E0EE0F0C
:1052F000FF1FE357FA4F859194919AA389A32B54EA
:105300003A4FF90184918FA3EA8D2E2F332727FD81
:105310003095F901EF55FA4FE491F0E0EE0FFF1FE1
:10532000E357FA4F859194919CA38BA32B543A4F4A
:10533000F901849188A704C08CEE95E00E94620474
:105340008B8D61E00E94CF188B8D61E00E940E1959
:1053500061E070E080E090E00E9431188B8D60E0A9
:105360000E940E196AE070E080E090E00E9431181F
:105370008B8D61E00E940E19CE016EEA0E943627E5
:10538000CE0165ED0E943627CE0160E80E943627E7
:10539000CE0168EA0E943627CE016FE30E943627CD
:1053A000CE0163ED0E943627CE0168E30E943627C6
:1053B000CE0160E40E943627CE016DE80E943627B8
:1053C000013019F4CE0160E102C0CE0164E10E9417
:1053D0003627CE0160E20E943627CE0160E00E94AF
:1053E0003627CE0161EA0E943627CE0168EC0E9482
:1053F0003627CE016AED0E943627CE0162E10E9477
:105400003627CE0161E80E943627013019F4CE011B
:105410006FE902C0CE016FEC0E943627CE0169ED24
:105420000E943627013019F4CE0162E202C0CE019B
:1054300061EF0E943627CE016BED0E943627CE0128
:1054400060E20E943627CE0160E40E943627CE013A
:1054500064EA0E943627CE0166EA0E943627CE0112
:105460006FEA0E943627DF91CF911F910F91089527
:10547000CF92DF92EF92FF920F931F93CF93DF9320
:10548000EC017B018A01690177FD7BC00E94152731
:10549000E816F9060CF075C017FD73C0CE010E9426
:1054A0001927081719070CF06CC05EC08C819D810C
:1054B0000197801B910B87017C0116C08C819D8117
:1054C00001979C012E193F0979018E819F810197D7
:1054D0009C01201B310B890107C08E819F810197A0
:1054E0008E199F0978018C0131E0C316D104E1F4D3
:1054F000C80168E070E00E942234FB01F695FE2F9F
:10550000EE27F795E795EE0DFF1DE857FE4FC80112
:1055100068E070E00E94223402C0CC0CDD1C8A9549
:10552000E2F780818C291EC0C80168E070E00E940B
:105530002234FB01F695FE2FEE27F795E795EE0D49
:10554000FF1DE857FE4FC80168E070E00E9422345A
:1055500021E030E002C0220F331F8A95E2F7209548
:105560008081822380830DC0CE010E94102782306B
:1055700009F4A4CF833009F4B0CF813009F0B4CF5F
:1055800095CFDF91CF911F910F91FF90EF90DF901A
:10559000CF90089508958AE197E064E00E941D2766
:1055A00008950F931F930AE117E0C80162E00E947B
:1055B000FE26C80161E070E00E940427C8016AE08D
:1055C00070E040E050E00E94F826C8010E942B27BE
:1055D000C80160E071E00E94E90DC8010E947E28C8
:1055E000C80160E04FE00E944B2860ED77E080E06A
:1055F00090E00E943118C8010E94B62768EE73E05F
:1056000080E090E00E943118C80160E04FE00E9405
:10561000202860ED77E080E090E00E943118C8011A
:105620000E94B62768EE73E080E090E00E94311897
:10563000C80160E047E00E94ED2760ED77E080E080
:1056400090E00E943118C80160E047E00E94BA274C
:1056500060ED77E080E090E00E943118C8010E9480
:10566000B6271F910F910895EF92FF920F931F930A
:10567000CF93DF93C0E0D0E018C08AE197E00E94AA
:1056800019278C01015010408AE197E060E070E03A
:1056900040E050E09E01B1E0EB2EF12C0E94CB20C7
:1056A0008AE197E00E947E2824968AE197E00E9492
:1056B0001527C817D9070CF3C0E0D0E018C08AE15D
:1056C00097E00E9415279C01215030408AE197E025
:1056D00060E070E040E050E08E01A1E0EA2EF12CA5
:1056E0000E94CB208AE197E00E947E2824968AE1DE
:1056F00097E00E941927C817D9070CF36AEF70E0EA
:1057000080E090E00E9431188AE197E00E942B2708
:10571000C0E0D0E018C08AE197E00E941927AC01F0
:10572000415050408AE197E060E070E09E0100E067
:1057300010E0F1E0EF2EF12C0E94CB208AE197E0FF
:105740000E947E2824968AE197E00E941527C817B8
:10575000D9070CF38AE197E00E941927EC01219701
:105760001EC08AE197E00E9419278C018AE197E028
:105770000E941527015010409C01215030408AE1C1
:1057800097E060E070E0A8018E01E1E0EE2EF12CE0
:105790000E94CB208AE197E00E947E282497D7FFC1
:1057A000E0CF6AEF70E080E090E00E9431188AE17B
:1057B00097E00E942B278AE197E00E941527EC01D1
:1057C00021971EC08AE197E00E9415278C018AE18B
:1057D00097E00E94192701501040AC014150504001
:1057E0008AE197E0B8019E0100E010E0B1E0EB2E05
:1057F000F12C0E94CB208AE197E00E947E2824971A
:10580000D7FFE0CF8AE197E00E941927EC012197AA
:105810001EC08AE197E00E9415278C018AE197E07B
:105820000E94192701501040AC01415050408AE1BC
:1058300097E0B80120E030E08E01A1E0EA2EF12CE3
:105840000E94CB208AE197E00E947E282497D7FF10
:10585000E0CF6AEF70E080E090E00E9431188AE1CA
:1058600097E00E942B27C0E0D0E018C08AE197E0C3
:105870000E941527BC01615070408AE197E040E02A
:1058800050E020E030E08E01F1E0EF2EF12C0E949C
:10589000CB208AE197E00E947E2824968AE197E057
:1058A0000E941927C817D9070CF3C0E0D0E01FC029
:1058B0008AE197E00E9415277C018AE197E00E9427
:1058C00019270894E108F1088C01015010408AE181
:1058D00097E0B70140E050E09E01E1E0EE2EF12CB0
:1058E0000E94CB208AE197E00E947E2824968AE1DC
:1058F00097E00E941527C817D907D4F26AEF70E025
:1059000080E090E00E943118DF91CF911F910F91BC
:10591000FF90EF900895CF92DF92EF92FF920F9356
:105920001F93CF93DF93C0E0D0E0CC24DD2421C0CF
:105930008AE197E00E9415277C018AE197E00E94A6
:105940001927EC0CFD1C8C010C0D1D1D8AE197E044
:10595000BE01AE019701E1E0EE2EF12C0E9477210D
:105960008AE197E00E947E2822968CEF9FEFC80E76
:10597000D91E8AE197E00E94192762E070E00E9438
:105980002234C617D707A4F2DF91CF911F910F9150
:10599000FF90EF90DF90CF9008959F92AF92BF92CB
:1059A000CF92DF92EF92FF920F931F93CF93DF93EB
:1059B00099249394C0E0D0E0AA24BB242EC08AE1AD
:1059C00097E00E9415276C018AE197E00E94192751
:1059D0008C018AE197E00E941927CA0CDB1C0A0D92
:1059E0001B1D64E070E00E9422347B018AE197E095
:1059F000BE01AE019601C92CDD240E94092380E07E
:105A000091E0991281E0982E8AE197E00E947E2829
:105A100022968CEF9FEFA80EB91E8AE197E00E94B4
:105A2000192762E070E00E94223462507040C6176D
:105A3000D7072CF2DF91CF911F910F91FF90EF903C
:105A4000DF90CF90BF90AF909F900895AF92BF929C
:105A5000CF92DF92EF92FF920F931F93CF93DF933A
:105A6000C0E0D0E0AA24BB242AC08AE197E00E94CB
:105A700015276C018AE197E00E9419278C018AE1C1
:105A800097E00E941927CA0CDB1C0A0D1B1D64E05D
:105A900070E00E9422347B018AE197E0BE01AE01F2
:105AA0009601F1E0CF2ED12C0E9456228AE197E098
:105AB0000E947E2822968CEF9FEFA80EB91E8AE1E5
:105AC00097E00E94192762E070E00E942234625041
:105AD0007040C617D7074CF2DF91CF911F910F91FD
