:100000000C945E010C9486010C9486010C9486017C
:100010000C9486010C9486010C9486010C946D0757
:100020000C9486010C9486010C9486010C94860134
:100030000C9486010C9486010C9486010C94860124
:100040000C94C5160C9486010C94290A0C94860114
:100050000C9486010C9486010C9486010C94860104
:100060000C9486010C948601000101020202020236
:100070000203030303030303030303030303030450
:10008000040404040404040404040405050505052B
:100090000505050505060606060606060607070702
:1000A00007070707080808080808090909090909CE
:1000B0000A0A0A0A0A0B0B0B0B0B0C0C0C0C0C0D8E
:1000C0000D0D0D0E0E0E0E0F0F0F10101010111142
:1000D00011121212131313141414151516161617E1
:1000E0001718181919191A1A1B1B1C1C1D1D1E1E66
:1000F0001F202021212223232424252626272828C7
:10010000292A2B2B2C2D2E2F3030313233343536FB
:100110003738393A3B3C3D3E3F40414244454647F3
:10012000494A4B4C4E4F5152535556585A5B5D5E9F
:100130006062636567696B6D6E70727476797B7DE2
:100140007F818486888B8D909295979A9D9FA2A59A
:10015000A8ABAEB1B4B7BABEC1C4C8CBCFD3D6DAA0
:10016000DEE2E6EAEEF2F8FF000000000000000028
:10017000FF0000000000000043FF0000000000003E
:100180002243FF0000000000112243FF0000000096
:1001900009112243FF0000000509112243FF00005E
:1001A000020509112243FF0000020509112243FF45
:1001B0000000020509112243000000020509112276
:1001C00000000000020509110000000000020509FE
:1001D0000000000000000205000000000000000216
:1001E00064006801640070016400780164008001AB
:1001F0006400880164009001640098016400A0011B
:100200006400A8016400B0016400B8016400C0018A
:100210006400C8016400D0016400D8016E00D801F8
:100220006E00D0016E00C8016E00C0016E00B80102
:100230006E00B0016E00A8016E00A0016E00980172
:100240006E0090016E0088016E0080016E007801E2
:100250006E0070016E00680100000000240027009D
:100260002A0000000000250028002B0000000000EC
:1002700023002600290004040404040404040202E8
:100280000202020203030303030301020408102015
:100290004080010204081020010204081020000020
:1002A0000007000201000003040600000000000037
:1002B0000000F201D8046C07150AAB0B11241FBE15
:1002C000CFEFD8E0DEBFCDBF12E0A0E0B1E0EAE2C0
:1002D000FCE302C005900D92AC38B107D9F713E0EA
:1002E000ACE8B2E001C01D92A336B107E1F712E01D
:1002F000CCEBD2E004C02297FE010E949F1AC23BC1
:10030000D107C9F70E9445040C94131E0C940000F9
:10031000DF93CF93CDB7DEB7F894FFCFDF93CF93C2
:10032000CDB7DEB72E970FB6F894DEBF0FBECDBFA8
:100330009A8389837C836B8389819A81813091053B
:1003400009F047C08B819C812FEF8F3F920709F006
:1003500040C084E992E09E838D83E3EBF1E0F8876F
:10036000EF83F6E0F987EF81F88500808F8198852B
:10037000019698878F83ED81FE8100828D819E8119
:1003800001969E838D83998591509987E985EE2307
:1003900051F78AE992E09B878A87E9EBF1E0FD87D4
:1003A000EC87F6E0FE87EC85FD8500808C859D85D9
:1003B00001969D878C87EA85FB8500828A859B85CF
:1003C00001969B878A879E8591509E87EE85EE23B6
:1003D00051F72E960FB6F894DEBF0FBECDBFCF916A
:1003E000DF910895DF93CF93CDB7DEB781E090E042
:1003F0006FEF7FEF0E948E01CF91DF910895DF9321
:10040000CF9300D00F92CDB7DEB78EE18B831A82E7
:1004100088EA92E060E00E94090765E070E080E011
:1004200090E00E944117198218C08981882F90E0BE
:10043000FC01E457FD4F8081882361F08981282FDA
:1004400030E0F901E457FD4F80818150F901E45714
:10045000FD4F808389818F5F89838981883028F36C
:100460008B8181508B838B81882381F482E38B8302
:100470008A818F5F8A838A8187708A838A81882FA5
:1004800090E0FC01E457FD4F8FEF808388EA92E013
:100490002CE832E0B9014FEF0E940F07BECFDF9387
:1004A000CF93CDB7DEB72E970FB6F894DEBF0FBE51
:1004B000CDBF89876A875C874B873E872D878FEF03
:1004C00088878D859E851816190624F48D85988554
:1004D000890F88871F821E823AC08B859C85AA2738
:1004E00097FDA095BA2FBC01CD010E9441171D8236
:1004F0001C8217C08C819D81DC01A457BD4F88856B
:10050000882F90E088599F4F9B838A83EA81FB81E3
:100510008491898389818C938C819D8101969D83AF
:100520008C838C819D818830910524F388EA92E048
:100530002CE832E0B90149850E940F079D85888526
:10054000890F88878E819F8101969F838E838A85FC
:10055000282F30E08E819F81821793070CF4BDCF46
:100560002E960FB6F894DEBF0FBECDBFCF91DF91B0
:100570000895DF93CF93CDB7DEB72A970FB6F894DF
:10058000DEBF0FBECDBF8D836E8358874F833A8702
:1005900029871C821B8232C08F819885AA2797FDEC
:1005A000A095BA2FBC01CD010E9441171A82198271
:1005B00013C029813A8189819A81FC01E457FD4F5A
:1005C00090818985890FF901E457FD4F80838981E6
:1005D0009A8101969A83898389819A8188309105CD
:1005E00044F388EA92E02CE832E0B9014D810E94A0
:1005F0000F078B819C8101969C838B838E81282F92
:1006000030E08B819C818217930734F22A960FB6D3
:10061000F894DEBF0FBECDBFCF91DF9108950F9349
:10062000DF93CF93CDB7DEB72B970FB6F894DEBF2D
:100630000FBECDBF8E8378876F8349872A870B874C
:1006400089858D831C821B820CC08B819C81FC015F
:10065000E457FD4F8D8180838B819C8101969C8323
:100660008B838B819C81883091057CF388EA92E0B2
:100670002CE832E0B9014E810E940F0788EA92E02F
:1006800060E00E9409072AC08F819885AA2797FDFC
:10069000A095BA2FBC01CD010E9441179D818B8589
:1006A000890F8D831A8219820CC089819A81FC017D
:1006B000E457FD4F8D81808389819A8101969A83C9
:1006C000898389819A81883091057CF388EA92E058
:1006D0002CE832E0B9014E810E940F079D818A8586
:1006E000981791F62B960FB6F894DEBF0FBECDBFCC
:1006F000CF91DF910F910895DF93CF9300D00F92A8
:10070000CDB7DEB78B831A8219820CC089819A819A
:10071000FC01E457FD4F8B81808389819A8101968A
:100720009A83898389819A81883091057CF388EA4C
:1007300092E02CE832E0B9014FEF0E940F070F90D2
:100740000F900F90CF91DF910895DF93CF93CDB7A6
:10075000DEB788EA92E060E00E94090785E00E9427
:100760007C0360ED77E080E090E00E94411784E038
:100770000E947C0360ED77E080E090E00E944117EA
:1007800083E00E947C0360ED77E080E090E00E94CF
:10079000411782E00E947C0360ED77E080E090E00A
:1007A0000E94411781E00E947C0360ED77E080E0C9
:1007B00090E00E94411780E00E947C0360ED77E0AA
:1007C00080E090E00E944117C9CFDF93CF9300D023
:1007D00000D000D0CDB7DEB79E838D838FEF8C83A2
:1007E0008FEF8B831A8219820CC089819A81FC0158
:1007F000E457FD4F8FEF808389819A8101969A8318
:10080000898389819A81883091057CF388EA92E016
:100810002CE832E0B9014C810E940F0788EA92E08F
:1008200060E00E94090782E493E020E031E0B90132
:100830000E94C80D2D813E818C816B81A9012FEF13
:100840003FEF0E94B9022D813E818C816B81A9010D
:1008500021E030E00E94B902EDCF0F931F93DF93A8
:10086000CF93CDB7DEB780EA92E024E932E0B90158
:1008700041E050E028E030E001E010E00E94C804D0
:10088000CF91DF911F910F9108950F931F93DF93E5
:10089000CF93CDB7DEB70E94711782E493E040E0BA
:1008A00051EE60E070E00E94BA0A82E493E02EE12B
:1008B00031E0B9010E94C80D8CEB92E00E946408FF
:1008C00082E493E027E331E0B9010E94C80D8CEB8C
:1008D00092E00E94350982E493E02BE431E0B90113
:1008E0000E94C80D8CEB92E060E040E00E9441085D
:1008F00082E493E020E631E0B9010E94C80D82E471
:1009000093E027E731E0B9010E941C0C88E691E0F2
:100910009C01442737FD4095542F82E493E0BA01AF
:10092000A90120E130E00E94DE0D80EA92E024E996
:1009300032E0B90141E050E028E030E002E010E0B0
:100940000E94C80480EA92E00E94D90482E493E005
:1009500026E831E0B9010E94C80D80EA92E00E94C9
:10096000530682E493E028E931E0B9010E94C80D02
:1009700082E493E029EA31E0B9010E94C80D8CEBD2
:1009800092E060E040E00E944108FFCF08950895A2
:100990000F931F93FC0171836083538342833583DC
:1009A0002483178306831F910F9108950895089556
:1009B00008952F923F924F925F926F927F929F92F3
:1009C000AF92BF92CF92DF92EF92FF920F931F935D
:1009D000DF93CF9300D000D0CDB7DEB76C0182E4B7
:1009E00093E06FEB71E00E941C0CD60112966D91A2
:1009F0007C91139782E493E04AE050E00E94950DC9
:100A000082E493E06EEC71E00E941C0CF6016481BC
:100A1000758182E493E04AE050E00E94950D82E403
:100A200093E060EE71E00E941C0CD60116966D9169
:100A30007C91179782E493E04AE050E00E94950D84
:100A400022243324AA24BB240FC182E493E063EF61
:100A500071E00E941C0C82E493E0B1014AE050E096
:100A60000E94950D82E493E06EEF71E00E941C0CF1
:100A7000D601ED91FC91EA0DFB1D6281738182E448
:100A800093E04AE050E00E94950D442455246624EA
:100A90007724D8C082E493E060E172E00E941C0CED
:100AA00082E493E0B1014AE050E00E94F50C82E458
:100AB00093E06AE172E00E941C0C82E493E0B201D0
:100AC0004AE050E00E94F50C82E493E06CE172E0B1
:100AD0000E941C0CD601ED91FC91EA0DFB1D448196
:100AE0005581460D571D662757FD6095762F82E488
:100AF00093E020E130E00E94180D82E493E061E28F
:100B000072E00E941C0CD601ED91FC91EA0DFB1DD8
:100B10000480F581E02DE60DF71D6591749182E466
:100B200093E04AE050E00E94F50C82E493E06CE12F
:100B300072E00E941C0CD601ED91FC91EA0DFB1DA8
:100B400044815581460D571D662757FD6095762FC8
:100B500082E493E020E130E00E94180D82E493E00B
:100B600062E372E00E941C0C82E493E065E372E0B1
:100B70000E941C0CD601ED91FC91EA0DFB1D048036
:100B8000F581E02DE60DF71D3296259134913A83DB
:100B90002983EE24FF2440C082E493E068E472E0FD
:100BA0000E941C0C09811A810E0D1F1D1C821B82C4
:100BB00020C0F8019490FEE0F91530F082E493E053
:100BC0006AE472E00E941C0C82E493E0692D40E12B
:100BD00050E00E94060D82E493E06CE472E00E9413
:100BE0001C0C2B813C812F5F3F4F3C832B830F5F7D
:100BF0001F4FD60114968D919C911597EB81FC8126
:100C0000E817F907B0F282E493E06EE472E00E9424
:100C10001C0C0894E11CF11CD60112968D919C913C
:100C20001397E816F90608F4B7CF82E493E061E57C
:100C300072E00E94C80D0894411C511CE4E0F0E0F1
:100C40006E0E7F1ED601ED91FC91EA0DFB1D828197
:100C500093814816590608F41DCF0894211C311CB5
:100C6000E6E0F0E0AE0EBF1ED60116968D919C9187
:100C700017972816390608F4E8CE0F900F900F90BA
:100C80000F90CF91DF911F910F91FF90EF90DF9028
:100C9000CF90BF90AF909F907F906F905F904F905C
:100CA0003F902F9008952F923F924F925F926F92B4
:100CB0007F928F929F92AF92BF92CF92DF92EF92EC
:100CC000FF920F931F93DF93CF9300D00F92CDB776
:100CD000DEB74C01AA24BB241982CC24DD244EC0EB
:100CE000D401ED91FC91EC0DFD1D228033804080FC
:100CF0005180EE24FF2433C0D401ED91FC91EC0D22
:100D0000FD1D84819581EA81FB818E0F9F1FFC016F
:100D100065907490FC0132966591749188EA92E036
:100D20004FEF0E940F07F981FF2339F488EA92E020
:100D300060E00E94090721E02983B30180E090E090
:100D40000E9441170F5F1F4F8A819B8104969B83EE
:100D50008A830215130580F20894E11CF11CE41447
:100D6000F50428F400E010E01B821A82F2CF089408
:100D7000A11CB11CA6E0B0E0CA0EDB1EF401868106
:100D80009781A816B90608F4ABCF109270000F90A7
:100D90000F900F90CF91DF911F910F91FF90EF90E7
:100DA000DF90CF90BF90AF909F908F907F906F908B
:100DB0005F904F903F902F90089508950895DC0123
:100DC00052961C92529753966C9353971C9211967D
:100DD0001C92119780E090E0FD01E80FF91F12824C
:100DE0001286019688309105B9F782E08093B000B1
:100DF00086E08093B10081E08093B300089582E0A3
:100E00008093B00086E08093B10081E08093B300CE
:100E100008956093B20082E0809370000895AF92CD
:100E2000BF92CF92DF92EF92FF920F931F93CF93D7
:100E3000DF93EC016B01942F89818130E9F3888184
:100E40008F5F817040E050E021E0A22EB12CE92EAE
:100E5000FF24A82FB0E083E0AA0FBB1F8A95E1F71B
:100E6000AC0FBD1F20C0660FF601E20FF31FE49127
:100E7000862F90E08E219F21892B39F08E2F90E0D4
:100E800080239123892B09F0762B2F5F3F4F283049
:100E9000310549F7FD01E40FF51F72834F5F5F4F86
:100EA0004830510561F08501042E02C0000F111F6A
:100EB0000A94E2F770E061E020E030E0D5CF81E015
:100EC0008983DF91CF911F910F91FF90EF90DF9079
:100ED000CF90BF90AF90089508951F920F920FB6D4
:100EE0000F9211242F933F934F935F936F937F93B0
:100EF0008F939F93AF93BF93EF93FF93E091A802DB
:100F0000F0E08091BA0233E0EE0FFF1F3A95E1F76F
:100F1000E855FD4FE80FF11D42818CEB92E06091A6
:100F2000BB020E9441081092B2008091B300880F6A
:100F30008093B3008091BA028F5F8093BA02809150
:100F4000BA0287708093BA028091BA02882379F43A
:100F500081E08093B3008091A902813041F48091B7
:100F6000A8028F5F81708093A8021092A902FF915E
:100F7000EF91BF91AF919F918F917F916F915F9111
:100F80004F913F912F910F900FBE0F901F9018958A
:100F9000439A00000000000043980895613011F466
:100FA000439A0895662309F44398089588B16770B9
:100FB000887F862B88B908952AB12C6F2AB924B16D
:100FC000236024B92BB123702BB925B12C7F25B90F
:100FD00021E0FC01218308952AB123702AB924B1AC
:100FE0002C7F24B92BB12C6F2BB925B1236025B9E7
:100FF00022E0FC0121830895FC0181818617D9F04C
:10100000613061F48230B9F48BB183708BB985B1F2
:101010008C7F85B9CF010E94DC070895623059F4B6
:10102000813049F48BB183708BB985B18C7F85B9E0
:10103000CF010E94EC070895EF92FF921F937C016D
:10104000162F62E00E94FC0788B11770887F812B01
:1010500088B9C70161E00E94CE070000000089B195
:1010600013B1869586951295110F110F107C182BD0
:10107000C70160E00E94CE07812F1F91FF90EF9083
:1010800008950F931F93162F042F61E00E94FC0711
:1010900088B11770887F812B88B98BB1902F990FF9
:1010A000990F8370982B9BB985B10295069506958B
:1010B00003708C7F802B85B9439A000000000000EC
:1010C00043981F910F91089510927A0018B82FE35A
:1010D00027B90E94EC0708955F926F927F928F92DA
:1010E0009F92AF92BF92CF92DF92EF92FF920F93B7
:1010F0001F93CF93DF93EC01762E142F522E802E68
:101100009E2C6C2C00E06501EE24D7FCE094FE2CB4
:1011100021C0CE01672D412F0E944108C701B601B1
:101120000E944117882049F4812F90E0092C02C0C9
:10113000880F991F0A94E2F70BC081E0881649F4E2
:10114000812F90E0092C02C0959587950A94E2F7CB
:10115000182F0F5F0615E8F2CE01672D452D0E946E
:101160004108DF91CF911F910F91FF90EF90DF9099
:10117000CF90BF90AF909F908F907F906F905F9037
:1011800008954F925F926F927F928F929F92AF924B
:10119000BF92CF92DF92EF92FF920F931F93CF9364
:1011A000DF93EC01D62EF42E480166247724422EDC
:1011B00055242DC0FF2091F4CE0160E041E020E0F5
:1011C00000E0EE24E39457E0C52E54010E946C0821
:1011D000CE0160E040E820E001E014C081E0F816B4
:1011E00099F4CE0160E040E820E001E0EE24E394D1
:1011F00037E0C32E54010E946C08CE0160E041E04C
:1012000020E000E00E946C080894611C711C6414CA
:10121000750484F2FF2021F4CE016D2D41E006C05B
:1012200081E0F81661F4CE016D2D40E80E9441087E
:10123000B401882777FD8095982F0E944117CE0131
:101240006D2D40E00E944108DF91CF911F910F91D9
:10125000FF90EF90DF90CF90BF90AF909F908F90D6
:101260007F906F905F904F900895AF92BF92CF9212
:10127000EF920F931F93CF93DF93EC01888161E08E
:101280000E94FF17CE0160E040E00E9441086AEF33
:1012900070E080E090E00E944117888160E00E9449
:1012A000FF176AEF70E080E090E00E9441178881AC
:1012B00061E00E94FF17CE0160E04FEF0E944108FD
:1012C0006AEF70E080E090E00E944117888160E062
:1012D0000E94FF176AEF70E080E090E00E944117E3
:1012E000888161E00E94FF17CE0160E045E50E9421
:1012F00041086AEF70E080E090E00E944117888129
:1013000060E00E94FF176AEF70E080E090E00E94CA
:101310004117888161E00E94FF17CE0160E04AEA30
:101320000E9441086AEF70E080E090E00E9441175F
:10133000888160E00E94FF176AEF70E080E090E033
:101340000E944117CE0160E041E020E000E0EE2481
:10135000E394E9E0CE2E72E3A72EB12C0E946C0834
:10136000CE0160E040E820E001E00E946C086AEFF6
:1013700070E080E090E00E94411700E010E0CE01B4
:1013800060E04FEF0E94410864E670E080E090E08A
:101390000E944117CE0160E040E00E94410864E6EF
:1013A00070E080E090E00E9441170F5F1F4F043013
:1013B000110529F764EF71E080E090E00E94411789
:1013C000DF91CF911F910F91EF90CF90BF90AF9091
:1013D00008950F931F938C01FC01808161E00E94AE
:1013E000FF170000000000000000000000000000E7
:1013F0000000F801808160E00E94FF171F910F91AB
:101400000895FC0180810E94FF1708950F931F9398
:101410008C018DE0F801808361E00E94AC1782E0CE
:10142000F80181831F910F9108958CEB92E00E9447
:10143000060A08950F931F938C018DE0F8018083B5
:1014400061E00E94AC1782E0F80181831F910F9147
:1014500008951F920F920FB60F9211242F933F936E
:101460004F938F939F93EF93FF934091C600E0912A
:101470003E03F0913F0331969F012F7730703197F3
:1014800080914003909141032817390739F0E254C5
:10149000FD4F408330933F0320933E03FF91EF9134
:1014A0009F918F914F913F912F910F900FBE0F9071
:1014B0001F9018958F92AF92CF92DF92EF92FF928A
:1014C0000F931F93DF93CF93CDB7DEB7FC0188E571
:1014D00092E091838083738362835583448337834F
:1014E000268311870087F386E286D586C486A68682
:1014F00087868D85808B8E85818B8F85828BCF9122
:10150000DF911F910F91FF90EF90DF90CF90AF9000
:101510008F9008958F92AF92CF92DF92EF92FF92C9
:101520000F931F93DF93CF93CDB7DEB7FC0188E510
:1015300092E09183808373836283558344833783EE
:10154000268311870087F386E286D586C486A68621
:1015500087868D85808B8E85818B8F85828BCF91C1
:10156000DF911F910F91FF90EF90DF90CF90AF90A0
:101570008F900895CF93DF93EC019A01AB01E8853A
:10158000F985203081EE380780E0480780E0580771
:1015900009F445C081E090E00A8802C0880F991FD5
:1015A0000A94E2F7808360E079E08DE390E00E94A6
:1015B0007B1A215030404040504056954795379512
:1015C0002795EC81FD813083EE81FF812083EA85C0
:1015D000FB85208141E050E0CA010E8402C0880FE3
:1015E000991F0A94E2F7282B2083EA85FB85208146
:1015F000CA010F8402C0880F991F0A94E2F7282BB2
:101600002083EA85FB858081088802C0440F551F2E
:101610000A94E2F7842B8083DF91CF9108951082A2
:1016200020E130E0CECFFC01A285B3854C9121E0D2
:1016300030E0C901068402C0880F991F0A94E2F7BE
:10164000809584238C93A285B3854C91C90107842E
:1016500002C0880F991F0A94E2F7809584238C9327
:10166000A285B3858C91008802C0220F331F0A9493
:10167000E2F7209528232C930895DC011296ED9132
:10168000FC911397E058FF4F219131918081918116
:10169000281B390B2F773070C9010895DC01129691
:1016A000ED91FC911397EE57FF4F2081318192917C
:1016B0008291E058F0408217930719F42FEF3FEF23
:1016C00005C0E20FF31F8081282F30E0C901089583
:1016D000DC011296ED91FC911397DF01AE57BF4FDD
:1016E0002D913C911197E058FF4F80819181E058F6
:1016F000F0408217930719F42FEF3FEF0BC0E20F72
:10170000F31F80812F5F3F4F2F7730702D933C93D5
:10171000282F30E0C9010895DC011296ED91FC916B
:101720001397EE57FF4F8081918192938293089592
:10173000FC01A085B18521898C9190E0022E02C028
:10174000959587950A94E2F780FFF6CF0484F58596
:10175000E02D6083089588E592E0909343038093A1
:1017600042038EEB92E0909345038093440385EC13
:1017700090E0909347038093460384EC90E090932D
:1017800049038093480380EC90E090934B0380934F
:101790004A0381EC90E090934D0380934C0386ECD8
:1017A00090E090934F0380934E0384E08093500326
:1017B00083E08093510387E08093520385E0809318
:1017C000530381E08093540308950F931F93CF93A5
:1017D000DF938C01EB0109C02196D801ED91FC91BA
:1017E0000190F081E02DC801099568816623A1F779
:1017F000DF91CF911F910F910895EF92FF920F9378
:101800001F93CF93DF938C017B01EA010CC0D701BA
:101810006D917D01D801ED91FC910190F081E02D59
:10182000C80109952197209791F7DF91CF911F91DA
:101830000F91FF90EF900895DC01ED91FC910280F3
:10184000F381E02D09950895CF92DF92EF92FF92F8
:101850000F931F93CF93DF936C017B01C0E0D0E027
:101860000EC0D601ED91FC9100811181C701BE012E
:101870000E94E60E682FC601F80109952196F7012E
:1018800084819581C817D90760F3DF91CF911F91AB
:101890000F91FF90EF90DF90CF9008952F923F929D
:1018A0004F925F926F927F928F929F92AF92BF9270
:1018B000CF92DF92EF92FF920F931F93DF93CF931C
:1018C000CDB7DEB7A0970FB6F894DEBF0FBECDBF81
:1018D0001C016A017B01411551056105710549F43F
:1018E00040E350E060E070E020E030E00E94180D3E
:1018F00054C0882499245401422E55246624772408
:1019000001E010E00C0F1D1F080D191DC701B601E5
:10191000A30192010E947B1AF80160830894811C44
:10192000911CA11CB11CC701B601A30192010E9428
:101930007B1AC901DA016C017D01C114D104E104F3
:10194000F104F1F681E0E82EF12CEC0EFD1EE80C1E
:10195000F91C3E010894611C711CD501C40101975A
:10196000A109B1096C01C818D90814C0F601EE0D1F
:10197000FF1D40814A3010F4405D01C0495C50E0D9
:1019800060E070E0C10120E030E00E94180D089492
:10199000E108F1086E147F0449F7A0960FB6F89499
:1019A000DEBF0FBECDBFCF91DF911F910F91FF9092
:1019B000EF90DF90CF90BF90AF909F908F907F90EF
:1019C0006F905F904F903F902F900895DC0121150C
:1019D000310541F4ED91FC910190F081E02D642FEF
:1019E000099508950E944E0C0895EF92FF920F936F
:1019F0001F939A017B0100E010E0B801A7010E944B
:101A0000E60C1F910F91FF90EF900895EF92FF92D7
:101A10000F931F939A01E62EFF2400E010E0B80117
:101A2000A7010E94E60C1F910F91FF90EF9008957F
:101A3000EF92FF920F931F93CF93DF93EC017A0104
:101A40008B012115310541F4E881F9810190F08184
:101A5000E02D642F09951BC02A303105B1F477FFC2
:101A600010C04DE250E060E070E020E030E00E9405
:101A7000180D10950095F094E094E11CF11C011DE7
:101A8000111DCE01B801A7012AE00E944E0CDF9182
:101A9000CF911F910F91FF90EF900895EF92FF92D9
:101AA0000F931F937B019A010027F7FC0095102FDD
:101AB000B801A7010E94180D1F910F91FF90EF90A0
:101AC0000895EF92FF920F931F939A01E62EFF2441
:101AD00000E010E0B801A7010E94180D1F910F91BE
:101AE000FF90EF9008950F931F938C014DE050E00D
:101AF00060E070E020E030E00E94180DC8014AE08C
:101B000050E060E070E020E030E00E94180D1F918E
:101B10000F9108950F931F938C010E94E60CC8014A
:101B20000E94730D1F910F910895CF92DF92EF9253
:101B3000FF920F931F938C019A016B01EE24FF24F7
:101B4000B701A6010E94E60CC8010E94730D1F9107
:101B50000F91FF90EF90DF90CF900895CF92DF929A
:101B6000EF92FF920F931F938C019A01C62EDD24F2
:101B7000EE24FF24B701A6010E94E60CC8010E94D2
:101B8000730D1F910F91FF90EF90DF90CF9008950C
:101B90000F931F938C010E941C0CC8010E94730DAF
:101BA0001F910F9108950F931F938C010E94240C95
:101BB000C8010E94730D1F910F9108950F931F93F9
:101BC0008C010E94180DC8010E94730D1F910F9186
:101BD0000895CF92DF92EF92FF920F931F938C01A3
:101BE0006B019A01EE24D7FCE094FE2CB701A6010C
:101BF0000E94180DC8010E94730D1F910F91FF9054
:101C0000EF90DF90CF900895CF92DF92EF92FF9206
:101C10000F931F938C019A01C62EDD24EE24FF241E
:101C2000B701A6010E94180DC8010E94730D1F91F3
:101C30000F91FF90EF90DF90CF9008959F92AF9219
:101C4000BF92CF92DF92EF92FF920F931F93CF93A9
:101C5000DF93EC017A018B01922ECB01BA0120E0D7
:101C600030E040E050E00E94C91888236CF4CE01B7
:101C70004DE250E060E070E020E030E00E94180D9E
:101C800017FB109517F9109520E030E040E05FE376
:101C9000AA240BC0CA01B90120E030E040E251E4BF
:101CA0000E94CD189B01AC01A394A91498F3C8011C
:101CB000B7010E9465185B016C010E943A197B0113
:101CC0008C01CE01B801A7012AE030E00E94E60CA9
:101CD000992029F0CE0168E772E00E941C0CC8012F
:101CE000B7010E9466199B01AC01C601B5010E94B3
:101CF000641822C020E030E040E251E40E94181A4B
:101D00007B018C010E9435195B016C01CC24B7FC6E
:101D1000C094DC2CCE01B601A5012AE030E00E947F
:101D2000180DC601B5010E9468199B01AC01C801DC
:101D3000B7010E9464189A949920E1F6DF91CF913F
:101D40001F910F91FF90EF90DF90CF90BF90AF90D9
:101D50009F9008950E941E0E08950F931F938C016B
:101D60000E941E0EC8010E94730D1F910F910895CD
:101D7000FC010190F081E02DE60FF71F80810895AE
:101D8000DC01ED91FC911197309751F014968D91F3
:101D90009C9115976817790718F4E60FF71F408391
:101DA0000895FC019B01848195816817790728F4C7
:101DB000608171816115710529F41092550365E503
:101DC00073E002C0620F731FCB010895FC01019004
:101DD000F081E02DE60FF71F80810895FC018081DE
:101DE00091810E94761C08950F931F93CF93DF93E8
:101DF000FC018B0141155105A1F06115710589F0B8
:101E000084819581EA0121978C179D0708F4EC01E4
:101E100060817181C801AE010E94F21CC00FD11F08
:101E20001882DF91CF911F910F9108950F931F9307
:101E3000CF93DF93FC018B0141155105A1F0611592
:101E4000710589F084819581EA0121978C179D079E
:101E500008F4EC0160817181C801AE010E94F21C9E
:101E6000C00FD11F1882DF91CF911F910F9108955C
:101E70000F931F938C01FC01808191810E94501B64
:101E8000F80113821282158214821F910F91089516
:101E9000FC01DB0114962D913C911597848195816D
:101EA000821B930B8417950710F480E008958081BE
:101EB00091816D917C91840F951FA9010E94E41C72
:101EC0009C0180E0232B09F481E00895FC01DB01F3
:101ED0002481358114968D919C9115972817390787
:101EE00010F480E00895CF0140E050E00E94480FD8
:101EF0000895DF92EF92FF920F931F93CF93DF939A
:101F0000EC018C819D8148175907B8F47A01089437
:101F1000E11CF11CE881F981EE0DFF1DD0801082DB
:101F200008811981C80170E00E94011D9C010E0DFD
:101F30001F1DF801D082009719F4EFEFFFEF05C0E5
:101F400088819981F901E81BF90BCF01DF91CF91CD
:101F50001F910F91FF90EF90DF900895FC01448155
:101F60005581415050400E94790F0895CF93DF93DF
:101F7000FC01DB01848195814817590760F4C08119
:101F8000D1816D917C91CE01840F951F0E940C1D13
:101F90009C01009719F42FEF3FEF02C02C1B3D0B63
:101FA000C901DF91CF91089540E050E00E94B60F43
:101FB0000895CF93DF93FC018481958148175907D9
:101FC00058F4C081D181CE01840F951F70E00E942A
:101FD000C91C9C01009719F42FEF3FEF02C02C1B86
:101FE0003D0BC901DF91CF91089540E050E00E9480
:101FF000D90F0895DC01FB0114962D913C911597A2
:10200000848195812817390711F080E00895608157
:1020100071818D919C910E94D41C9C0180E0232BA6
:1020200009F481E00895FC01DB01248135811496D7
:102030008D919C9115972817390710F480E0089529
:10204000281B390B808191816D917C91820F931FA8
:102050000E94D41C9C0180E0232B09F481E00895A8
:10206000DC01FB01608171818D919C910E94D41CE7
:10207000292F332727FD3095209530952227330FC0
:10208000221F3327C9010895DC01FB0160817181A2
:102090008D919C910E94D41C40E050E018161906C6
:1020A00014F041E050E0CA010895DC01FB016081B9
:1020B00071818D919C910E94D41C40E050E01816D3
:1020C000190614F441E050E0CA010895DC01FB0157
:1020D000608171818D919C910E94D41C292F33279E
:1020E00027FD30952227330F221F3327C90108957A
:1020F000DC01FB0114962D913C911597848195810B
:102100002817390751F4608171818D919C910E944B
:10211000D41C9C0180E0232B09F081E090E008951D
:10212000DC01FB0114962D913C91159784819581DA
:102130002817390711F080E00BC0608171818D9103
:102140009C910E94D41C9C0180E0232B09F481E027
:1021500090E00895FC01DB016D917C91808191817B
:102160000E94D41C08950F931F93CF93DF93EC012B
:102170008B01FB01648175818C819D81680F791FC2
:102180007D836C838A819B8186179707B8F46F5F84
:102190007F4F888199810E94A81B4C815D810097A7
:1021A00029F0998388835B834A8308C0F80184817E
:1021B0009581481B590B5D834C8307C0F8016081F2
:1021C0007181888199810E94BE1CCE01DF91CF91DF
:1021D0001F910F9108950E94B3100895CF93DF933C
:1021E000EC01CB017B836A8301960E94A31A998339
:1021F0008883009721F41B821A821D821C82DF9142
:10220000CF9108950F931F93CF93DF93EC018B0130
:102210008617970709F1FB01248135818C819D8107
:102220008217930750F4888199810E94501BF8010E
:1022300064817581CE010E94EE10288139812115BB
:10224000310551F0F801848195819D838C836081F3
:102250007181C9010E94DD1CCE01DF91CF911F91D8
:102260000F9108951F93CF93DF93EC01162F81E018
:1022700090E09D838C83CE0161E070E00E94EE10BF
:10228000E881F981309721F01083E881F98111828A
:10229000DF91CF911F9108951F93CF93DF93EC01AE
:1022A000162F81E090E09D838C83CE0161E070E089
:1022B0000E94EE10E881F981309721F01083E881C7
:1022C000F9811182DF91CF911F9108951F93CF93D0
:1022D000DF93EC01162F81E090E09D838C83CE018B
:1022E00061E070E00E94EE10E881F981309721F002
:1022F0001083E881F9811182DF91CF911F910895B8
:102300001F93CF93DF93EC01162F81E090E09D8324
:102310008C83CE0161E070E00E94EE10E881F981CB
:10232000309721F01083E881F9811182DF91CF91FC
:102330001F9108950F931F93CF93DF938C01EB01AF
:102340006C817D81FC01758364830E94EE10F8012D
:1023500080819181009721F0688179810E94DD1C44
:10236000DF91CF911F910F9108950F931F93CF93FA
:10237000DF938C01EB016C817D81FC0175836483AB
:102380000E94EE10F80180819181009721F0688110
:1023900079810E94DD1CDF91CF911F910F910895EB
:1023A000EF92FF920F931F93DF93CF93CDB7DEB7DA
:1023B000A1970FB6F894DEBF0FBECDBF8C01CB0145
:1023C000BA017E010894E11CF11CA7012AE030E06B
:1023D0000E94901DF70101900020E9F73197EE1956
:1023E000FF09D8011596FC93EE931497C801BF011D
:1023F0000E94EE10F80180819181009719F0B701D9
:102400000E94DD1CA1960FB6F894DEBF0FBECDBFB3
:10241000CF91DF911F910F91FF90EF900895EF9270
:10242000FF920F931F93DF93CF93CDB7DEB7A197A2
:102430000FB6F894DEBF0FBECDBF8C01CB01BA0141
:102440007E010894E11CF11CA7012AE030E00E9403
:10245000901DF70101900020E9F73197EE19FF096F
:10246000D8011596FC93EE931497C801BF010E9402
:10247000EE10F80180819181009719F0B7010E9458
:10248000DD1CA1960FB6F894DEBF0FBECDBFCF9175
:10249000DF911F910F91FF90EF900895EF92FF92BF
:1024A0000F931F93DF93CF93CDB7DEB7A1970FB6EE
:1024B000F894DEBF0FBECDBF8C019A0180E090E0A2
:1024C0007E010894E11CF11CA7010E94901DF701F8
:1024D00001900020E9F73197EE19FF09D801159610
:1024E000FC93EE931497C801BF010E94EE10F8010F
:1024F00080819181009719F0B7010E94DD1CA1969F
:102500000FB6F894DEBF0FBECDBFCF91DF911F9104
:102510000F91FF90EF900895EF92FF920F931F930A
:10252000DF93CF93CDB7DEB7A1970FB6F894DEBF98
:102530000FBECDBF8C019A0180E090E07E0108942F
:10254000E11CF11CA7010E94901DF70101900020E1
:10255000E9F73197EE19FF09D8011596FC93EE9330
:102560001497C801BF010E94EE10F801808191818B
:10257000009719F0B7010E94DD1CA1960FB6F894E0
:10258000DEBF0FBECDBFCF91DF911F910F91FF90A6
:10259000EF9008950F931F93CF93DF938C01EB017E
:1025A0006115710511F4C4E8D2E0FE01019000202C
:1025B000E9F73197EC1BFD0BD8011596FC93EE93D0
:1025C0001497C801BF010E94EE10F801808191812B
:1025D000009719F0BE010E94DD1CDF91CF911F9181
:1025E0000F910895AF92BF92CF92DF92EF92FF9238
:1025F0000F931F93CF93DF93B82EA92E6B01C82F93
:10260000D92FFB0160817181CE010E94CA12EE2494
:10261000FF240EC0088119810E0D1F1DF801808155
:1026200090E00E94AD1CF80180830894E11CF11C2D
:10263000F60184819581E816F90660F38B2D9A2DB9
:10264000DF91CF911F910F91FF90EF90DF90CF908E
:10265000BF90AF900895AF92BF92CF92DF92EF926A
:10266000FF920F931F93CF93DF93B82EA92E6B0188
:10267000C82FD92FFB0160817181CE010E94CA123F
:10268000EE24FF240EC0088119810E0D1F1DF801D4
:10269000808190E00E94A51CF80180830894E11CD1
:1026A000F11CF60184819581E816F90660F38B2D03
:1026B0009A2DDF91CF911F910F91FF90EF90DF90B6
:1026C000CF90BF90AF900895EF92FF920F931F931A
:1026D000DF93CF93CDB7DEB72C970FB6F894DEBF5C
:1026E0000FBECDBFFC017B018617970711F401E0F7
:1026F00029C024813581DB0114968D919C91159719
:102700002817390711F000E01DC0CE010196BF0166
:102710000E942B1309811A81CE010796B7010E94EE
:102720002B136F817885C8010E94D41C00E00097AC
:1027300009F401E0CE0107960E94380FCE01019600
:102740000E94380F802F2C960FB6F894DEBF0FBE74
:10275000CDBFCF91DF911F910F91FF90EF90089522
:10276000CF92DF92EF92FF921F93CF93DF936C0192
:102770007B01B9012417350710F4BA01A901D7016B
:1027800014968D919C911597EB018617970708F485
:10279000EC01D701ED91FC911197EC0FFD1F108119
:1027A00010826D917C91640F751FC6010E94CA1240
:1027B000D701ED91FC91EC0FFD1F1083C601DF9155
:1027C000CF911F91FF90EF90DF90CF9008950F93DE
:1027D0001F938C01FB01248135810E94B013C80135
:1027E0001F910F9108958F929F92AF92BF92CF92B7
:1027F000DF92EF92FF920F931F93DF93CF9300D05E
:1028000000D000D0CDB7DEB75C016B01DB011496C0
:102810008D919C9115970097A1F101974817590741
:1028200080F1F501848195814817590750F5ED91A4
:10283000FC9100817A014E010894811C911C1FC0FB
:10284000D501ED91FC91EE0DFF1D80818017A1F463
:10285000F601248135812E0D3F1DC401B501A7016C
:102860000E94B013C401B6010E94FA0F182FC401D0
:102870000E94380F112341F40894E108F108F7FE93
:10288000DFCFEE24EA94FE2CC70126960FB6F8940B
:10289000DEBF0FBECDBFCF91DF911F910F91FF9093
:1028A000EF90DF90CF90BF90AF909F908F90089562
:1028B000FC01DB014481558114968D919C91159703
:1028C000481B590BCF010E94F3130895AF92BF929A
:1028D000CF92DF92EF92FF920F931F93DF93CF93EC
:1028E00000D000D000D0CDB7DEB75C018B01DB019A
:1028F0006D917C916115710521F4B8010E949A11C6
:102900003EC0CE0101960E94CA12F801E480F58013
:10291000CC24DD240EC0D801ED91FC91EC0DFD1D01
:10292000808190E00E949D1C892B31F00894C11C8D
:10293000D11CCE14DF0478F3ED80FE800BC0D801EB
:10294000ED91FC91EE0DFF1D808190E00E949D1C99
:10295000892B31F00894E108F108CE14DF0478F3F4
:102960000894E11CF11CC5018E010F5F1F4FB801D7
:10297000A60197010E94B013C8010E94380FC5013B
:1029800026960FB6F894DEBF0FBECDBFCF91DF9174
:102990001F910F91FF90EF90DF90CF90BF90AF907D
:1029A00008952F923F924F925F926F927F928F92F3
:1029B0009F92AF92BF92CF92DF92EF92FF920F93CE
:1029C0001F93DF93CF93CDB7DEB768970FB6F89418
:1029D000DEBF0FBECDBF3C01FB012A0119016081A2
:1029E00071816115710521F4BF010E949A115AC0CD
:1029F0007E010894E11CF11CC7010E94CA128E01DD
:102A0000095F1F4FC80164E872E00E94CA12D02E0D
:102A1000C12E3DE0832E912C8C0E9D1E23E1A22E13
:102A2000B12CAC0EBD1E24C0C401B70140E050E083
:102A300098010E94B0138D2D9C2DB4010E94B310FB
:102A4000C4010E94380F8D2D9C2DB1010E94B3103E
:102A5000F20144815581400F511FC501B7010E9409
:102A6000E713C701B5010E940211C5010E94380F8A
:102A7000C701B2010E94D40F8C01FFEF8F3F9F0767
:102A800099F68D2D9C2DB7010E94B310C3016D2DB9
:102A90007C2D0E949A118D2D9C2D0E94380FC7010C
:102AA0000E94380FC30168960FB6F894DEBF0FBEC0
:102AB000CDBFCF91DF911F910F91FF90EF90DF90ED
:102AC000CF90BF90AF909F908F907F906F905F90CE
:102AD0004F903F902F900895EF92FF920F931F9386
:102AE000DF93CF9300D000D000D0CDB7DEB77C010C
:102AF000FB01142F022F608171816115710521F492
:102B0000BF010E949A1119C0CE0101960E94CA12FB
:102B100089819A8101C00083612F70E00E94C91CE5
:102B2000FC010097C1F7C7018E010F5F1F4FB8016D
:102B30000E949A11C8010E94380FC70126960FB64D
:102B4000F894DEBF0FBECDBFCF91DF911F910F91E3
:102B5000FF90EF9008950F931F93CF93DF938C0115
:102B6000EB016115710511F4C4E8D2E0FE0101909A
:102B70000020E9F73197EC1BFD0BD8011596FC936B
:102B8000EE931497C801BF010E94EE10F8018081F6
:102B90009181009719F0BE010E94DD1CDF91CF9159
:102BA0001F910F910895EF92FF920F931F93DF9360
:102BB000CF93CDB7DEB7A1970FB6F894DEBF0FBEA7
:102BC000CDBF8C01CB01BA017E010894E11CF11C40
:102BD000A7010E94471DF70101900020E9F73197F6
:102BE000EE19FF09D8011596FC93EE931497C801CE
:102BF000BF010E94EE10F80180819181009719F0C9
:102C0000B7010E94DD1CA1960FB6F894DEBF0FBE7F
:102C1000CDBFCF91DF911F910F91FF90EF9008955D
:102C2000EF92FF920F931F93DF93CF93CDB7DEB751
:102C3000A1970FB6F894DEBF0FBECDBF8C01CB01BC
:102C4000BA017E010894E11CF11CA7010E94471DF6
:102C5000F70101900020E9F73197EE19FF09D8013B
:102C60001596FC93EE931497C801BF010E94EE10D5
:102C7000F80180819181009719F0B7010E94DD1C55
:102C8000A1960FB6F894DEBF0FBECDBFCF91DF91F6
:102C90001F910F91FF90EF900895EF92FF920F9385
:102CA0001F93DF93CF93CDB7DEB7A1970FB6F894FC
:102CB000DEBF0FBECDBF8C01CB017E010894E11CAD
:102CC000F11CB7010E94261DF70101900020E9F7D1
:102CD0003197EE19FF09D8011596FC93EE931497DE
:102CE000C801BF010E94EE10F80180819181009718
:102CF00019F0B7010E94DD1CA1960FB6F894DEBF53
:102D00000FBECDBFCF91DF911F910F91FF90EF903C
:102D10000895EF92FF920F931F93DF93CF93CDB758
:102D2000DEB7A1970FB6F894DEBF0FBECDBF8C0102
:102D3000CB017E010894E11CF11CB7010E94261D05
:102D4000F70101900020E9F73197EE19FF09D8014A
:102D50001596FC93EE931497C801BF010E94EE10E4
:102D6000F80180819181009719F0B7010E94DD1C64
:102D7000A1960FB6F894DEBF0FBECDBFCF91DF9105
:102D80001F910F91FF90EF9008951F920F920FB631
:102D90000F9211242F933F938F939F93AF93BF93E1
:102DA00080915A0390915B03A0915C03B0915D0305
:102DB00030915E030196A11DB11D232F2D5F2D378C
:102DC00020F02D570196A11DB11D20935E03809325
:102DD0005A0390935B03A0935C03B0935D038091CF
:102DE000560390915703A0915803B091590301964F
:102DF000A11DB11D8093560390935703A0935803D0
:102E0000B0935903BF91AF919F918F913F912F91B3
:102E10000F900FBE0F901F9018958FB7F8942091C8
:102E20005A0330915B0340915C0350915D038FBF67
:102E3000B901CA0108959FB7F894209156033091C3
:102E40005703409158035091590386B5A89B06C07B
:102E50008F3F21F02F5F3F4F4F4F5F4F9FBF542F4A
:102E6000432F322F2227280F311D411D511D82E093
:102E7000220F331F441F551F8A95D1F7B901CA018C
:102E80000895EF92FF920F931F93CF93DF937B01EF
:102E90008C010E941B17EB010EC00E941B176C1BBC
:102EA0007D0B685E7340C8F30894E108F1080109DE
:102EB0001109C851DC4FE114F1040105110569F74E
:102EC000DF91CF911F910F91FF90EF90089501979F
:102ED00039F0880F991F880F991F02970197F1F712
:102EE0000895789484B5826084BD84B5816084BD82
:102EF00085B5826085BD85B5816085BDEEE6F0E073
:102F0000808181608083E1E8F0E0108280818260CE
:102F10008083808181608083E0E8F0E0808181604F
:102F20008083E1EBF0E0808184608083E0EBF0E07F
:102F3000808181608083EAE7F0E080818460808323
:102F400080818260808380818160808380818068CD
:102F500080831092C1000895482F50E0CA0186571F
:102F60009D4FFC0124914A585D4FFA0184918823BA
:102F7000C1F0E82FF0E0EE0FFF1FE85AFD4FA591DA
:102F8000B491662341F49FB7F8948C9120958223E5
:102F90008C939FBF08959FB7F8948C91822B8C934C
:102FA0009FBF0895833071F0843028F48130A1F000
:102FB000823021F514C08630B1F08730D1F08430F2
:102FC000E9F404C0809180008F7703C08091800075
:102FD0008F7D80938000089584B58F7702C084B57B
:102FE0008F7D84BD08958091B0008F778093B0006D
:102FF00008958091B0008F7D8093B0000895FF9276
:103000000F931F93F62E482F50E0CA0182569D4F12
:10301000FC012491CA0186579D4FFC0114914A5826
:103020005D4FFA0104910023D9F0222319F0822F79
:103030000E94D217E02FF0E0EE0FFF1FEE59FD4F78
:10304000A591B491FF2031F49FB7F8948C9110951D
:10305000812304C09FB7F8948C91812B8C939FBFE0
:103060001F910F91FF9008950F931F93482F50E0E9
:10307000CA0182569D4FFC012491CA0186579D4F7B
:10308000FC0104914A585D4FFA011491112319F47F
:1030900020E030E015C0222319F0822F0E94D217C1
:1030A000812F90E0880F991F84599D4FFC01A591B5
:1030B000B4918C9120E030E0802311F021E030E0E9
:1030C000C9011F910F9108955058BB27AA270ED010
:1030D00075C166D130F06BD120F031F49F3F11F40F
:1030E0001EF45BC10EF4E095E7FB51C1E92F77D1E7
:1030F00080F3BA17620773078407950718F071F415
:103100009EF58FC10EF4E0950B2EBA2FA02D0B016A
:10311000B90190010C01CA01A0011124FF27591B1C
:1031200099F0593F50F4503E68F11A16F040A22F22
:10313000232F342F4427585FF3CF46953795279593
:10314000A795F0405395C9F77EF41F16BA0B620B92
:10315000730B840BBAF09150A1F0FF0FBB1F661FD9
:10316000771F881FC2F70EC0BA0F621F731F841F1C
:1031700048F4879577956795B795F7959E3F08F042
:10318000B3CF9395880F08F09927EE0F9795879501
:103190000895D9D008F481E008950CD00FC107D16B
:1031A00040F0FED030F021F45F3F19F0F0C0511133
:1031B00039C1F3C014D198F39923C9F35523B1F35E
:1031C000951B550BBB27AA2762177307840738F096
:1031D0009F5F5F4F220F331F441FAA1FA9F333D0F5
:1031E0000E2E3AF0E0E830D091505040E695001CA9
:1031F000CAF729D0FE2F27D0660F771F881FBB1F65
:10320000261737074807AB07B0E809F0BB0B802D3E
:10321000BF01FF2793585F4F2AF09E3F510568F08A
:10322000B6C000C15F3FECF3983EDCF3869577951E
:103230006795B795F7959F5FC9F7880F911D96958C
:10324000879597F90895E1E0660F771F881FBB1FE8
:10325000621773078407BA0720F0621B730B840B95
:10326000BA0BEE1F88F7E095089504D06894B11169
:10327000D9C00895BCD088F09F5790F0B92F9927F6
:10328000B751A0F0D1F0660F771F881F991F1AF071
:10329000BA95C9F712C0B13081F0C3D0B1E008953A
:1032A000C0C0672F782F8827B85F39F0B93FCCF3BB
:1032B000869577956795B395D9F73EF49095809567
:1032C000709561957F4F8F4F9F4F0895E89409C087
:1032D00097FB3EF490958095709561957F4F8F4F49
:1032E0009F4F9923A9F0F92F96E9BB279395F6955F
:1032F000879577956795B795F111F8CFFAF4BB0FDD
:1033000011F460FF1BC06F5F7F4F8F4F9F4F16C040
:10331000882311F096E911C0772321F09EE8872FCA
:10332000762F05C0662371F096E8862F70E060E086
:103330002AF09A95660F771F881FDAF7880F9695FF
:10334000879597F90895990F0008550FAA0BE0E8A3
:10335000FEEF16161706E807F907C0F01216130657
:10336000E407F50798F0621B730B840B950B39F497
:103370000A2661F0232B242B252B21F408950A26FD
:1033800009F4A140A6958FEF811D811D089597F93D
:103390009F6780E870E060E008959FEF80EC0895FB
:1033A00000240A9416161706180609060895002424
:1033B0000A9412161306140605060895092E03949E
:1033C000000C11F4882352F0BB0F40F4BF2B11F412
:1033D00060FF04C06F5F7F4F8F4F9F4F089557FD71
:1033E0009058440F551F59F05F3F71F04795880F73
:1033F00097FB991F61F09F3F79F08795089512160A
:1034000013061406551FF2CF4695F1DF08C01616B5
:1034100017061806991FF1CF869571056105089466
:103420000895E894BB2766277727CB0197F908957D
:103430000BD0C4CFB5DF28F0BADF18F0952309F020
:10344000A6CFABCF1124EECFCADFA0F3959FD1F367
:10345000950F50E0551F629FF001729FBB27F00D42
:10346000B11D639FAA27F00DB11DAA1F649F662797
:10347000B00DA11D661F829F2227B00DA11D621FE6
:10348000739FB00DA11D621F839FA00D611D221FA0
:10349000749F3327A00D611D231F849F600D211D84
:1034A000822F762F6A2F11249F5750408AF0E1F027
:1034B00088234AF0EE0FFF1FBB1F661F771F881F70
:1034C00091505040A9F79E3F510570F060CFAACFB0
:1034D0005F3FECF3983EDCF3869577956795B7955B
:1034E000F795E7959F5FC1F7FE2B880F911D969585
:1034F000879597F90895A1E21A2EAA1BBB1BFD011F
:103500000DC0AA1FBB1FEE1FFF1FA217B307E407C2
:10351000F50720F0A21BB30BE40BF50B661F771F1A
:10352000881F991F1A9469F76095709580959095FA
:103530009B01AC01BD01CF010895EE0FFF1F059067
:10354000F491E02D0994CF93DF93BC018230910573
:1035500010F462E070E0A0916103B0916203ED01AC
:10356000E0E0F0E040E050E021C0888199818617DA
:10357000970769F48A819B81309719F0938382833E
:1035800004C09093620380936103FE0134C0681706
:10359000790738F44115510519F08417950708F497
:1035A000AC01FE018A819B819C01E9012097E9F62B
:1035B00041155105A9F1CA01861B970B049708F420
:1035C000BA01E0E0F0E02AC08D919C911197841738
:1035D0009507F9F46417750781F412968D919C9103
:1035E0001397309719F09383828304C090936203FA
:1035F00080936103FD0132964FC0CA01861B970B71
:10360000FD01E80FF91F6193719302978D939C93CD
:1036100043C0FD01828193819C01D9011097A1F6DD
:1036200080915F0390916003892B41F48091870220
:10363000909188029093600380935F034091890288
:1036400050918A024115510541F44DB75EB7809102
:10365000850290918602481B590B20915F0330919F
:10366000600324173507B0F4CA01821B930B861739
:10367000970780F0AB014E5F5F4F8417950750F0BE
:10368000420F531F5093600340935F03F90161930E
:10369000719302C0E0E0F0E0CF01DF91CF91089597
:1036A000CF93DF93009709F450C0EC0122971B825F
:1036B0001A82A0916103B0916203109709F140E072
:1036C00050E0AC17BD0708F1BB83AA83FE0121912E
:1036D0003191E20FF31FAE17BF0779F48D919C91E2
:1036E0001197280F391F2E5F3F4F39832883129679
:1036F0008D919C9113979B838A834115510571F499
:10370000D0936203C093610320C012968D919C9167
:103710001397AD01009711F0DC01D3CFFA01D383E9
:10372000C28321913191E20FF31FCE17DF0769F4B5
:1037300088819981280F391F2E5F3F4FFA0131830D
:1037400020838A819B8193838283DF91CF91089527
:10375000A0E0B0E0EEEAFBE10C94E21D8C010097E2
:1037600029F4CB010E94A31A8C01BAC09EEFE92E66
:103770009FEFF92EE00EF11E5801A60EB71EAE14F3
:10378000BF0408F4ABC08EEF882E8FEF982E8A0C02
:103790009B1CE7014881598146175707B8F045300F
:1037A000510508F49DC0CA0104978617970708F4CD
:1037B00097C042505040461B570BF4015183408341
:1037C00079836883C5010E94501B8AC06B01C41AAB
:1037D000D50AE0916103F0916203A0E0B0E0C0E09F
:1037E000D0E042C0E815F905A1F5208131812C1502
:1037F0003D0578F1C90102968C159D05A8F04E5F34
:103800005F4F420F531FE701598348832281338161
:10381000109729F013963C932E93129761C0309322
:103820006203209361035CC0225030402C193D0993
:1038300031832083109729F01396FC93EE9312970F
:1038400004C0F0936203E0936103F7017183608326
:1038500047C080819181C817D90708F4EC01DF01C6
:10386000828193819C01F901309709F0BBCF400F11
:10387000511F80915F039091600384179507E9F4CD
:10388000C617D707D0F42091890230918A022115FA
:10389000310541F42DB73EB78091850290918602A3
:1038A000281B390BA216B306C8F4B0926003A0928D
:1038B0005F03E7017983688313C0CB010E94A31AD9
:1038C000EC01009759F0F70140815181B8010E9445
:1038D000B51CC8010E94501B8E0102C000E010E020
:1038E000C801CDB7DEB7ECE00C94FE1D1F93FC01C0
:1038F00099278827BC01E89411911032E9F3193017
:1039000010F01E30C8F31B3251F01D3249F4689498
:1039100006C00E947B1D610F711D811D911D1191BB
:1039200010531A30B0F33EF49095809570956195E0
:103930007F4F8F4F9F4F1F910895911116C1803275
:1039400019F089508550D0F7089591110895815448
:103950008A5108F4805E855A089591110895815620
:103960008A5108F4805285580895FB01DC0102C099
:1039700001900D9241505040D8F70895FB01DC01B1
:103980000D900020E9F7119701900D920020E1F7CA
:103990000895FC018191861721F08823D9F7992792
:1039A00008953197CF010895FB01DC018D910190BD
:1039B00080190110D9F3990B0895FB01DC010190E6
:1039C0000D920020E1F70895FB01DC0141505040C9
:1039D00030F08D910190801919F40020B9F7881BFF
:1039E000990B0895FB01DC014150504048F00190D3
:1039F0000D920020C9F701C01D9241505040E0F7E0
:103A00000895FC0181E090E00190061609F4CF01D1
:103A10000020D1F701970895FB0151915523A9F09A
:103A2000BF01DC014D9145174111E1F759F4CD017A
:103A30000190002049F04D9140154111C9F3FB015F
:103A40004111EFCF81E090E001970895FB019F01C4
:103A5000E8944230C4F04532B4F44A3029F497FB7C
:103A60001EF4909581959F4F642F77270E94C81D63
:103A7000805D8A330CF0895D8193CB010097A1F7BB
:103A800016F45DE251931082C9010C94B81DFA013D
:103A9000CF93FF93EF93223044F1253234F5C22FB8
:103AA000E894CA3049F497FB3EF490958095709560
:103AB00061957F4F8F4F9F4F2C2F332744275527DA
:103AC000FF93EF930E947B1AEF91FF91605D6A3341
:103AD0000CF0695D6193B901CA016050704080408B
:103AE000904051F716F4CDE2C19310828F919F91CF
:103AF000CF910C94B81D592F482F372F262F660FC2
:103B0000771F881F991F660F771F881F991F620FE5
:103B1000731F841F951F660F771F881F991F0895B5
:103B2000FA01CF93FF93EF932230CCF02532BCF40F
:103B3000C22F2C2F332744275527FF93EF930E9442
:103B40007B1AEF91FF91605D6A330CF0695D6193C0
:103B5000B901CA01605070408040904051F7108216
:103B60008F919F91CF910C94B81D99278827089524
:103B7000DC01FC01672F71917723E1F7329704C0D4
:103B80007C916D9370836291AE17BF07C8F308955F
:103B9000AA1BBB1B51E107C0AA1FBB1FA617B70773
:103BA00010F0A61BB70B881F991F5A95A9F780958F
:103BB0009095BC01CD0108952F923F924F925F9254
:103BC0006F927F928F929F92AF92BF92CF92DF922D
:103BD000EF92FF920F931F93CF93DF93CDB7DEB792
:103BE000CA1BDB0B0FB6F894DEBF0FBECDBF099426
:103BF0002A88398848885F846E847D848C849B847D
:103C0000AA84B984C884DF80EE80FD800C811B818A
:103C1000AA81B981CE0FD11D0FB6F894DEBF0FBEB9
:0A3C2000CDBFED010895F894FFCF29
:103C2A0046756C6C7920656E636F646564202D201F
:103C3A007374617274696E67206661646500496EA7
:103C4A00697469616C697A696E6720494F20706F7F
:103C5A007274732E2E2E0054657374696E67204930
:103C6A004F20706F7274732E2E2E00436C65617232
:103C7A00696E6720494F20706F7274732E2E2E0062
:103C8A005072696E74696E67206672616D65206430
:103C9A006174612E2E2E00206672616D6544617416
:103CAA006131313A200054657374696E6720506C33
:103CBA00617965722E2E2E00506C617965722043EF
:103CCA006F6D706C6574652E00436F6D706C6574F2
:103CDA00652E000A000F00E0010A000F001C0250C6
:103CEA00726F6A65637420526F77733A200050725C
:103CFA006F6A65637420436F6C756D6E733A20004A
:103D0A004E756D6265722053657175656E63657374
:103D1A003A200053657175656E63653A20002D2D52
:103D2A004E756D626572204672616D65733A200048
:103D3A002D2D4672616D653A20003A0020283078B0
:103D4A0000290A2D2D2D2D4475726174696F6E3A02
:103D5A002000290A002D2D2D2D4672616D65204403
:103D6A006174613A207B20007B00300020007D20B6
:103D7A00007D3B0000000000980BE50BFD0B3D0B9E
:103D8A00680B4E0B8C0B000000008801E50BFD0B45
:103D9A0088018801880188012E000000000088013E
:0C3DAA00E50BFD0B00200063030000008F
:00000001FF
