:100000000C94F2020C941A030C941A030C941A0325
:100010000C941A030C941A030C941A030C941A03EC
:100020000C941A030C941A030C941A030C941A03DC
:100030000C941A030C941A030C941A030C941A03CC
:100040000C9498280C941A030C941B180C9469189F
:100050000C941A030C941A030C941A030C941A03AC
:100060000C94952C0C941A0300000000003E5B4F8A
:100070005B3E3E6B4F6B3E1C3E7C3E1C183C7E3C08
:10008000181C577D571C1C5E7F5E1C00183C180016
:10009000FFE7C3E7FF0018241800FFE7DBE7FF30A6
:1000A000483A060E2629792926407F050507407F14
:1000B00005253F5A3CE73C5A7F3E1C1C08081C1C87
:1000C0003E7F14227F22145F5F005F5F06097F017D
:1000D0007F006689956A606060606094A2FFA29468
:1000E00008047E040810207E201008082A1C080836
:1000F0001C2A08081E101010100C1E0C1E0C303884
:100100003E3830060E3E0E06000000000000005F84
:1001100000000007000700147F147F14242A7F2AA0
:100120001223130864623649562050000807030062
:10013000001C2241000041221C002A1C7F1C2A08AE
:10014000083E080800807030000808080808000011
:1001500060600020100804023E5149453E00427F85
:10016000400072494949462141494D331814127FD4
:100170001027454545393C4A494931412111090774
:100180003649494936464949291E000014000000F5
:1001900040340000000814224114141414140041C7
:1001A00022140802015909063E415D594E7C121184
:1001B000127C7F494949363E414141227F414141BC
:1001C0003E7F494949417F090909013E4141517337
:1001D0007F0808087F00417F41002040413F017FA8
:1001E000081422417F404040407F021C027F7F0470
:1001F00008107F3E4141413E7F090909063E4151B9
:10020000215E7F09192946264949493203017F01A8
:10021000033F4040403F1F2040201F3F4038403FA9
:10022000631408146303047804036159494D4300BF
:100230007F4141410204081020004141417F0402F6
:10024000010204404040404000030708002054548D
:1002500078407F284444383844444428384444286B
:100260007F385454541800087E090218A4A49C78BE
:100270007F0804047800447D40002040403D007F1A
:100280001028440000417F40007C047804787C08FA
:100290000404783844444438FC18242418182424CE
:1002A00018FC7C08040408485454542404043F44B3
:1002B000243C4040207C1C2040201C3C4030403CE2
:1002C00044281028444C9090907C4464544C440042
:1002D00008364100000077000000413608000201A6
:1002E0000204023C2623263C1EA1A161123A404092
:1002F000207A385454555921555579412154547810
:1003000041215554784020545579400C1E527212A8
:100310003955555559395454545939555454580030
:1003200000457C410002457D420001457C40F029AA
:100330002429F0F0282528F07C54554500205454F9
:100340007C547C0A097F493249494932324848483D
:1003500032324A4848303A4141217A3A4240207884
:10036000009DA0A07D39444444393D4040403D3C7F
:1003700024FF2424487E4943662B2FFC2F2BFF09A2
:1003800029F620C0887E0903205454794100004496
:100390007D413048484A32384040227A007A0A0A81
:1003A000727D0D19317D2629292F282629292926F4
:1003B00030484D4020380808080808080808382F39
:1003C00010C8ACBA2F102834FA00007B00000814C3
:1003D0002A142222142A1408AA005500AAAA55AAEF
:1003E00055AA000000FF00101010FF00141414FFA5
:1003F000001010FF00FF1010F010F0141414FC0097
:100400001414F700FF0000FF00FF1414F404FC14A0
:100410001417101F10101F101F1414141F00101099
:1004200010F0000000001F101010101F101010100E
:10043000F010000000FF101010101010101010FF2E
:1004400010000000FF140000FF00FF00001F101745
:100450000000FC04F414141710171414F404F4002E
:1004600000FF00F714141414141414F700F71414F4
:1004700014171410101F101F141414F4141010F07B
:1004800010F000001F101F0000001F14000000FCEF
:10049000140000F010F01010FF10FF141414FF14DB
:1004A0001010101F00000000F010FFFFFFFFFFF012
:1004B000F0F0F0F0FFFFFF0000000000FFFF0F0F63
:1004C0000F0F0F38444438447C2A2A3E147E02021F
:1004D0000606027E027E0263554941633844443C6D
:1004E00004407E201E2006027E020299A5E7A599FF
:1004F0001C2A492A1C4C7201724C304A4D4D303036
:1005000048784830BC625A463D3E494949007E0120
:1005100001017E2A2A2A2A2A44445F444440514A3F
:10052000444040444A51400000FF0103E080FF0086
:100530000008086B6B083612362436060F090F06C2
:10054000000018180000001010003040FF010100EA
:100550001F01011E00191D1712003C3C3C3C00000D
:1005600000000000C001C001C003E0F3E0FEF87E1F
:10057000FF339F1FFC0D701BA03FE03FF07CF0702D
:1005800070003000000000240027002A0000000056
:1005900000250028002B0000000000230026002971
:1005A000000404040404040404020202020202031C
:1005B0000303030303010204081020408001020426
:1005C00008102001020408102000000007000201AA
:1005D00000000304060000000000000000001611E7
:1005E000511BED2A11241FBECFEFD8E0DEBFCDBFD7
:1005F00015E0A0E0B1E0E8EAF9E602C005900D924E
:10060000A03AB107D9F717E0A0EAB5E001C01D9202
:10061000A534B107E1F715E0C4EED5E004C0229798
:10062000FE010E94F430CE3DD107C9F70E949E160C
:100630000C94D2340C940000FC01758364837187A0
:1006400060875783468353874287158A15861486A9
:100650001786168621E0248B8FEF9FEF938B828B7A
:10066000918B808B268B08952F923F924F925F92B1
:100670006F927F928F929F92AF92BF92CF92DF92B2
:10068000EF92FF920F931F93DF93CF93CDB7DEB717
:1006900028970FB6F894DEBF0FBECDBF98878F8323
:1006A0001B012A017901580121E030E02E193F0990
:1006B0003E832D83C701880F991FAA27BB27A81B3C
:1006C000B90BBA83A983AF81B885ED91FC911197DD
:1006D000A701440D551D0480F581E02DCD01980141
:1006E0000995AF81B885ED91FC911197A2014E1942
:1006F0005F090480F581E02DCD01B10198010995D4
:10070000AF81B885ED91FC911197B701620D731D12
:100710000480F581E02DCD01A20198010995AF81FA
:10072000B885ED91FC911197B1016E197F09048094
:10073000F581E02DCD01A201980109953701E1E095
:10074000F0E0FC83EB83882499249EC02D813E81B8
:1007500037FD0CC008946108710889819A8102965E
:100760009A838983280F391F3E832D830894811C27
:10077000911CAB81BC811296BC83AB83ED81FE8161
:10078000EA0FFB1FFE83ED836401C20CD31C8301BF
:10079000040D151DAF81B885ED91FC911197048072
:1007A000F581E02DCD01B601A801950109957101F2
:1007B000E818F908AF81B885ED91FC911197048094
:1007C000F581E02DCD01B701A801950109958201C0
:1007D00006191709AF81B885ED91FC911197048036
:1007E000F581E02DCD01B601A80195010995AF81F4
:1007F000B885ED91FC9111970480F581E02DCD0134
:10080000B701A801950109956301C20CD31C8401AD
:10081000040D151DAF81B885ED91FC9111970480F1
:10082000F581E02DCD01B601A80195010995710171
:10083000E618F708AF81B885ED91FC911197048017
:10084000F581E02DCD01B701A8019501099582013F
:1008500008191909AF81B885ED91FC9111970480B1
:10086000F581E02DCD01B601A80195010995AF8173
:10087000B885ED91FC9111970480F581E02DCD01B3
:10088000B701A80195010995861497040CF45ECF71
:1008900028960FB6F894DEBF0FBECDBFCF91DF9183
:1008A0001F910F91FF90EF90DF90CF90BF90AF908E
:1008B0009F908F907F906F905F904F903F902F9080
:1008C00008952F923F924F925F926F927F928F92F4
:1008D0009F92AF92BF92CF92DF92EF92FF920F93CF
:1008E0001F93DF93CF93CDB7DEB762970FB6F8941F
:1008F000DEBF0FBECDBF9A8B898B3B014A016701DA
:1009000051E0A52EB12CA21AB30AC901880F991F74
:1009100044275527481B590B58874F83C40101971B
:100920009C838B83DB011197BA83A98314010894FC
:10093000211C311C2B010894411C511C7901E1E060
:10094000F0E0FA87E9871E821D8210E0A80144705A
:1009500050705C874B87C801827090709E878D872E
:10096000D801A870B070B88BAF8701701070B7C095
:10097000B7FC0AC00894E108F108EF81F8853296C7
:10098000F887EF83AE0EBF1E4D815E814F5F5F4FD4
:100990005E834D8389859A8502969A878987AB8580
:1009A000BC85AB2BF1F0A989BA89ED91FC91119727
:1009B000A701480D591D0480F581E02DCD01B2013C
:1009C00096010995A989BA89ED91FC911197B70112
:1009D000660D771D0480F581E02DCD01A101960102
:1009E0000995ED85FE85EF2BF9F0A989BA89ED917E
:1009F000FC911197A4014E195F090480F581E02D47
:100A0000CD01B20196010995A989BA89ED91FC91B0
:100A10001197B701660D771D0480F581E02DCD019A
:100A20004B815C8196010995EF85F889EF2BF9F0F0
:100A3000A989BA89ED91FC911197B3016E197F09CB
:100A40000480F581E02DCD01A10196010995A989C8
:100A5000BA89ED91FC911197A701480D591D0480A9
:100A6000F581E02DCD0169817A8196010995011505
:100A7000110501F1A989BA89ED91FC911197B30192
:100A80006E197F090480F581E02DCD014B815C81D9
:100A900096010995A989BA89ED91FC911197A40154
:100AA0004E195F090480F581E02DCD0169817A81BD
:100AB00096010995E985FA85AE0EBF1E4B815C81D2
:100AC000415050405C834B8389819A8101979A837E
:100AD00089830894211C311C0894411C511CAD8150
:100AE000BE81AE15BF050CF443CF62960FB6F894E5
:100AF000DEBF0FBECDBFCF91DF911F910F91FF9051
:100B0000EF90DF90CF90BF90AF909F908F907F90AD
:100B10006F905F904F903F902F9008952F923F924B
:100B20004F925F926F927F928F929F92AF92BF92FD
:100B3000CF92DF92EF92FF920F931F93DF93CF93A9
:100B4000CDB7DEB72E970FB6F894DEBF0FBECDBF80
:100B50009E878D871B015E834D83A701260171E06F
:100B6000C72ED12CC21AD30AC901880F991F662734
:100B70007727681B790B7A8369836D807E80089460
:100B80006108710883E0882E912C8E0C9F1C7901DE
:100B900081E090E09C838B83AA24BB2410E0D801E1
:100BA000A170B070B887AF83FA013196FA87E987F0
:100BB000B801627070707C876B8777C0D7FC0AC001
:100BC0000894E108F10889819A8102969A838983C1
:100BD000C80ED91E0894A11CB11CAB81BC81129611
:100BE000BC83AB83EF81F885EF2B41F1AD85BE85EA
:100BF000ED91FC911197B501620D731D4D815E81E0
:100C00004E195F099701220F331F89859A85280F96
:100C1000391F0284F385E02DCD0182010995AD8550
:100C2000BE85ED91FC911197B701620D731D028491
:100C3000F385E02DCD01A30194010995EB85FC8599
:100C4000EF2B41F1AD85BE85ED91FC911197B1017E
:100C50006A197B094D815E814E195F099701220F48
:100C6000331F89859A85280F391F0284F385E02D6B
:100C7000CD0182010995AD85BE85ED91FC9111975D
:100C8000B1016E197F090284F385E02DCD01A30126
:100C900094010995EB81FC81CE0EDF1E089461085A
:100CA000710862E070E0860E971EAE14BF040CF46B
:100CB00085CF2E960FB6F894DEBF0FBECDBFCF9175
:100CC000DF911F910F91FF90EF90DF90CF90BF9039
:100CD000AF909F908F907F906F905F904F903F90DC
:100CE0002F9008956F927F928F929F92AF92BF92B2
:100CF000CF92DF92EF92FF920F931F937C014B01F3
:100D00003A0159016801DC01ED91FC91421B530B42
:100D1000220F331F2F5F3F4F0284F385E02D09958B
:100D2000C701B401A301950103E0EE24FF240E9452
:100D30008E051F910F91FF90EF90DF90CF90BF90A5
:100D4000AF909F908F907F906F9008952F923F92D9
:100D50004F925F926F927F928F929F92AF92BF92CB
:100D6000CF92DF92EF92FF920F931F93DF93CF9377
:100D700000D000D0CDB7DEB73C017C836B836A0125
:100D80005901FA82E982222433249801241B350B6D
:100D900037FF03C0309521953F4FC5014B815C81E2
:100DA000841B950B97FF03C0909581959F4F8217E9
:100DB00093075CF481E0282E312CC601CB80DC80C7
:100DC0009C838B83C80185015C018B819C81A81663
:100DD000B90644F4C501AB80BC809C838B83C801F9
:100DE00086016C012501AB81BC814A1A5B0A78013E
:100DF000EC18FD08F7FE04C0F094E194F108F394B8
:100E0000C016D10624F088248A94982C03C0B1E03F
:100E10008B2E912CC20162E070E00E948E308B011B
:100E200025C0D301ED91FC912114310441F00480DF
:100E3000F581E02DC301B6014B815C8107C00480C0
:100E4000F581E02DC3016B817C81A60129813A8166
:100E500009950E191F0917FF04C0C80CD91C040DF1
:100E6000151DEB81FC813196FC83EB834B815C810A
:100E7000A416B506B4F60F900F900F900F90CF9177
:100E8000DF911F910F91FF90EF90DF90CF90BF9077
:100E9000AF909F908F907F906F905F904F903F901A
:100EA0002F9008954F925F926F927F928F929F92B0
:100EB000AF92BF92CF92DF92EF92FF920F931F9368
:100EC0006C015B014A0139012801DC01ED91FC91C3
:100ED0000484F585E02D87010995D601ED91FC91FB
:100EE000A40141505040440D551D0484F585E02D6A
:100EF000C601B50193010995D601ED91FC910284DB
:100F0000F385E02DC601B501A40192010995D60132
:100F1000ED91FC910894A108B108A60CB71C0284BD
:100F2000F385E02DC601B501A401920109951F9139
:100F30000F91FF90EF90DF90CF90BF90AF909F9078
:100F40008F907F906F905F904F900895CF92DF9237
:100F5000EF92FF920F931F93DC016B017801ED91EB
:100F6000FC918A0101501040020F131F0084F1858B
:100F7000E02D960109951F910F91FF90EF90DF9062
:100F8000CF900895CF92DF92EF92FF920F931F932D
:100F9000DC016A01C9017801ED91FC9111979B0177
:100FA00021503040280F391F0084F185E02DCD01FC
:100FB000860109951F910F91FF90EF90DF90CF90E0
:100FC00008956F927F928F929F92AF92BF92CF922D
:100FD000DF92EF92FF920F931F93CF93DF935C0109
:100FE0003A0169014801EB01C60ED71E0DC0D501BB
:100FF000ED91FC910284F385E02DC501BE01A301B2
:101000009401870109952196CC15DD0584F3DF91C4
:10101000CF911F910F91FF90EF90DF90CF90BF90F5
:10102000AF909F908F907F906F900895EF92FF9276
:101030000F931F93FC017B01A081B1812085318535
:101040000285138550960D90BC91A02D60E070E054
:1010500040E050E0FD0109951F910F91FF90EF9046
:1010600008952F923F924F925F926F927F928F924C
:101070009F92AF92BF92CF92DF92EF92FF920F9327
:101080001F93DF93CF93CDB7DEB728970FB6F894B1
:10109000DEBF0FBECDBF5C0178876F831A014901A7
:1010A0001E830D832701CB018E0D9F1D9C838B8397
:1010B000EE0CFF1CF094E194F108F394D701A20F19
:1010C000B31FBA83A983D501ED91FC910484F58502
:1010D000E02DC5016B817C8129813A8186010995CA
:1010E0006D807E80620C731C089461087108D501C4
:1010F000ED91FC910484F585E02DC5016B817C8127
:10110000A30129813A810995240C351CED81FE81CA
:10111000EE0EFF1ED501ED91FC910284F385E02DCA
:10112000C5016F817885A10197010995EF81F88547
:101130008E0E9F1E089481089108D501ED91FC91B7
:101140000284F385E02DC501B401A1019701099541
:10115000C5016B817C81A101920101E076010E94B1
:10116000610484189508C501B401A101920102E04F
:101170000E94610464187508C501B401A3019201BD
:1011800004E00E946104C5016B817C81A30192018E
:1011900008E00E94610428960FB6F894DEBF0FBEE7
:1011A000CDBFCF91DF911F910F91FF90EF90DF9016
:1011B000CF90BF90AF909F908F907F906F905F90F7
:1011C0004F903F902F9008952F923F924F925F92B1
:1011D0006F927F928F929F92AF92BF92CF92DF9247
:1011E000EF92FF920F931F93DF93CF9300D000D025
:1011F00000D0CDB7DEB72C015B015E834D833C830D
:101200002B83480137011601C701860F971F9A8368
:1012100089836701CC0CDD1CD094C194D108D39490
:10122000D201ED91FC912C0D3D1D0088F189E02D3E
:10123000C20169817A8171010995ED81FE81E60D16
:10124000F71DFE83ED830894810891088C0C9D1C8A
:101250000894A108B1088B819C81A80EB91EA6181C
:10126000B708C201B501AF01930101E0740161014A
:101270000E948E05C20169817A814D815E81930150
:1012800002E00E948E0526960FB6F894DEBF0FBED0
:10129000CDBFCF91DF911F910F91FF90EF90DF9025
:1012A000CF90BF90AF909F908F907F906F905F9006
:1012B0004F903F902F9008952F923F924F925F92C0
:1012C0006F927F928F929F92AF92BF92CF92DF9256
:1012D000EF92FF920F931F93DF93CF9300D000D034
:1012E000CDB7DEB74C017C836B835A8349833901C8
:1012F00028011701DC01ED91FC910084F185E02DBE
:1013000075010995D401ED91FC910084F185E02DE2
:10131000C401B301A201910186010995D401ED91A7
:10132000FC910084F185E02DC401B101A6012B815F
:101330003C8109811A8109950F900F900F900F90B1
:10134000CF91DF911F910F91FF90EF90DF90CF90A1
:10135000BF90AF909F908F907F906F905F904F90D5
:101360003F902F9008952F923F924F925F926F92ED
:101370007F928F929F92AF92BF92CF92DF92EF9225
:10138000FF920F931F93DF93CF93CDB7DEB766978E
:101390000FB6F894DEBF0FBECDBF988B8F872B01A1
:1013A0003A0149011C8B0B8B1601BA8AA98A0417D2
:1013B00015073CF44B0129018B899C895C8B4B8B75
:1013C0003C012B893C892216330644F4C701740181
:1013D0004C01C1012B883C889C8B8B8B4B895C8991
:1013E0004615570544F4C40142012C018B899C89A0
:1013F0007C8A6B8A3C016214730449F58414950459
:101400001CF4B401920108C0481459041CF4B20140
:10141000940102C0B2019201E616F70614F4B70176
:1014200004C02E153F050CF49701AF85B889ED91E6
:10143000FC9111972F5F3F4F261B370B0484F585D6
:10144000E02DCD01A30109891A890995BEC0F401D7
:10145000E419F509FC87EB872B893C8926193709A4
:101460003A872987A7014419550958874F83C10135
:10147000861997099E838D83D701A819B909BC8362
:10148000AB83F1012B893C89E21BF30BFA83E983DF
:101490002215330519F43E872D8706C04B895C89D8
:1014A000415050405E874D877301AA24BB24CC2451
:1014B000DD2434C0C50169857A850E948E309B0188
:1014C000240D351DC6016D817E810E948E30DB01A9
:1014D000A40DB51DA217B3071CF4CD01D9019C01C1
:1014E0008B859C85A80EB91EEF81F885CE0EDF1E78
:1014F000EF85F889808191811196A21BB30BFC01C5
:101500000484F585E02D8F859889B901A7019D0197
:1015100009891A8909950894E11CF11C2D853E85DD
:101520002E153F053CF6C7014B895C89841B950B42
:10153000AB81BC818A9F60018B9FD00C9A9FD00C9D
:101540001124C70186199709EF81F8858E9F300114
:101550008F9F700C9E9F700C112434C0C60169814E
:101560007A810E948E309B01280D391DC3016D8147
:101570007E810E948E30DB01A40DB51DA217B3073A
:101580001CF4CD01D9019C014B815C81C40ED51E98
:101590008F819885680E791EEF85F8898081918109
:1015A0001196A21BB30BFC01A484B5848F85988986
:1015B000B901A7019D0109891A89F50109950894C6
:1015C000E11CF11C2E143F044CF666960FB6F894FD
:1015D000DEBF0FBECDBFCF91DF911F910F91FF9066
:1015E000EF90DF90CF90BF90AF909F908F907F90C3
:1015F0006F905F904F903F902F9008952F923F9261
:101600004F925F926F927F928F929F92AF92BF9212
:10161000CF92DF92EF92FF920F931F93DF93CF93BE
:10162000CDB7DEB728970FB6F894DEBF0FBECDBF9B
:101630003C017A8369835C834B833E832D8348011D
:1016400017012601C801079668E070E00E948E30FD
:101650008B01EE24FF24CC24DD243EC0EF81F885ED
:1016600073E0F595E7957A95E1F7EC0DFD1D4D8159
:101670005E81E40FF51FE4912E2F30E08F81988575
:1016800087709070A0E8B0E002C0B595A7958A95E4
:10169000E2F72A233B23232B81F0D301ED91FC9128
:1016A00069817A814F815885640F751F0480F581A7
:1016B000E02DC301A501920109958F8198850196BE
:1016C00098878F83AF81B885A815B9053CF2089437
:1016D000E11CF11CC00ED11EE214F3043CF4188688
:1016E0001F82AB80BC80AE0CBF1CECCF28960FB61F
:1016F000F894DEBF0FBECDBFCF91DF911F910F9148
:10170000FF90EF90DF90CF90BF90AF909F908F9021
:101710007F906F905F904F903F902F9008952F9201
:101720003F924F925F926F927F928F929F92AF9271
:10173000BF92CF92DF92EF92FF920F931F93DF93AE
:10174000CF93CDB7DEB72F970FB6F894DEBF0FBE9D
:10175000CDBF5C015E834D8318870F83FA86E986CF
:10176000CB86DC0118968D919C91199768177907A3
:101770000CF0A4C01A968D919C911B97481759079D
:101780000CF09CC0EC2DF0E0FF87EE87CF01880FB6
:10179000991F880F991F8E0F9F1F860F971F18166E
:1017A00019060CF08BC0CF01F3E0880F991FFA9552
:1017B000E1F7840F951F181619060CF07FC085E01D
:1017C000289FA00111245A8349832B011B011C82ED
:1017D0005C81553011F480E005C0E981FA81E85957
:1017E000FF4F84912C863D866D807E8043011B8255
:1017F000C82EDD2480FF1CC0D501ED91FC91BB8576
:10180000B13049F40480F581E02DC501B201A30196
:101810002F81388522C00088F189E02DC5016C85B3
:101820007D85A4012E853F858901EF80F88423C042
:10183000E985FA852F813885E217F307E9F0D501AC
:10184000ED91FC91BB85B13051F40480F581E02D20
:10185000C501B201A30129853A8509950DC000880B
:10186000F189E02DC5016C857D85A4012E853F851C
:101870008901E984FA840995EB81EF5FEB832E857A
:101880003F85820E931E0894611C711CE83021F084
:10189000D594C7948C2DACCF3C813F5F3C834E8563
:1018A0005F85240E351E0894411C511C89819A8144
:1018B00001969A838983363009F08ACF2F960FB626
:1018C000F894DEBF0FBECDBFCF91DF911F910F9176
:1018D000FF90EF90DF90CF90BF90AF909F908F9050
:1018E0007F906F905F904F903F902F900895CF9290
:1018F000EF92FF920F931F93CF93DF93EC01262F6C
:101900006A3061F42C8930E013E0220F331F1A95FE
:10191000E1F78E859F85820F931F37C06D30C9F127
:101920006C857D854E855F8508891989EA88FB88E5
:10193000CC880E948F0B2C8986E0289FB00111244F
:101940008C859D85680F791F7D876C878E8988239C
:1019500001F1422F50E08AEF9FEF9C01429FC001AE
:10196000439F900D529F900D112428853985820F39
:10197000931F861797076CF4B3E0440F551FBA9571
:10198000E1F78E859F85840F951F9F878E871D8623
:101990001C8681E090E0DF91CF911F910F91FF9025
:1019A000EF90CF900895FC0175876487578746872D
:1019B0000895FC01662309F461E0648B0895FC013D
:1019C000718B608B738B628B0895FC01718B608BC4
:1019D000538B428B0895FC01668B0895FC01858929
:1019E0008370858B0895FC016370658B613081F095
:1019F000613028F0623019F0633091F409C08481BD
:101A000095819187808786819781938782870895C2
:101A1000868197819187808784819581938782874A
:101A200008950895FC01808591850895FC018285C3
:101A300093850895EF920F93FC011382128284E044
:101A400091E091838083E48E038F228F418F608F9A
:101A50000F91EF900895EF920F93FC011382128281
:101A600084E091E091838083E48E038F228F418F05
:101A7000608F0F91EF900895FC011382128284E031
:101A800091E0918380838FEF808F848F828F818F0D
:101A9000638F0895FC011382128284E091E09183A8
:101AA00080838FEF808F848F828F818F638F0895E3
:101AB000DC0130E840E050E070E05F96ED91FC9191
:101AC0009097908196968C919697809589238083A4
:101AD000832F90E0862397235D96ED91FC915E978E
:101AE00095962C919597892B21F08081822B80836C
:101AF00004C080812095282320835F96ED91FC917E
:101B00009097808196969C919697892B80833695A5
:101B10004F5F5F4F4830510581F6089580E094E0B3
:101B2000E8E1F1E0DF019C011D9221503040E1F736
:101B300008951F93CF93DF93EC01162F888D8F3F6D
:101B4000E9F0E9A1FAA180819FA1892B8083EBA113
:101B5000FCA1808198A5892B8083E9A1FAA19081BD
:101B60008FA1809589238083CE010E94580DE9A121
:101B7000FAA180819FA1892B808316C06F89772766
:101B800067FD709587EC96E00E94782A87EC96E0D6
:101B900062E00E94352B87EC96E0612F0E94352B86
:101BA00087EC96E00E94782BDF91CF911F910895EA
:101BB0001F93CF93DF93EC01162F888D8F3FF1F0A9
:101BC000E9A1FAA180819FA1892B8083EBA1FCA1CF
:101BD000908188A5809589238083E9A1FAA19081CD
:101BE0008FA1809589238083CE010E94580DE9A1A1
:101BF000FAA180819FA1892B808316C06F897727E6
:101C000067FD709587EC96E00E94782A87EC96E055
:101C100061E00E94352B87EC96E0612F0E94352B06
:101C200087EC96E00E94782BDF91CF911F91089569
:101C30006EE20E94D80D0895EF92FF920F931F93CA
:101C40008C01F62EE42E63EA0E94D80DC80160E0F4
:101C50000E94D80DC80160E40E94D80DC8016AE254
:101C60000E94D80DC80160E00E94D80DC8016F2DF8
:101C70000E94D80DC80160E00E94D80DC8016E2DE9
:101C80000E94D80DC80161E00E94D80DC8016FE222
:101C90000E94D80D1F910F91FF90EF900895EF9241
:101CA000FF920F931F938C01F62EE42E63EA0E949D
:101CB000D80DC80160E00E94D80DC80160E40E9400
:101CC000D80DC80169E20E94D80DC80160E00E94E9
:101CD000D80DC8016F2D0E94D80DC80160E00E9488
:101CE000D80DC8016E2D0E94D80DC80161E00E9478
:101CF000D80DC8016FE20E94D80D1F910F91FF907F
:101D0000EF900895EF92FF920F931F938C01F62EA0
:101D1000E42E67E20E94D80DC80160E00E94D80D51
:101D2000C8016F2D0E94D80DC80160E00E94D80D37
:101D3000C8016E2D0E94D80DC80161E00E94D80D27
:101D4000C8016FEF0E94D80DC8016FE20E94D80D44
:101D50001F910F91FF90EF900895EF92FF920F93D4
:101D60001F938C01F62EE42E66E20E94D80DC80166
:101D700060E00E94D80DC8016F2D0E94D80DC801E7
:101D800060E00E94D80DC8016E2D0E94D80DC801D8
:101D900061E00E94D80DC8016FEF0E94D80DC80104
:101DA0006FE20E94D80D1F910F91FF90EF90089560
:101DB000662311F067EA01C066EA0E94D80D089513
:101DC000CF92DF92EF92FF920F931F93CF93DF9307
:101DD0008C0160E00E94D80DC80160E10E94D80D1E
:101DE000C80160E40E94D80DD80158968C9158978C
:101DF0008F3F99F19196ED91FC9192978081979602
:101E00009C919797892B80839396ED91FC91949761
:101E1000808198969C919897892B80839196ED91DB
:101E2000FC919297908197968C91809589238083DD
:101E3000C8E1D1E0C80169910E94580DB5E0C831F0
:101E4000DB07C1F7D8019196ED91FC9192978081C3
:101E500097969C91892B808332C0E090B8008CE0EB
:101E60008093B800C0E0D0E0F8016789772767FD6C
:101E7000709587EC96E00E94782A87EC96E062E005
:101E80000E94352B88E1C82E81E0D82ECC0EDD1EB5
:101E9000FF2487EC96E0D6016D916D010E94352BF1
:101EA000F394B0E1FB16A9F7609687EC96E00E94E8
:101EB000782BE4E0C030DE07B9F6E092B800DF919D
:101EC000CF911F910F91FF90EF90DF90CF900895E9
:101ED0000F931F93CF93DF93EC01062F142F60E82D
:101EE00070E040E450E00E941C031F8B888D8F3F00
:101EF00009F46CC061E00E947F29898D61E00E9435
:101F00007F298A8D61E00E947F298C8D61E00E948B
:101F10007F29E98D2E2F332727FD3095F901EF55C5
:101F2000FA4FE491F0E0EE0FFF1FE357FA4F85916F
:101F3000949198A38F8F2B543A4FF90184918EA3DB
:101F4000E88D2E2F332727FD3095F901EF55FA4FF5
:101F5000E491F0E0EE0FFF1FE357FA4F8591949163
:101F60009E8F8D8F2B543A4FF90184918DA3EC8D68
:101F70002E2F332727FD3095F901EF55FA4FE491C5
:101F8000F0E0EE0FFF1FE357FA4F859194919AA36B
:101F900089A32B543A4FF90184918FA3EA8D2E2FF8
:101FA000332727FD3095F901EF55FA4FE491F0E022
:101FB000EE0FFF1FE357FA4F859194919CA38BA3DB
:101FC0002B543A4FF901849188A704C087EC96E01E
:101FD0000E94942B8B8D61E00E947F298B8D61E0A4
:101FE0000E94EB2961E070E080E090E00E941429FB
:101FF0008B8D60E00E94EB296AE070E080E090E069
:102000000E9414298B8D61E00E94EB29CE016EEABB
:102010000E94D80DCE0165ED0E94D80DCE0160E87A
:102020000E94D80DCE0168EA0E94D80DCE016FE360
:102030000E94D80DCE0163ED0E94D80DCE0168E359
:102040000E94D80DCE0160E40E94D80DCE016DE84B
:102050000E94D80D013019F4CE0160E102C0CE011A
:1020600064E10E94D80DCE0160E20E94D80DCE013D
:1020700060E00E94D80DCE0161EA0E94D80DCE0129
:1020800068EC0E94D80DCE016AED0E94D80DCE01F9
:1020900062E10E94D80DCE0161E80E94D80D0130A6
:1020A00019F4CE016FE902C0CE016FEC0E94D80D89
:1020B000CE0169ED0E94D80D013019F4CE0162E223
:1020C00002C0CE0161EF0E94D80DCE016BED0E94DF
:1020D000D80DCE0160E20E94D80DCE0160E40E94CE
:1020E000D80DCE0164EA0E94D80DCE0166EA0E94A6
:1020F000D80DCE016FEA0E94D80DDF91CF911F91CC
:102100000F910895CF92DF92EF92FF920F931F935A
:10211000CF93DF93EC017B018A01690177FD7BC0DE
:102120000E94120DE816F9060CF075C017FD73C079
:10213000CE010E94160D081719070CF06CC05EC086
:102140008C819D810197801B910B87017C0116C0BA
:102150008C819D8101979C012E193F0979018E8107
:102160009F8101979C01201B310B890107C08E8143
:102170009F8101978E199F0978018C0131E0C31668
:10218000D104E1F4C80168E070E00E948E30FB01E8
:10219000F695FE2FEE27F795E795EE0DFF1DE85E0D
:1021A000FE4FC80168E070E00E948E3002C0CC0C87
:1021B000DD1C8A95E2F780818C291EC0C80168E089
:1021C00070E00E948E30FB01F695FE2FEE27F7950A
:1021D000E795EE0DFF1DE85EFE4FC80168E070E078
:1021E0000E948E3021E030E002C0220F331F8A951A
:1021F000E2F720958081822380830DC0CE010E946A
:10220000EE0C823009F4A4CF833009F4B0CF8130D2
:1022100009F0B4CF95CFDF91CF911F910F91FF902F
:10222000EF90DF90CF900895F894FFCF80EA95E08B
:1022300064E00E944A0D08950F931F9300EA15E091
:10224000C80162E00E94D90CC80161E070E00E9400
:10225000DF0CC8016AE070E040E050E00E94D30C5F
:10226000C8010E948E0DC80168E175E00E94F11E50
:10227000C8010E94E00EC80160E04FE00E94AD0E70
:1022800060ED77E080E090E00E941429C8010E9490
:10229000180E68EE73E080E090E00E941429C801F7
:1022A00060E04FE00E94820E60ED77E080E090E019
:1022B0000E941429C8010E94180E68EE73E080E0A5
:1022C00090E00E941429C80160E047E00E944F0E90
:1022D00060ED77E080E090E00E941429C80160E0A2
:1022E00047E00E941C0E60ED77E080E090E00E94E5
:1022F0001429C8010E94180E1F910F910895EF92A2
:10230000FF920F931F93CF93DF93C0E0D0E018C0EC
:1023100080EA95E00E94160D8C010150104080EA81
:1023200095E060E070E040E050E09E01B1E0EB2E0F
:10233000F12C0E94A60680EA95E00E94E00E249609
:1023400080EA95E00E94120DC817D9070CF3C0E08F
:10235000D0E018C080EA95E00E94120D9C01215047
:10236000304080EA95E060E070E040E050E08E01AF
:10237000A1E0EA2EF12C0E94A60680EA95E00E94D8
:10238000E00E249680EA95E00E94160DC817D90742
:102390000CF36AEF70E080E090E00E94142980EA7C
:1023A00095E00E948E0DC0E0D0E018C080EA95E074
:1023B0000E94160DAC014150504080EA95E060E06B
:1023C00070E09E0100E010E0F1E0EF2EF12C0E94A1
:1023D000A60680EA95E00E94E00E249680EA95E049
:1023E0000E94120DC817D9070CF380EA95E00E94ED
:1023F000160DEC0121971EC080EA95E00E94160D93
:102400008C0180EA95E00E94120D015010409C0161
:102410002150304080EA95E060E070E0A8018E0134
:10242000E1E0EE2EF12C0E94A60680EA95E00E94E3
:10243000E00E2497D7FFE0CF6AEF70E080E090E0F5
:102440000E94142980EA95E00E948E0D80EA95E0B2
:102450000E94120DEC0121971EC080EA95E00E94B7
:10246000120D8C0180EA95E00E94160D015010407B
:10247000AC014150504080EA95E0B8019E0100E077
:1024800010E0B1E0EB2EF12C0E94A60680EA95E068
:102490000E94E00E2497D7FFE0CF80EA95E00E94EB
:1024A000160DEC0121971EC080EA95E00E94120DE6
:1024B0008C0180EA95E00E94160D01501040AC019D
:1024C0004150504080EA95E0B80120E030E08E01B4
:1024D000A1E0EA2EF12C0E94A60680EA95E00E9477
:1024E000E00E2497D7FFE0CF6AEF70E080E090E045
:1024F0000E94142980EA95E00E948E0DC0E0D0E091
:1025000018C080EA95E00E94120DBC016150704035
:1025100080EA95E040E050E020E030E08E01F1E01C
:10252000EF2EF12C0E94A60680EA95E00E94E00EB4
:10253000249680EA95E00E94160DC817D9070CF37F
:10254000C0E0D0E01FC080EA95E00E94120D7C013F
:1025500080EA95E00E94160D0894E108F1088C01CC
:102560000150104080EA95E0B70140E050E09E0144
:10257000E1E0EE2EF12C0E94A60680EA95E00E9492
:10258000E00E249680EA95E00E94120DC817D90744
:10259000D4F26AEF70E080E090E00E941429DF91AD
:1025A000CF911F910F91FF90EF900895CF92DF92FE
:1025B000EF92FF920F931F93CF93DF93C0E0D0E091
:1025C000CC24DD2421C080EA95E00E94120D7C011C
:1025D00080EA95E00E94160DEC0CFD1C8C010C0DA0
:1025E0001D1D80EA95E0BE01AE019701E1E0EE2EEF
:1025F000F12C0E94520780EA95E00E94E00E22969C
:102600008CEF9FEFC80ED91E80EA95E00E94160D50
:1026100062E070E00E948E30C617D707A4F2DF9107
:10262000CF911F910F91FF90EF90DF90CF90089581
:102630009F92AF92BF92CF92DF92EF92FF920F9351
:102640001F93CF93DF9399249394C0E0D0E0AA2402
:10265000BB242EC080EA95E00E94120D6C0180EA36
:1026600095E00E94160D8C0180EA95E00E94160DFF
:10267000CA0CDB1C0A0D1B1D64E070E00E948E304A
:102680007B0180EA95E0BE01AE019601C92CDD24F4
:102690000E94E40880E091E0991281E0982E80EA9F
:1026A00095E00E94E00E22968CEF9FEFA80EB91ED7
:1026B00080EA95E00E94160D62E070E00E948E3084
:1026C00062507040C617D7072CF2DF91CF911F914F
:1026D0000F91FF90EF90DF90CF90BF90AF909F90C1
:1026E0000895AF92BF92CF92DF92EF92FF920F9335
:1026F0001F93CF93DF93C0E0D0E0AA24BB242AC06D
:1027000080EA95E00E94120D6C0180EA95E00E943B
:10271000160D8C0180EA95E00E94160DCA0CDB1C98
:102720000A0D1B1D64E070E00E948E307B0180EA80
:1027300095E0BE01AE019601F1E0CF2ED12C0E94B2
:10274000310880EA95E00E94E00E22968CEF9FEF20
:10275000A80EB91E80EA95E00E94160D62E070E0B6
:102760000E948E3062507040C617D7074CF2DF913E
:10277000CF911F910F91FF90EF90DF90CF90BF907E
:10278000AF9008954F925F926F927F928F929F9237
:10279000AF92BF92CF92DF92EF92FF920F931F936F
:1027A000CF93DF9380EA95E00E94120D8C0180EABE
:1027B00095E00E94160D081719072CF480EA95E0A1
:1027C0000E94120D04C080EA95E00E94160D62E09E
:1027D00070E00E948E30EB015AC080EA95E00E94C2
:1027E000120D8C0180EA95E00E94160D7C0180EAB2
:1027F00095E00E94120D6C0180EA95E00E94160D92
:102800005C0180EA95E00E94120D4C0180EA95E09F
:102810000E94160D3C01C80162E070E00E948E30FB
:102820002B01C70162E070E00E948E30FB01EC1BBF
:10283000FD0BC60162E070E00E948E309B012C1BF4
:102840003D0BC50162E070E00E948E308B010C0FE1
:102850001D1FC40162E070E00E948E307B01EC0E0F
:10286000FD1EC30162E070E00E948E306B01CC0E51
:10287000DD1E80EA95E0B201AF01A1E0AA2EB12CE5
:102880000E94B30980EA95E00E94E00E25971C168D
:102890001D060CF4A2CFDF91CF911F910F91FF90F5
:1028A000EF90DF90CF90BF90AF909F908F907F90F0
:1028B0006F905F904F9008954F925F926F927F92CA
:1028C0008F929F92AF92BF92CF92DF92EF92FF9240
:1028D0000F931F93CF93DF93C0E0D0E05AC080EAFC
:1028E00095E00E94120D8C0180EA95E00E94160D81
:1028F0007C0180EA95E00E94120D6C0180EA95E06F
:102900000E94160D5C0180EA95E00E94120D4C01B8
:1029100080EA95E00E94160D3C01C80162E070E07B
:102920000E948E302B01C70162E070E00E948E3061
:10293000FB01EC1BFD0BC60162E070E00E948E30D3
:102940009B012C1B3D0BC50162E070E00E948E30A4
:102950008B010C0F1D1FC40162E070E00E948E30DD
:102960007B01EC0EFD1EC30162E070E00E948E3020
:102970006B01CC0EDD1E80EA95E0B201AF01B1E043
:10298000AB2EB12C0E945C0980EA95E00E94E00E1B
:10299000259680EA95E00E94120D8C0180EA95E070
:1029A0000E94160D081719072CF480EA95E00E9482
:1029B000120D04C080EA95E00E94160D62E070E0FE
:1029C0000E948E30C617D7070CF489CFDF91CF91C4
:1029D0001F910F91FF90EF90DF90CF90BF90AF903D
:1029E0009F908F907F906F905F904F9008959F92EF
:1029F000AF92BF92CF92DF92EF92FF920F931F930D
:102A0000CF93DF9399249394C0E0D0E0AA24BB2411
:102A100024C080EA95E00E94120D6C0180EA95E0E6
:102A20000E94160DCA0CDB1C8C010A0D1B1DE92C23
:102A3000FF2481E0E822FF2480EA95E0BE01AE0198
:102A400096010E94E10780EA95E00E94E00E9394CF
:102A500023968AEF9FEFA80EB91E80EA95E00E94A8
:102A6000160D62E070E00E948E30C617D7078CF218
:102A7000DF91CF911F910F91FF90EF90DF90CF905A
:102A8000BF90AF909F9008950F931F93CF93DF93C4
:102A9000C0E0D0E023C080EA95E00E94120D8C01D6
:102AA00080EA95E00E94160D9C01C80162E070E08A
:102AB0000E948E30FB01C90162E070E00E948E30FE
:102AC000AB0180EA95E0BF019E0101E010E00E94A9
:102AD000340380EA95E00E94E00E229680EA95E0B9
:102AE0000E94160DC817D907B4F2DF91CF911F913C
:102AF0000F9108951F9380EA95E061E00E94D90C40
:102B000080EA95E061E070E00E94DF0C80EA95E0E9
:102B100060E070E040E050E00E94D30C10E01A301A
:102B200089F080EA95E0612F0E94770C112351F023
:102B3000812F65E10E948230992321F480EA95E09B
:102B40000E94071C1F5F183A51F780EA95E00E9427
:102B5000E00E1F9108952F923F924F925F926F92D5
:102B60007F928F929F92AF92BF92CF92DF92EF921D
:102B7000FF920F931F93DF93CF93CDB7DEB76F977D
:102B80000FB6F894DEBF0FBECDBF6F8FA42E6AE9DB
:102B900072E080E090E00E9455321E010894211CF2
:102BA000311C3101BFE1CB2ED12CCC0EDD1E0E9499
:102BB00050327B018C0180EA95E00E94120D9C014D
:102BC000442737FD4095542FC801B7010E94C330F8
:102BD000F301608311820E94503225E030E040E032
:102BE00050E00E94C330162F1F5FF301128381E56E
:102BF00096E06FE175E00E94F41D81E596E0F30137
:102C000060814AE050E00E943E1D81E596E063E26B
:102C100075E00E94F41D81E596E0F30161814AE0D0
:102C200050E00E943E1D81E596E068E275E00E945A
:102C3000F41D81E596E0612F4AE050E00E94501DAE
:102C400083E090E0680E791E6C147D0409F0AFCF2C
:102C5000BB242E010894411C511C1BC08B2D90E0FD
:102C6000FC01EE0FFF1FE80FF91FE40DF51D608159
:102C7000418180EA95E070E050E023E635E00F8D79
:102C800010E0EA2CFF24E1E0CE2ED12C0E94FE0AB7
:102C9000B39499E09B1510F780EA95E00E94E00E4E
:102CA00068EC70E080E090E00E9414294101F4019A
:102CB000B180608180EA95E070E04B2D50E023E622
:102CC00035E00F8D10E0EA2CFF24CC24DD240E9497
:102CD000FE0AF40102810B0D018380EA95E00E9457
:102CE000160D10E080179107FCF40E9450327B0112
:102CF0008C0180EA95E00E94120D9C01442737FD6B
:102D00004095542FC801B7010E94C330F40160837D
:102D100011820E94503225E030E040E050E00E94F5
:102D2000C3306F5FF401628383E090E0880E991EE8
:102D30008614970409F0BBCFBB2490CFCF92DF92CB
:102D4000EF92FF920F931F930E94442981E596E032
:102D500040E855E260E070E00E942C1980EA95E0BE
:102D600062E041E50E94680F80EA95E00E94E00E73
:102D700060ED77E080E090E00E94142980EA95E021
:102D80000E948E0D80EA95E06AE070E04AE050E033
:102D900021E030E00E94821080EA95E00E94E00E7F
:102DA00060ED77E080E090E00E94142980EA95E0F1
:102DB0000E948E0D0E947F1180EA95E00E94E00E35
:102DC00060ED77E080E090E00E94142980EA95E0D1
:102DD0000E948E0D0E94D61280EA95E00E94E00EBD
:102DE00060ED77E080E090E00E94142980EA95E0B1
:102DF0000E948E0D0E94F71480EA95E00E94E00E7A
:102E000060ED77E080E090E00E94142980EA95E090
:102E10000E948E0D0E94441580EA95E00E94E00E0B
:102E200060ED77E080E090E00E94142980EA95E070
:102E30000E948E0D80EA95E00E94120D8C0180EABE
:102E400095E00E94160D9C01C80162E070E00E94AE
:102E50008E30FB01C90162E070E00E948E30AB0150
:102E600080EA95E0BF012AE030E001E010E00E9436
:102E7000720680EA95E00E94E00E60ED77E080E067
:102E800090E00E94142980EA95E00E948E0D0E9435
:102E9000711360ED77E080E090E00E94142980EAF1
:102EA00095E00E948E0D0E94181360ED77E080E09F
:102EB00090E00E94142980EA95E00E948E0D0E9405
:102EC0005C1460ED77E080E090E00E94142980EAD5
:102ED00095E00E948E0D0E94C21360ED77E080E0C5
:102EE00090E00E94142980EA95E00E948E0D0E94D5
:102EF0007A1580EA95E00E94E00E60ED77E080E0D0
:102F000090E00E94142980EA95E00E948E0D0E94B4
:102F10001C1160ED77E080E090E00E94142980EAC7
:102F200095E00E948E0D80EA95E061E00E94D90C48
:102F300080EA95E061E070E00E94DF0C80EA95E0B5
:102F400060E070E040E050E00E94D30C80EA95E041
:102F50006EE275E00E94F11E80EA95E060E070E0AC
:102F600041E050E00E94E50C80EA95E048ED5FE02A
:102F700069E470E422E030E00E94DE1E80EA95E021
:102F800062E00E94D90C80EA95E061E070E00E9466
:102F9000DF0C80EA95E06CE375E00E94F41D80EAA6
:102FA00095E04FEE5EEB6DEA7EED20E130E00E94B1
:102FB000FC1C80EA95E00E94E00E60ED77E080E086
:102FC00090E00E94142980EA95E00E948E0D80EA2C
:102FD00095E06EE170E040E150E023E635E000E18D
:102FE00010E0F0E1EF2EF12CE1E0CE2ED12C0E948A
:102FF000FE0A80EA95E00E94E00E80EA95E061E03A
:103000000E94D80E68EE73E080E090E00E941429E0
:1030100080EA95E060E00E94D80E68EE73E080E000
:1030200090E00E94142983E695E060E140E10E946F
:10303000AB15FFCF08951F920F920FB60F92112478
:103040002F933F934F938F939F93EF93FF93809191
:10305000C00082FD1DC04091C6002091090630913C
:103060000A062F5F3F4F2F73307080910B069091AF
:103070000C062817390771F0E0910906F0910A064D
:10308000E753FA4F408330930A062093090602C0A3
:103090008091C600FF91EF919F918F914F913F9149
:1030A0002F910F900FBE0F901F901895E0915D0625
:1030B000F0915E06E05CFF4F81919191208131811A
:1030C000821B930B8F739070892B11F00E941A183A
:1030D00008951F920F920FB60F9211242F933F93D2
:1030E0008F939F93EF93FF9320914D0630914E065F
:1030F00080914F06909150062817390731F480913E
:10310000C1008F7D8093C10014C0E0914F06F09103
:103110005006E35FF94F208180914F069091500651
:1031200001968F7390709093500680934F06209372
:10313000C600FF91EF919F918F913F912F910F903A
:103140000FBE0F901F9018958F929F92AF92BF92D3
:10315000CF92DF92EF92FF920F931F93DF93CF9363
:10316000CDB7DEB7FC011382128288EE93E0A0E0B7
:10317000B0E084839583A683B78383E495E091834D
:1031800080837587648757874687318B208B138BA5
:10319000028BF58AE48AD78AC68AB18EA08E938E76
:1031A000828E8F85848F8889858F8989868F8A8989
:1031B000878F8B8980A3CF91DF911F910F91FF9013
:1031C000EF90DF90CF90BF90AF909F908F90089539
:1031D0008F929F92AF92BF92CF92DF92EF92FF9227
:1031E0000F931F93DF93CF93CDB7DEB7FC0113820C
:1031F000128288EE93E0A0E0B0E084839583A683FA
:10320000B78383E495E091838083758764875787CC
:103210004687318B208B138B028BF58AE48AD78A01
:10322000C68AB18EA08E938E828E8F85848F888978
:10323000858F8989868F8A89878F8B8980A3CF9193
:10324000DF911F910F91FF90EF90DF90CF90BF9093
:10325000AF909F908F900895AF92BF92DF92EF92C0
:10326000FF920F931F93CF93DF93EC017A018B01B1
:10327000DD24403081EE580780E0680780E0780761
:1032800011F0DD24D39491E0A92EB12CEC89FD89B5
:10329000DD2069F0C50108A002C0880F991F0A94BB
:1032A000E2F7808360E079E08DE390E005C0108272
:1032B00060E874E88EE190E0A80197010E94A130D7
:1032C00021503040404050405695479537952795BE
:1032D00080E12030380720F0DD2011F0DD24D6CF4A
:1032E000E889F9893083EA89FB89208319A2EE896C
:1032F000FF89408121E030E0C9010C8C02C0880FB9
:10330000991F0A94E2F7482B4083EE89FF89408198
:10331000C9010D8C02C0880F991F0A94E2F7482B4F
:103320004083EE89FF894081C9010E8C02C0880F5D
:10333000991F0A94E2F7482B4083EE89FF89808128
:103340000F8C02C0220F331F0A94E2F72095282326
:103350002083DF91CF911F910F91FF90EF90DF902D
:10336000BF90AF900895AF92BF92CF92DF92EF924D
:10337000FF920F931F93CF93DF93EC017A018B01A0
:10338000C22EDD24403081EE580780E0680780E0DF
:10339000780711F0DD24D39471E0A72EB12CEC89CD
:1033A000FD89DD2069F0C50108A002C0880F991FC2
:1033B0000A94E2F7808360E079E08DE390E005C055
:1033C000108260E874E88EE190E0A80197010E9405
:1033D000A130215030404040504056954795379598
:1033E000279580E12030380720F0DD2011F0DD2422
:1033F000D6CFE889F9893083EA89FB892083E88D73
:10340000F98DC082EE89FF89408121E030E0C90159
:103410000C8C02C0880F991F0A94E2F7482B408356
:10342000EE89FF894081C9010D8C02C0880F991F68
:103430000A94E2F7482B4083EE89FF894081C90155
:103440000E8C02C0880F991F0A94E2F7482B408324
:10345000EE89FF8980810F8C02C0220F331F0A94EE
:10346000E2F7209528232083DF91CF911F910F91C0
:10347000FF90EF90DF90CF90BF90AF900895CF93E3
:10348000DF93DC011E968D919C911F97EC01C05C2F
:10349000DF4FFC01EE5BFF4F2881398180819181F4
:1034A00028173907C9F75696ED91FC915797408137
:1034B00021E030E0C9015C960C905C9702C0880F57
:1034C000991F0A94E2F78095842380835696ED91A4
:1034D000FC9157974081C9015D960C905D9702C0A1
:1034E000880F991F0A94E2F780958423808356966B
:1034F000ED91FC9157974081C9015E960C905E97C3
:1035000002C0880F991F0A94E2F780958423808374
:103510005696ED91FC91579780815F960C905F973E
:1035200002C0220F331F0A94E2F72095282320833C
:103530001C96ED91FC911D97EE5BFF4F8081918170
:1035400092938293DF91CF910895DC011C96ED91C7
:10355000FC911D97E05CFF4F219131918081918119
:10356000281B390B2F733070C9010895DC011C969C
:10357000ED91FC911D97E05CFF4F20813181E0547B
:10358000F040DF01AE5BBF4F8D919C9111972817E2
:10359000390719F42FEF3FEF07C08D919C91E80F89
:1035A000F91F8081282F30E0C9010895DC011C96A5
:1035B000ED91FC911D97E05CFF4F20813181E0543B
:1035C000F040DF01AE5BBF4F8D919C9111972817A2
:1035D000390719F42FEF3FEF10C08D919C9111978F
:1035E000E80FF91F20818D919C91119701968F739F
:1035F000907011969C938E9330E0C9010895DC0180
:1036000091968C919197882339F05496ED91FC9185
:103610005597808186FFF9CF91961C920895CF939C
:10362000DF93EC01EE85FF85E05CFF4F2081318167
:10363000E054F0402F5F3F4F2F733070DF01AE5BDF
:10364000BF4F8D919C91119728173907D1F3E05CFA
:10365000FF4F80819181E054F040E80FF91F6083B3
:10366000EE85FF85E05CFF4F31832083EE89FF8983
:10367000208181E090E00F8C02C0880F991F0A948E
:10368000E2F7282B208381E089A3EC89FD898081E2
:103690008064808381E090E0DF91CF91089581E0A4
:1036A0000895109254061092530688EE93E0A0E01D
:1036B000B0E08093550690935606A0935706B093BA
:1036C000580683E495E0909352068093510689EC66
:1036D00095E090935E0680935D068DE096E0909372
:1036E000600680935F0685EC90E09093620680937D
:1036F000610684EC90E0909364068093630680EC0E
:1037000090E0909366068093650681EC90E090933C
:1037100068068093670682EC90E090936A06809337
:10372000690686EC90E090936C0680936B0684E0CB
:1037300080936D0683E080936E0687E080936F062A
:1037400085E08093700681E0809371060895CF92A2
:10375000DF92EF92FF920F931F93CF93DF937C0141
:103760006B018A01C0E0D0E00FC0D6016D916D0100
:10377000D701ED91FC910190F081E02DC7010995F1
:10378000C80FD91F015010400115110571F7CE0166
:10379000DF91CF911F910F91FF90EF90DF90CF902D
:1037A0000895EF92FF920F931F93CF93DF937C01C5
:1037B0008B01C0E0D0E0F8010F5F1F4F64916623DA
:1037C00059F0D701ED91FC910190F081E02DC701F6
:1037D0000995C80FD91FEFCFCE01DF91CF911F916F
:1037E0000F91FF90EF900895DC01ED91FC91019015
:1037F000F081E02D099508959C01DB01ED91FC918C
:103800000190F081E02DCB01B90109950895EF9267
:10381000FF920F931F938C01DC01ED91FC910190BD
:10382000F081E02D6DE009957C01D801ED91FC91CE
:103830000190F081E02DC8016AE009959C012E0DF0
:103840003F1DC9011F910F91FF90EF900895EF92D6
:10385000FF920F931F937C010E94D11B8C01C70123
:103860000E94071C9C01200F311FC9011F910F915D
:10387000FF90EF900895EF92FF920F931F937C01BA
:10388000DC01ED91FC910190F081E02D09958C0116
:10389000C7010E94071C080F191FC8011F910F9133
:1038A000FF90EF900895EF92FF920F931F937C018A
:1038B000DB01ED91FC910190F081E02DCB01B7018E
:1038C00009958C01C7010E94071C080F191FC80128
:1038D0001F910F91FF90EF900895CF93DF93EC012C
:1038E0006115710519F420E030E00FC0DB010D9087
:1038F0000020E9F71197A61BB70BE881F981028038
:10390000F381E02DAD0109959C01C901DF91CF91B3
:1039100008954F925F927F928F929F92AF92BF9243
:10392000CF92DF92EF92FF920F931F93DF93CF938B
:10393000CDB7DEB7A1970FB6F894DEBF0FBECDBFEF
:103940002C01742ECB01223008F42AE019A231E2B6
:10395000C32ED12CCC0EDD1E822E9924AA24BB248A
:10396000672D752FA50194010E94A13079018A016C
:10397000C801B701A50194010E946330472D461B81
:103980000894C108D1084A3010F4405D01C0495C78
:10399000F6014083E114F1040105110521F07E2CAC
:1039A0005F2DC801DDCFC201B6010E946D1CA1963A
:1039B0000FB6F894DEBF0FBECDBFCF91DF911F9140
:1039C0000F91FF90EF90DF90CF90BF90AF909F90BE
:1039D0008F907F905F904F900895DC012115310505
:1039E00041F4ED91FC910190F081E02D642F099557
:1039F00008950E94891C0895EF92FF920F931F93E0
:103A00007C010E94ED1C8C01C7010E94071C9C01D7
:103A1000200F311FC9011F910F91FF90EF90089562
:103A2000EF92FF920F931F939A017B0100E010E049
:103A3000B801A7010E94ED1C1F910F91FF90EF901C
:103A40000895CF92DF92EF92FF920F931F936C0134
:103A50007B019A0100E010E0B801A7010E94ED1C73
:103A60008C01C6010E94071C080F191FC8011F9175
:103A70000F91FF90EF90DF90CF900895EF92FF921B
:103A80000F931F939A01E62EFF2400E010E0B80187
:103A9000A7010E94ED1C1F910F91FF90EF900895D8
:103AA000CF92DF92EF92FF920F931F936C01E62E5D
:103AB0009A01FF2400E010E0B801A7010E94ED1C6C
:103AC0008C01C6010E94071C080F191FC8011F9115
:103AD0000F91FF90EF90DF90CF900895CF92DF92FB
:103AE000EF92FF920F931F93CF93DF93EC016A0144
:103AF0007B012115310541F4E881F9810190F081C4
:103B0000E02D642F09951FC02A303105D1F477FFCD
:103B100017C0E881F9810190F081E02D6DE20995EF
:103B20008C0144275527BA014C195D096E097F099C
:103B3000CE012AE00E94891C9801280F391F04C079
:103B40002AE00E94891C9C01C901DF91CF911F913D
:103B50000F91FF90EF90DF90CF900895EF92FF923A
:103B60000F931F937C010E946E1D8C01C7010E9460
:103B7000071C9C01200F311FC9011F910F91FF905D
:103B8000EF900895EF92FF920F931F937B019A019C
:103B90000027F7FC0095102FB801A7010E946E1DA9
:103BA0001F910F91FF90EF900895CF92DF92EF92C7
:103BB000FF920F931F936C017B019A010027F7FC82
:103BC0000095102FB801A7010E946E1D8C01C6013F
:103BD0000E94071C080F191FC8011F910F91FF9029
:103BE000EF90DF90CF9008950E946D1C08957F9212
:103BF0008F929F92AF92BF92CF92DF92EF92FF92FD
:103C00000F931F93CF93DF934C017A018B01722E98
:103C1000CB01BA01A80197010E945F30882321F0EF
:103C2000C4016FE575E021C0C0E0D0E05701680134
:103C3000E894D7F8C601B5012FEF3FEF4FE75FE7F4
:103C40000E945F30882351F4C601B5012FEF3FEF8A
:103C50004FE75FE70E94A92E181614F0C1E0D0E0EC
:103C6000219739F0C40163E675E00E946D1CEC01F8
:103C700093C0C801B7012FEF3FEF4FE75FE40E9409
:103C8000F82F181654F0C801B7012FEF3FEF4FE798
:103C90005FEC0E94A92E882324F4C40167E675E036
:103CA000E4CFC801B70120E030E040E050E00E94DE
:103CB000A92E87FD03C0C0E0D0E00EC0D401ED9175
:103CC000FC910190F081E02DC4016DE20995EC01B9
:103CD00017FB109517F9109520E030E040E05FE306
:103CE000DD240BC0CA01B90120E030E040E251E41C
:103CF0000E94AD2E9B01AC01D394D71498F3C80158
:103D0000B7010E94452E5B016C010E941A2F7B01B6
:103D10008C01C401B801A7012AE030E00E94ED1C2B
:103D2000C80FD91F772039F0C4016BE675E00E94F7
:103D30006D1CC80FD91FC801B7010E94462F9B01F7
:103D4000AC01C601B5010E94442E24C020E030E041
:103D500040E251E40E94FC2F7B018C010E94152F50
:103D60005B016C01CC24B7FCC094DC2CC401B6010F
:103D7000A5012AE030E00E946E1DC80FD91FC601C0
:103D8000B5010E94482F9B01AC01C801B7010E94F8
:103D9000442E7A947720D1F6CE01DF91CF911F91F6
:103DA0000F91FF90EF90DF90CF90BF90AF909F90DA
:103DB0008F907F9008950E94F71D0895EF92FF92D3
:103DC0000F931F937C010E94F71D8C01C7010E9475
:103DD000071C080F191FC8011F910F91FF90EF904A
:103DE0000895EF92FF920F931F937C010E946D1C28
:103DF0008C01C7010E94071C080F191FC8011F91E1
:103E00000F91FF90EF900895AF92BF92CF92DF9203
:103E1000EF92FF920F931F93CF93DF935C016B019F
:103E2000EE24FF24C0E0D0E010C0D501ED91FC915C
:103E300000811181C601BE010E947E1F682FC5014D
:103E4000F8010995E80EF91E2196F6018481958105
:103E5000C817D90750F3C701DF91CF911F910F9178
:103E6000FF90EF90DF90CF90BF90AF900895EF92CA
:103E7000FF920F931F937C010E94041F8C01C701C6
:103E80000E94071C9C01200F311FC9011F910F9137
:103E9000FF90EF900895FC01848195816817790760
:103EA00048F40190F081E02D309721F0E60FF71FE4
:103EB0008081089580E00895FC01848195816817D0
:103EC000790730F40190F081E02DE60FF71F408371
:103ED0000895FC019B01848195816817790728F476
:103EE000608171816115710529F41092730663E791
:103EF00076E002C0620F731FCB010895FC0184813C
:103F000095816817790748F40190F081E02D30978A
:103F100021F0E60FF71F8081089580E00895FC01ED
:103F20000190F081E02D309729F40895861709F467
:103F30004083319680818823C9F70895FC018081F0
:103F40009181009729F420E030E040E050E004C087
:103F50000E942C339B01AC01B901CA010895CF9294
:103F6000DF92EF92FF920F931F93CF93DF936C0139
:103F7000DC01ED90FC901197E114F104E9F1149645
:103F8000CD91DC9115972097B9F1870102C00F5FA1
:103F90001F4FF801808190E00E945333892BB9F7BD
:103FA0002197CE0DDF1D01C02197888190E00E94EE
:103FB0005333892B19F0C017D107B0F7FE013196A2
:103FC000E01BF10BD6011596FC93EE9314972D91FF
:103FD0003C912017310728F4C901B801AF010E94B4
:103FE0006B33D601ED91FC91119714968D919C91B4
:103FF0001597E80FF91F1082DF91CF911F910F9154
:10400000FF90EF90DF90CF900895CF93DF93FC0166
:10401000C081D181209729F407C090E00E946333CA
:10402000899388818823C9F7DF91CF910895CF9331
:10403000DF93FC01C081D181209729F407C090E073
:104040000E945B33899388818823C9F7DF91CF91E0
:104050000895EF92FF920F931F93CF93DF93FC018C
:10406000DB018617970719F12481358114968D910C
:104070009C91159728173907E1F4232BC1F0E080B4
:10408000F180CD91DC910FC090E00E945B338C01F8
:10409000888190E00E945B330817190751F4089457
:1040A000E11CF11C2196F7018081882369F781E0EA
:1040B00001C080E0DF91CF911F910F91FF90EF90B1
:1040C0000895AF92BF92CF92DF92EF92FF920F933B
:1040D0001F93CF93DF93FC015B017A01DB01149600
:1040E0002D913C9115972115310559F184819581C8
:1040F000009739F18217930720F14817590720F0EC
:104100007C010894E108F10800811181C801CFEF1A
:10411000DFEF6801CE0CDF1C10C0F50160817181FA
:104120000E94C9339C01009771F0801B910BE81627
:10413000F90608F0EC01C9010196C816D90668F71E
:1041400002C0CFEFDFEFCE01DF91CF911F910F9132
:10415000FF90EF90DF90CF90BF90AF900895FC015B
:10416000DB014481558114968D919C911597481BD4
:10417000590BCF010E9461200895CF93DF93FC017A
:10418000DB01848195814817590760F4C081D18192
:104190006D917C91CE01840F951F0E94C9339C01C3
:1041A000009719F42FEF3FEF02C02C1B3D0BC90104
:1041B000DF91CF91089540E050E00E94BD20089526
:1041C000DF92EF92FF920F931F93CF93DF93EC0157
:1041D0008C819D8148175907B8F47A010894E11C35
:1041E000F11CE881F981EE0DFF1DD080108208815D
:1041F0001981C80170E00E94BE339C010E0D1F1D85
:10420000F801D082009719F4EFEFFFEF05C0888125
:104210009981F901E81BF90BCF01DF91CF911F9133
:104220000F91FF90EF90DF900895FC01448155813C
:10423000415050400E94E0200895CF93DF93FC014D
:10424000848195814817590758F4C081D181CE01E6
:10425000840F951F70E00E9486339C01009719F42B
:104260002FEF3FEF02C02C1B3D0BC901DF91CF9117
:10427000089540E050E00E941D2108950F931F9380
:10428000CF93DF93FC018B0141155105F9F06115C6
:104290007105E1F0848195812817390718F0FB0139
:1042A000108214C041505040EC01C21BD30B4C177C
:1042B0005D0708F4EA0160817181620F731FC80114
:1042C000AE010E94AF33C00FD11F1882DF91CF9192
:1042D0001F910F910895FC01DB0124813581149613
:1042E0004D915C91159724173507A8F08081918135
:1042F000009789F06D917C916115710561F0241B27
:10430000350B820F931F0E9491339C0180E0232B79
:1043100019F481E0089580E00895DC01FB01149612
:104320008D919C911597892B31F461157105A9F038
:1043300090E0808108C00D90BC91A02D61157105A1
:1043400029F490E08C91882349F407C0CD010E94A4
:1043500091339C0190E0232B09F491E0892F08957B
:10436000CF93DF939C01FB01EC01A881B9811097E9
:1043700029F06081718161157105D1F4C081D1810D
:10438000209759F084819581892B39F0888190E0BC
:1043900022273327281B390B12C0109771F0F9011F
:1043A00084819581892B49F08C91282F30E007C0BA
:1043B000CD010E9491339C0102C020E030E0C90190
:1043C000DF91CF9108950E94B021892F8095881F99
:1043D0008827881F08950E94B02120E0181619062A
:1043E0000CF021E0822F08950E94B02120E01816E1
:1043F00019060CF421E0822F08950E94B021892F24
:10440000881F8827881F0895FC01DB0124813581DE
:1044100014968D919C9115972817390711F020E07B
:1044200007C0CF010E94B02120E0892B09F421E0D0
:10443000822F0895FC01DB0114962D913C91159774
:1044400084819581821B930B84179507A0F080814E
:104450009181009781F06D917C916115710559F002
:10446000840F951FA9010E94A1339C0180E0232B9A
:1044700019F481E0089580E00895FC01DB012481B6
:10448000358114968D919C9115972817390710F452
:1044900080E00895CF0140E050E00E941A22089584
:1044A0000F931F93CF93DF93EC018B016F5F7F4FCF
:1044B000888199810E945E32009711F480E005C0E6
:1044C000998388831B830A8381E0DF91CF911F91B9
:1044D0000F9108952F923F924F925F926F927F9229
:1044E0008F929F92AF92BF92CF92DF92EF92FF9204
:1044F0000F931F93CF93DF935C012B014A01DC01E3
:1045000014960D911C9115970115110509F4D4C04D
:10451000FB01C480D580C114D10409F4CDC0DA01F7
:1045200014966D907C9015976C187D08FC01E080C6
:10453000F1806114710491F01BC0D4016C9111964B
:104540007C91119714964D915C9115978C2F0E9438
:104550006B33F401E480F580EC0EFD1ED2016D9109
:104560007C91C7010E94C933EC01009731F7A4C0C8
:1045700077FE02C067012EC0FB0120803180E80178
:104580003CC08E010E191F09C601B701A8010E9487
:104590006B330C0D1D1DD4016C9111967C911197FC
:1045A00014964D915C911597C8010E946B33F401EC
:1045B000C480D580C00ED11ED2011496ED90FC901F
:1045C0001597EC0EFD1EF50184819581860D971DD2
:1045D00095838483D2016D917C91C7010E94C93378
:1045E000EC01009771F6C601B7010E949A3364C0CE
:1045F0007B01EC0CFD1CC60DD71DC701B1010E944B
:10460000C933BC010097A1F7C017D10709F454C002
:10461000F501828193818C179D0708F044C0C50184
:10462000BE010E9450228823F1F546C0C501B201A7
:10463000A9010E946120EC0197FD3EC0D5016D915A
:104640007C911197F201848195818C0F9D1F680FD9
:10465000791F14964D915C911597481B590BCB010E
:10466000860D971D0E947433D50114968D919C91EF
:104670001597860D971D15969C938E931497ED9123
:10468000FC911197E80FF91F10822D913C912C0F8E
:104690003D1FF4016081718144815581C9010E94EF
:1046A0006B339E0105C0D50114962D913C91159751
:1046B0002150304037FFBACFDF91CF911F910F913A
:1046C000FF90EF90DF90CF90BF90AF909F908F9032
:1046D0007F906F905F904F903F902F900895CF9371
:1046E000DF93EC0188819981892B29F08A819B8154
:1046F0008617970760F4CE010E945022882341F06C
:104700008C819D81892B19F4E881F981108281E0E7
:10471000DF91CF910895EF92FF920F931F93CF9364
:10472000DF93EC017B016C817D81E114F104C1F028
:104730004115510599F08A01060F171FB8010E9413
:104740006F23882369F0888199812C813D81820FB4
:10475000931FB7010E949A331D830C8381E001C02F
:1047600080E0DF91CF911F910F91FF90EF9008951E
:10477000EF92FF920F931F93DF93CF93CDB7DEB7E6
:104780002B970FB6F894DEBF0FBECDBF7C01CB01D7
:10479000BA018E010F5F1F4FA8012AE030E00E948E
:1047A0004D34F80101900020E9F73197E01BF10B3F
:1047B000C701B801AF010E948B232B960FB6F89466
:1047C000DEBF0FBECDBFCF91DF911F910F91FF9044
:1047D000EF900895EF92FF920F931F93DF93CF9383
:1047E000CDB7DEB72C970FB6F894DEBF0FBECDBFA6
:1047F0007C01CB01BA018E010F5F1F4FA8012AE097
:1048000030E00E940434F80101900020E9F731976C
:10481000E01BF10BC701B801AF010E948B232C965E
:104820000FB6F894DEBF0FBECDBFCF91DF911F91C1
:104830000F91FF90EF900895EF92FF920F931F93C7
:10484000DF93CF9300D000D000D0CDB7DEB77C018E
:10485000CB018E010F5F1F4FB8014AE050E00E946C
:104860007234F80101900020E9F73197E01BF10B59
:10487000C701B801AF010E948B2326960FB6F894AA
:10488000DEBF0FBECDBFCF91DF911F910F91FF9083
:10489000EF900895EF92FF920F931F93DF93CF93C2
:1048A000CDB7DEB727970FB6F894DEBF0FBECDBFEA
:1048B0007C01CB018E010F5F1F4FB8014AE050E031
:1048C0000E94E333F80101900020E9F73197E01BE3
:1048D000F10BC701B801AF010E948B2327960FB6D9
:1048E000F894DEBF0FBECDBFCF91DF911F910F9126
:1048F000FF90EF900895EF92FF920F931F93DF9335
:10490000CF9300D000D0CDB7DEB77C01862F90E0EA
:104910008E010F5F1F4FB8014AE050E00E94E33361
:10492000F80101900020E9F73197E01BF10BC70176
:10493000B801AF010E948B230F900F900F900F9042
:10494000CF91DF911F910F91FF90EF900895DF932A
:10495000CF9300D0CDB7DEB769831A82BE016F5FF7
:104960007F4F41E050E00E948B230F900F90CF913A
:10497000DF9108956115710511F480E00895DB0160
:104980000D900020E9F71197A61BB70BAD010E940F
:104990008B230895FB0160817181448155810E94C0
:1049A0008B230895CF93DF93EC0188819981009741
:1049B00011F00E94A531198218821D821C821B826F
:1049C0001A82DF91CF9108950F931F93182F092F0B
:1049D0000E94B823882321F4812F902F0E94D22493
:1049E000812F902F1F910F9108950F931F93182FD0
:1049F000092F0E94EA23882321F4812F902F0E94FF
:104A0000D224812F902F1F910F9108950F931F9300
:104A1000182F092F0E941C24882321F4812F902F06
:104A20000E94D224812F902F1F910F9108950F93F0
:104A30001F93182F092F0E944A24882321F4812FC5
:104A4000902F0E94D224812F902F1F910F910895B3
:104A50000F931F93182F092F0E947B24882321F482
:104A6000812F902F0E94D224812F902F1F910F9180
:104A700008950F931F93182F092F0E94A7248823AE
:104A800021F4812F902F0E94D224812F902F1F91EB
:104A90000F9108950F931F93182F092F611571051A
:104AA00061F0DB010D900020E9F71197A61BB70B11
:104AB000AD010E948B23882321F4812F902F0E9427
:104AC000D224812F902F1F910F9108950F931F9340
:104AD000182F092FFB0160817181448155810E944B
:104AE0008B23882321F4812F902F0E94D224812FA1
:104AF000902F1F910F910895EF92FF920F931F93A4
:104B0000CF93DF93EC017B018A01BA010E946F23EE
:104B1000882321F4CE010E94D22407C01D830C8378
:104B200088819981B7010E949A33CE01DF91CF919C
:104B30001F910F91FF90EF900895CF93DF93EC01B9
:104B4000198218821B821A821D821C821E826115A4
:104B5000710551F0DB010D900020E9F71197A61BBC
:104B6000B70BAD010E947C25DF91CF910895CF93C3
:104B7000DF93EC01198218821B821A821D821C822B
:104B80001E826115710551F0DB010D900020E9F7DF
:104B90001197A61BB70BAD010E947C25DF91CF9129
:104BA00008950F931F93182F092F6115710559F060
:104BB000DB010D900020E9F71197A61BB70BAD01A3
:104BC0000E947C2502C00E94D224812F902F1F9129
:104BD0000F910895EF92FF920F931F93DF93CF935E
:104BE000CDB7DEB7A1970FB6F894DEBF0FBECDBF2D
:104BF0008C01FC01118210821382128215821482B0
:104C00001682CB01BA017E010894E11CF11CA701B8
:104C100030E00E944D34C801B7010E94D125A19611
:104C20000FB6F894DEBF0FBECDBFCF91DF911F91BD
:104C30000F91FF90EF900895EF92FF920F931F93C3
:104C4000DF93CF93CDB7DEB7A1970FB6F894DEBF51
:104C50000FBECDBF8C01FC01118210821382128223
:104C6000158214821682CB01BA017E010894E11CE0
:104C7000F11CA70130E00E944D34C801B7010E9429
:104C8000D125A1960FB6F894DEBF0FBECDBFCF9150
:104C9000DF911F910F91FF90EF900895EF92FF9297
:104CA0000F931F93DF93CF93CDB7DEB7A2970FB6C5
:104CB000F894DEBF0FBECDBF8C01FC0111821082C3
:104CC00013821282158214821682CB01BA017E01F0
:104CD0000894E11CF11CA70130E00E940434C801D3
:104CE000B7010E94D125A2960FB6F894DEBF0FBE81
:104CF000CDBFCF91DF911F910F91FF90EF9008955D
:104D0000EF92FF920F931F93DF93CF93CDB7DEB750
:104D1000A2970FB6F894DEBF0FBECDBF8C01FC0189
:104D20001182108213821282158214821682CB01A4
:104D3000BA017E010894E11CF11CA70130E00E9439
:104D40000434C801B7010E94D125A2960FB6F89489
:104D5000DEBF0FBECDBFCF91DF911F910F91FF90AE
:104D6000EF900895EF92FF920F931F93DF93CF93ED
:104D7000CDB7DEB761970FB6F894DEBF0FBECDBFDB
:104D80008C01CB01F80111821082138212821582EC
:104D9000148216827E010894E11CF11CB70150E0D8
:104DA0000E947234C801B7010E94D12561960FB6E6
:104DB000F894DEBF0FBECDBFCF91DF911F910F9151
:104DC000FF90EF900895EF92FF920F931F93DF9360
:104DD000CF93CDB7DEB761970FB6F894DEBF0FBEA5
:104DE000CDBF8C01CB01F801118210821382128297
:104DF0001582148216827E010894E11CF11CB70111
:104E000050E00E947234C801B7010E94D12561961A
:104E10000FB6F894DEBF0FBECDBFCF91DF911F91CB
:104E20000F91FF90EF900895EF92FF920F931F93D1
:104E3000DF93CF93CDB7DEB762970FB6F894DEBF9E
:104E40000FBECDBF8C01CB01F801118210821382FD
:104E500012821582148216827E010894E11CF11CD4
:104E6000B70150E00E94E333C801B7010E94D12589
:104E700062960FB6F894DEBF0FBECDBFCF91DF9123
:104E80001F910F91FF90EF900895EF92FF920F9373
:104E90001F93DF93CF93CDB7DEB762970FB6F89429
:104EA000DEBF0FBECDBF8C01CB01F8011182108295
:104EB000138212821582148216827E010894E11CEC
:104EC000F11CB70150E00E94E333C801B7010E9412
:104ED000D12562960FB6F894DEBF0FBECDBFCF913D
:104EE000DF911F910F91FF90EF900895EF92FF9245
:104EF0000F931F93DF93CF93CDB7DEB729970FB6EC
:104F0000F894DEBF0FBECDBF8C01862FF801118251
:104F100010821382128215821482168290E07E0122
:104F20000894E11CF11CB70150E00E947234C801E2
:104F3000B7010E94D12529960FB6F894DEBF0FBEA7
:104F4000CDBFCF91DF911F910F91FF90EF9008950A
:104F5000EF92FF920F931F93DF93CF93CDB7DEB7FE
:104F600029970FB6F894DEBF0FBECDBF8C01862FF8
:104F7000F801118210821382128215821482168225
:104F800090E07E010894E11CF11CB70150E00E9402
:104F90007234C801B7010E94D12529960FB6F89442
:104FA000DEBF0FBECDBFCF91DF911F910F91FF905C
:104FB000EF900895DF93CF9300D0CDB7DEB7FC011B
:104FC00011821082138212821582148216826983E2
:104FD0001A82BE016F5F7F4F0E94D1250F900F9004
:104FE000CF91DF910895DF93CF9300D0CDB7DEB797
:104FF000FC011182108213821282158214821682A1
:1050000069831A82BE016F5F7F4F0E94D1250F9086
:105010000F90CF91DF910895BF92CF92DF92EF92E0
:10502000FF920F931F93CF93DF93082FB92E6B013D
:105030007A01E9012417350710F4EA017901802F7C
:105040009B2D65E775E00E949D25D60114968D91F4
:105050009C9115978E159F05D0F08C179D0708F42D
:10506000EC01D601ED91FC911197EC0FFD1F108121
:1050700010826D917C916E0D7F1D802F9B2D0E9463
:10508000D125D601ED91FC91EC0FFD1F1083802FEF
:105090009B2DDF91CF911F910F91FF90EF90DF90AB
:1050A000CF90BF9008950F931F938C01FB01248133
:1050B00035810E940C28C8011F910F910895CF934C
:1050C000DF93EC01FB018617970761F06081718126
:1050D0006115710529F0448155810E947C2502C02B
:1050E0000E94D224CE01DF91CF910895FC0111825C
:1050F0001082138212821582148216820E945F2807
:105100000895FC011182108213821282158214828A
:1051100016820E945F280895FC01808191810E947F
:10512000A5310895FC01808191810E94A5310895E7
:105130001F920F920FB60F9211242F933F938F93CC
:105140009F93AF93BF938091780690917906A09139
:105150007A06B0917B0630917C060196A11DB11DA7
:10516000232F2D5F2D3720F02D570196A11DB11D46
:1051700020937C068093780690937906A0937A0614
:10518000B0937B068091740690917506A091760687
:10519000B09177060196A11DB11D8093740690937E
:1051A0007506A0937606B0937706BF91AF919F9155
:1051B0008F913F912F910F900FBE0F901F901895D8
:1051C0008FB7F894209178063091790640917A064D
:1051D00050917B068FBFB901CA0108959FB7F8941B
:1051E00020917406309175064091760650917706AD
:1051F00086B5A89B06C08F3F21F02F5F3F4F4F4FD2
:105200005F4F9FBF542F432F322F2227280F311D6E
:10521000411D511D82E0220F331F441F551F8A95E7
:10522000D1F7B901CA010895EF92FF920F931F932E
:10523000CF93DF937B018C010E94EE28EB010EC01F
:105240000E94EE286C1B7D0B685E7340C8F30894C7
:10525000E108F10801091109C851DC4FE114F1041A
:105260000105110569F7DF91CF911F910F91FF9013
:10527000EF900895019739F0880F991F880F991FB3
:1052800002970197F1F70895789484B5826084BD00
:1052900084B5816084BD85B5826085BD85B581603A
:1052A00085BDEEE6F0E0808181608083E1E8F0E09A
:1052B0001082808182608083808181608083E0E8C9
:1052C000F0E0808181608083E1EBF0E080818460A8
:1052D0008083E0EBF0E0808181608083EAE7F0E0AA
:1052E000808184608083808182608083808181600E
:1052F00080838081806880831092C1000895CF935D
:10530000DF93482F50E0CA018B549A4FFC0134912F
:105310004F555A4FFA018491882369F190E0880F24
:10532000991FFC01ED57FA4FA591B491FC01E35789
:10533000FA4FC591D491662351F42FB7F8948C910C
:10534000932F909589238C93888189230BC0623099
:1053500061F42FB7F8948C91932F909589238C93B7
:105360008881832B88832FBF06C09FB7F8948C91C8
:10537000832B8C939FBFDF91CF910895833071F081
:10538000843028F48130A1F0823021F514C08630B9
:10539000B1F08730D1F08430E9F404C0809180000E
:1053A0008F7703C0809180008F7D80938000089567
:1053B00084B58F7702C084B58F7D84BD08958091B8
:1053C000B0008F778093B00008958091B0008F7DFA
:1053D0008093B0000895FF920F931F93F62E482FED
:1053E00050E0CA0187539A4FFC012491CA018B54A3
:1053F0009A4FFC0114914F555A4FFA010491002322
:10540000C9F0222319F0822F0E94BE29E02FF0E07C
:10541000EE0FFF1FE357FA4FA591B4919FB7F89491
:10542000FF2021F48C911095812302C08C91812B57
:105430008C939FBF1F910F91FF9008950F931F931F
:10544000482F50E0CA0187539A4FFC012491CA01AA
:105450008B549A4FFC0104914F555A4FFA01149105
:10546000112319F420E030E015C0222319F0822F17
:105470000E94BE29812F90E0880F991F89569A4F6C
:10548000FC01A591B4918C9120E030E0802311F0D3
:1054900021E030E0C9011F910F910895FC011382B2
:1054A000128288EE93E0A0E0B0E084839583A68327
:1054B000B7838AE795E0918380830895FC01138286
:1054C000128288EE93E0A0E0B0E084839583A68307
:1054D000B7838AE795E091838083089581E0809384
:1054E000C20660939F061092C0061092C1060895EE
:1054F00081E08093C20660939F061092C0061092CE
:10550000C106089520919E0630E080919D06281BDB
:105510003109C901089540919D0680919E06481762
:1055200018F02FEF3FEF0AC0E42FF0E0E358F94FF7
:105530008081282F30E04F5F40939D06C901089578
:10554000E0919D0680919E06E81718F0EFEFFFEFBF
:1055500006C0F0E0E358F94F8081E82FF0E0CF017A
:1055600008950895AC012091C5063091C606211515
:105570003105E1F090919D0680919E069817B0F05C
:1055800090E008C0FA01EA0FFB1F8081A358B94FD1
:105590008C939F5FA92FB0E0A617B7079CF31092DA
:1055A0009D0660939E06CB01F90109950895E0914F
:1055B000C306F091C406309729F01092C0061092ED
:1055C000C106099508957093C6066093C5060895AF
:1055D0007093C4066093C30608951092CA06109291
:1055E000C90688EE93E0A0E0B0E08093CB069093EC
:1055F000CC06A093CD06B093CE068AE795E09093B3
:10560000C8068093C7060895CF92DF92EF92FF926B
:105610000F931F93CF93DF937C016B018A018091DD
:10562000C2068823A1F0C0E0D0E00DC0D701ED9103
:10563000FC91D601AC0FBD1F0190F081E02DC70198
:105640006C9109952196C017D10780F304C0CB0156
:10565000642F0E94582CC801DF91CF911F910F91A8
:10566000FF90EF90DF90CF900895DF93CF930F924C
:10567000CDB7DEB7FC0169838091C2068823C9F0EB
:105680008091C106803238F081E090E0938382837C
:1056900020E030E015C08091C006E82FF0E0E05631
:1056A000F94F998190838F5F8093C0068093C106E4
:1056B00005C0CE01019661E00E94582C21E030E047
:1056C000C9010F90CF91DF9108950F93062F80911C
:1056D0009F0660EA76E04091C10621E00E94032C1B
:1056E0001092C0061092C1061092C2060F91089542
:1056F00061E00E94652B0895413208F040E2862F58
:105700006DE776E00E94BA2B10929D0680939E066C
:1057100008950E947C2B089521E00E947C2B08951F
:1057200021E00E947C2B089510929D0610929E0607
:105730001092C0061092C1060E94262E08950F9363
:105740001F938C01862F0E94B62B87ED9AE20E9450
:10575000782C82EB9AE20E94732CC8010E94942B51
:105760001F910F9108950E949F2B0895880F809399
:10577000BA000895382F413210F040E042C08091C5
:10578000D3068823E1F791E09093D3062093D506C2
:105790008FEF809340071092FB0641504093FC0628
:1057A0004F5F9093D4068091D406330F832B809360
:1057B000D4068091D606813041F41092D6068091AD
:1057C000D4068093BB0085EC01C085EE8093BC00BD
:1057D0008091D3068130E1F38091FB06841710F4A9
:1057E0004091FB0620E030E00AC0FB01E20FF31F0E
:1057F000D901A552B94F8C9180832F5F3F4F241759
:10580000A0F3842F08950F931F93582F122F413226
:1058100010F081E04AC08091D3068823E1F782E04E
:105820008093D3060093D5068FEF809340071092A4
:10583000FB064093FC06ABEDB6E0FB0102C0819194
:105840008D938E2F861B8417D0F31092D4068091EF
:10585000D406550F852B8093D4068091D6068130CF
:1058600041F41092D6068091D4068093BB0085EC5B
:1058700001C085EE8093BC00112321F08091D306F6
:105880008230E1F3809140078F3F11F480E00DC03A
:1058900080914007803211F482E007C08091400778
:1058A000803311F084E001C083E01F910F910895CF
:1058B000482F613210F081E008958091D306843042
:1058C00011F082E0089560931E07ADEFB6E0842FDB
:1058D0009C01F90102C081918D938E2F841B861744
:1058E000D0F380E008959093DA068093D906089566
:1058F0009093D8068093D7060895882311F085ECFD
:1059000001C085E88093BC00089585ED8093BC00BC
:105910008091BC0084FDFCCF1092D306089585ECE5
:105920008093BC001092D30608951F920F920FB679
:105930000F9211242F933F934F935F936F937F9315
:105940008F939F93AF93BF93EF93FF938091B90091
:1059500090E0887F90708036910509F4F2C081361E
:105960009105CCF58832910509F47BC08932910507
:10597000B4F48031910509F46FC0813191053CF494
:10598000009709F447C1089709F04FC165C08831F5
:10599000910509F466C0809709F047C182C0803440
:1059A000910509F4A4C08134910544F48033910534
:1059B00009F482C0C89709F038C189C080359105C3
:1059C00009F489C08835910509F496C08834910599
:1059D00009F02BC1AEC08839910509F413C189398A
:1059E0009105ECF48837910509F4ABC0893791052E
:1059F0004CF48836910509F4A4C08037910509F06C
:105A000014C19FC08838910509F4FCC08039910504
:105A100009F49DC08038910509F007C198C0803B0A
:105A2000910509F4C6C0813B91054CF4803A91057B
:105A300009F49FC0883A910509F0F7C0BAC0803CCC
:105A4000910509F4E3C0883C910509F4DFC0883B67
:105A5000910509F0EAC0C2C08091D4068093BB00D2
:105A6000CFC09091FB068091FC06981768F4909146
:105A7000FB06E92FF0E0E552F94F80818093BB00EF
:105A80009F5F9093FB06BCC08091D506882309F4E4
:105A90004BC085ED8093BC008091BC0084FDFCCFA1
:105AA000C2C080E28093400785ED8093BC00809166
:105AB000BC0084FDFCCFB7C080E38093400785ED38
:105AC0008093BC008091BC0084FDFCCFACC088E317
:105AD000809340079BC08091FB069091BB00E82F0C
